:04000000CAEF01F052
:100008005C82D9CF53F0DACF54F0F3CF55F0F4CF68
:1000180056F0F6CF57F0F7CF58F0F8CF59F0F5CFA4
:100028005AF09EA029D0410E5B18D8A410D08C9EFF
:100038008CAC06D0E1C0CEFFE2C0CFFF8C9C07D0CD
:100048008CBC05D0DFC0CEFFE0C0CFFF8C8C420E49
:100058005B18D8A410D08C9C8CAE06D0E1C0CEFF23
:10006800E2C0CFFF8C9E07D08CBE05D0DFC0CEFF8C
:10007800E0C0CFFF8C8E9E909EAA76D1AECF79F04D
:10008800410E00017919D8B404D0420E7919D8A4C8
:1000980003D079C05BF068D1300E7919D8B424D078
:1000A800310E7919D8B420D0320E7919D8B41CD0B1
:1000B800330E7919D8B418D0340E7919D8B414D0AD
:1000C800350E7919D8B410D0360E7919D8B40CD0A9
:1000D800370E7919D8B408D0380E7919D8B404D0A5
:1000E800390E7919D8A4A9D0E305E411D8A40AD007
:1000F800D00E7925DD6FDE6BFF0EDE23000EE46F78
:10010800020EA2D0020EE319E411D8A416D0DDC065
:1001180001F0DEC002F0000E046E0A0E036E23EC3E
:1001280022F0000179510126000E0222D00E01248E
:10013800DD6FFF0E0220DE6F17D1030EE319E41105
:10014800D8A43BD0CD0E126ECC0E136E3D0E146E9D
:10015800D00E7925096E0A6AFF0E0A228CEC21F06E
:1001680009C00FF00AC010F00BC011F07EEC19F0B6
:100178000FC02FF010C030F011C031F0DDC009F011
:10018800DEC00AF048EC22F009C02CF00AC02DF0BD
:100198000BC02EF0B7EC16F02CC038F02DC039F09B
:1001A8002EC03AF0BCEC1BF038C0DDF039C0DEF0F0
:1001B800000E0001E46F040E47D0040EE319E411A9
:1001C800D8A4D2D0D70E126E230E136E3C0E146E26
:1001D800D00E7925096E0A6AFF0E0A228CEC21F0EE
:1001E80009C00FF00AC010F00BC011F07EEC19F036
:1001F8000FC02FF010C030F011C031F0DDC009F091
:10020800DEC00AF048EC22F009C02CF00AC02DF03C
:100218000BC02EF0B7EC16F02CC038F02DC039F01A
:100228002EC03AF0BCEC1BF038C0DDF039C0DEF06F
:10023800000E0001E46F050E07D02E0E7919D8A420
:1002480005D0000EE46F030EE36F8ED04F0E7919C0
:10025800D8A48AD0DDC0DBF0DEC0DCF0000EE46F8D
:10026800010EE36F000EDE6F000EDD6F410E5B18AE
:10027800D8A43CD0010E95EC22F0800E95EC22F02B
:100288001F0E476E010E486E840E496EDBC04AF0A1
:10029800DCC04BF06CEC0CF0EAEC20F0C00E95ECF6
:1002A80022F0D1C00FF0D2C010F0D3C011F0000E70
:1002B800126E7A0E136E440E146E7EEC19F00FC097
:1002C80076F010C077F011C078F01F0E476E010E5F
:1002D800486E9A0E496E76C04AF077C04BF078C0E7
:1002E8004CF06CEC0CF0EAEC20F03ED0420E5B18BF
:1002F800D8A43AD0010E95EC22F0800E95EC22F0AD
:100308001F0E476E010E486E8F0E496EDBC04AF015
:10031800DCC04BF06CEC0CF0EAEC20F0C00E95EC75
:1003280022F0D1C00FF0D2C010F0D3C011F0000EEF
:10033800126E7A0E136E440E146E7EEC19F00FC016
:1003480076F010C077F011C078F01F0E476E010EDE
:10035800486E9A0E496E76C04AF077C04BF078C066
:100368004CF06CEC0CF0BFD75AC0F5FF59C0F8FF41
:1003780058C0F7FF57C0F6FF56C0F4FF55C0F3FF4B
:1003880054C0DAFF53C0D9FF5C9211009BEF20F0F4
:101000000000803F00204100C842007A44401C4656
:1010100050C34724744997184BBCBE4C6B6E4E03AB
:10102000155079AD60F3497100803FCDCC3DD72399
:101030003C12833AB7D138C62737388635C0D63305
:10104000CC2B32708930E7DB2EE53C1E42A20D012D
:101050000000000A00000064000000E80300001027
:10106000270000A086010040420F008096980000F3
:10107000E1F50500CA9A3B536572766F20323A2536
:101080002E356600536572766F20313A2564005321
:101090006572766F20323A25640044433A252E3239
:1010A00066206D730000C90E0101096FFED3250E85
:1010B0001B19D8B40AD0C6C0D9FFC7C0DAFF1BC1FC
:1010C000DFFF0001C64BC72BF0D3000E0B6F000EE5
:1010D0000A6FC8C0F6FF100EF76E0800F5502E0A12
:1010E000D8A439D00B8D0001C82B000E0101176F59
:1010F000000E166F25D016C17AF017C17BF0000ED6
:101100007D6F0A0E7C6FFDEC21F07AC016F17BC07A
:1011100017F1D00E0101006FFF0E016FC8C0F6FF7E
:10112000100EF76E0800F550026F036B0051022796
:101130000151032302511627035117230001C82B25
:10114000C8C0F6FF100EF76E0800F5505AEC22F0FA
:10115000D8A009D0D0D7000E176F000E166F0B89DC
:1011600002D00B8519D00001C82BC8050101006F02
:1011700000C1F6FF100EF76E0800F5CF1BF11B51F2
:10118000000AD8B4A2D3640AD8B406D0020AD8B4EC
:10119000E8D70F0AD8A489D3070E0B15D8B4CFD23D
:1011A0000BA904D0000E176F060E166F0951D96EE9
:1011B000DA6ADECF18F1DECF19F1DDCF1AF1030EB6
:1011C00009271AAF11D018C17AF019C17BF01AC1E2
:1011D0007CF010EC22F07AC018F17BC019F17CC0D1
:1011E0001AF1030E01010A13000E0D6F000E0C6FB1
:1011F000185119111A11D8B487D0820E006FFF0E42
:10120000016F18C102F119C103F11AC104F11BC128
:1012100005F1100E05D0D8900533043303330233A3
:10122000E82EF9D7025100250C6F000E01210D6F39
:101230000C07D8A00D070CC17AF00DC17BF0000E91
:1012400000017D6F030E7C6FFDEC21F07AC00CF184
:101250007BC00DF10CC180F00DC181F0000E836FD9
:101260000A0E826F7BEC1DF080C00CF181C00DF185
:1012700001010DAF03D00C07D8A00D070C510008D9
:101280006BEC10F097C00EF198C00FF199C010F1FF
:101290000EC188F00FC189F010C18AF018C18BF01F
:1012A00019C18CF01AC18DF004EC19F088C00EF150
:1012B00089C00FF18AC010F10EC17AF00FC17BF026
:1012C00010C17CF0000E7D6F800E7E6F3F0E7F6F31
:1012D000BDEC1EF0D8B005D001010C07D8A00D0759
:1012E00013D00EC17AF00FC17BF010C17CF0000E5C
:1012F0007D6F200E7E6F410E7F6FBDEC1EF0D8A07B
:1013000003D001010C4B0D2B010117BF06D0175163
:101310001BE10D0E165DD8B017D018C1A5F019C18C
:10132000A6F01AC1A7F0165105EC14F097C0A8F06A
:1013300098C0A9F099C0AAF0E3EC15F0A5C018F187
:10134000A6C019F1A7C01AF101010DBF06D00D51B9
:1013500020E10A0E0C5DD8B01CD0185119111A11D9
:10136000D8B457D018C1B7F019C1B8F01AC1B9F044
:1013700051EC1BF0B751B811B911BA11D8A449D02A
:1013800001010DBF46D00D5104E1020E0C5DD8A045
:1013900040D00EC17AF00FC17BF010C17CF0700E0E
:1013A00000017D6F890E7E6F400E7F6FBDEC1EF0D9
:1013B000D8B003D00101F70E02D00101F80E0C27BE
:1013C000FF0E0D230C516BEC10F097C00EF198C07E
:1013D0000FF199C010F118C17AF019C17BF01AC150
:1013E0007CF00EC17DF00FC17EF010C17FF08BEC60
:1013F00017F07AC012F17BC013F17CC014F17DC0EC
:1014000015F1000E0101186F000E196F000E1A6F12
:1014100033D018C1B7F019C1B8F01AC1B9F051EC06
:101420001BF0B7C012F1B8C013F1B9C014F1BAC0C3
:1014300015F118C1B1F019C1B2F01AC1B3F012C15F
:1014400082F013C183F014C184F015C185F03FEC24
:1014500020F082C0B4F083C0B5F084C0B6F011ECC7
:1014600021F0B1C018F1B2C019F1B3C01AF1000EE9
:1014700001010D6F000E0C6F010E1B6F1B51040D4F
:10148000F3504F0F006F00C1F6FF100EF76E09000A
:10149000F550125D0900F55013590900F550145923
:1014A0000900F5501559D8A005D01B2B0A0E1B19A1
:1014B000D8A4E4D70AC100F1030E0017D8B453D062
:1014C000C6C0D9FFC7C0DAFF2D0EDF6E0001C64BC4
:1014D000C72B49D012C17AF013C17BF014C17CF044
:1014E00015C17DF01B51040DF3504F0F006F00C16B
:1014F000F6FF100EF76E0900F5CF7EF00900F5CF6C
:101500007FF00900F5CF80F00A00F5CF81F0BDEC47
:101510001DF07AC00EF17BC00FF17CC010F17DC0D0
:1015200011F10EC187F00FC188F010C189F011C10F
:101530008AF00A0E8B6F000E8C6F000E8D6F000EFE
:101540008E6FD8EC1FF087C00EF188C00FF189C0F4
:1015500010F18AC011F101010E51300FC6C0D9FF40
:10156000C7C0DAFFB2D701011B071B29D8B40ED0C0
:10157000B1D7C6C0D9FFC7C0DAFF300EDF6E000199
:10158000C64BC72B01010C07D8A00D070DBF05D016
:101590000D51EFE10C05D8B0ECD717BF09D01751AA
:1015A00004E1090E165DD8A003D0080E1B6F02D00F
:1015B00016C11BF11B51165F000E175B1B51D8B4EF
:1015C00009D0C6C0D9FFC7C0DAFF2E0EDF6E0001FA
:1015D000C64BC72B01011B516BEC10F097C006F1F5
:1015E00098C007F199C008F118C18BF019C18CF0AF
:1015F0001AC18DF006C188F007C189F008C18AF0D0
:1016000004EC19F088C0B7F089C0B8F08AC0B9F00E
:1016100051EC1BF0B7C012F1B8C013F1B9C014F10E
:10162000BAC015F174D012C17AF013C17BF014C1A5
:101630007CF015C17DF01B51040DF3504F0F006F6E
:1016400000C1F6FF100EF76E0900F5CF7EF009001D
:10165000F5CF7FF00900F5CF80F00A00F5CF81F0DB
:10166000BDEC1DF07AC00EF17BC00FF17CC010F113
:101670007DC011F10EC187F00FC188F010C189F053
:1016800011C18AF00A0E8B6F000E8C6F000E8D6FE9
:10169000000E8E6FD8EC1FF087C00EF188C00FF1DE
:1016A00089C010F18AC011F101010E51300FC6C07E
:1016B000D9FFC7C0DAFFDF6E0001C64BC72B12C1CE
:1016C00087F013C188F014C189F015C18AF00101B7
:1016D0001B51040DF3504F0F006F00C1F6FF100EA9
:1016E000F76E0900F5CF8BF00900F5CF8CF00900FB
:1016F000F5CF8DF00A00F5CF8EF0D8EC1FF087C043
:1017000012F188C013F189C014F18AC015F10101EA
:101710001B071B29D8B40ED086D7C6C0D9FFC7C0B7
:10172000DAFF300EDF6E0001C64BC72B0101160732
:10173000D8A0170716511711D8B4B7D0EED7095152
:10174000D96EDA6ADECF12F1DDCF13F1000E13BFCE
:10175000FF0E146F156F020E092715AF0AD0030E86
:101760000A13151F141F131F126D000E13231423C9
:10177000152316511711D8A408D0125113111411A2
:101780001511D8A402D0164B172B010E1B6F1B513D
:10179000040DF3504F0F006F00C1F6FF100EF76EEF
:1017A0000900F550125D0900F55013590900F55074
:1017B00014590900F5501559D8A005D01B2B0A0E55
:1017C0001B19D8A4E4D71B51006F016B1651005DA3
:1017D0000151800A026F1751800A0259D8A010D017
:1017E0001B51006F016B0051165D1751800A026F8B
:1017F0000151800A0259D8B003D01BC116F1176BF2
:101800000AC100F1030E0017D8B446D0C6C0D9FFF4
:10181000C7C0DAFF2D0EDF6E0001C64BC72B3CD0D0
:101820001651040DF3504F0F006F00C1F6FF100E5C
:10183000F76E0900F5CF7EF00900F5CF7FF00900C3
:10184000F5CF80F00A00F5CF81F012C17AF013C114
:101850007BF014C17CF015C17DF0BDEC1DF07AC0A9
:1018600087F07BC088F07CC089F07DC08AF00A0ECA
:101870008B6F000E8C6F000E8D6F000E8E6FD8EC8C
:101880001FF08751300F01011B6FC6C0D9FFC7C0C1
:10189000DAFF1BC1DFFFC0D701011607D8A0170769
:1018A0001629BEE11729D8A4BBD70001C82BC8054B
:1018B0000101006F00C1F6FF100EF76E0800F5CFB2
:1018C0001BF11B51D8A457EF08F0C6C0D9FFC7C001
:1018D000DAFF000EDF6E12004A0E0001636FE7D3DD
:1018E000250E7519D8B409D047C0D9FF48C0DAFF12
:1018F00075C0DFFF474A482ADAD3000E656F000E35
:10190000646F49C0F6FF100EF76E0800F5502E0AFE
:10191000D8A436D0658D492A000E716F000E706F05
:1019200024D070C001F071C002F0000E046E0A0EE7
:10193000036E23EC22F001C070F002C071F0D00EF3
:101940004D6EFF0E4E6E49C0F6FF100EF76E08008A
:10195000F5504F6E506A4D504F264E5050224F500A
:101960000001702750507123492A49C0F6FF100E1C
:10197000F76E0800F5506BEC22F0D8A009D0D1D753
:10198000000E716F000E706F658902D0658518D0EA
:10199000492A49044D6E4DC0F6FF100EF76E08003F
:1019A000F5CF75F000017551000AD8B48DD3640AE3
:1019B000D8B406D0020AD8B4E9D70F0AD8A477D38E
:1019C000070E6515D8B4C0D265A904D0000E716F9A
:1019D000060E706F6351D96EDA6ADECF72F0DECF19
:1019E00073F0DDCF74F0030E632774AF10D072C0B4
:1019F00001F073C002F074C003F036EC22F001C0B5
:101A000072F002C073F003C074F0030E6413000E92
:101A1000676F000E666F725173117411D8B486D05F
:101A2000820E4D6EFF0E4E6E72C04FF073C050F0BE
:101A300074C051F075C052F0100E05D0D8905232DB
:101A4000513250324F32E82EF9D74F504D24666F45
:101A5000000E4E20676F6607D8A0670766C001F0CA
:101A600067C002F0000E046E030E036E23EC22F03A
:101A700001C066F002C067F066C007F067C008F0FA
:101A8000000E0A6E0A0E096EFFEC1DF007C066F02C
:101A900008C067F0000167AF03D06607D8A06707EA
:101AA0006651000839EC12F01EC068F01FC069F0E2
:101AB00020C06AF068C00FF069C010F06AC011F071
:101AC00072C012F073C013F074C014F07EEC19F001
:101AD0000FC068F010C069F011C06AF068C001F072
:101AE00069C002F06AC003F0000E046E800E056E3D
:101AF0003F0E066EF7EC1EF0D8B005D00001660769
:101B0000D8A0670713D068C001F069C002F06AC0AE
:101B100003F0000E046E200E056E410E066EF7EC0B
:101B20001EF0D8A003D00001664B672B000171BFE7
:101B300006D071511BE10D0E705DD8B017D072C088
:101B40002CF073C02DF074C02EF07051F5EC14F031
:101B50001EC02FF01FC030F020C031F0B7EC16F0DF
:101B60002CC072F02DC073F02EC074F0000167BF5E
:101B700006D0675120E10A0E665DD8B01CD07251C4
:101B800073117411D8B456D072C038F073C039F0E4
:101B900074C03AF0BCEC1BF0385039103A103B10CE
:101BA000D8A448D0000167BF45D0675104E1020EB8
:101BB000665DD8A03FD068C001F069C002F06AC07D
:101BC00003F0700E046E890E056E400E066EF7EC83
:101BD0001EF0D8B003D00001F70E02D00001F80EBD
:101BE0006627FF0E6723665139EC12F01EC068F0BD
:101BF0001FC069F020C06AF072C001F073C002F02B
:101C000074C003F068C004F069C005F06AC006F053
:101C10000AEC18F001C06CF002C06DF003C06EF069
:101C200004C06FF0000E0001726F000E736F000EA3
:101C3000746F33D072C038F073C039F074C03AF0AA
:101C4000BCEC1BF038C06CF039C06DF03AC06EF0DF
:101C50003BC06FF072C038F073C039F074C03AF016
:101C60006CC009F06DC00AF06EC00BF06FC00CF0D4
:101C70006DEC20F009C03BF00AC03CF00BC03DF019
:101C800031EC21F038C072F039C073F03AC074F012
:101C9000000E0001676F000E666F010E756F7551C3
:101CA000040DF3504F0F4D6E4DC0F6FF100EF76E42
:101CB0000900F5506C5D0900F5506D590900F550AB
:101CC0006E590900F5506F59D8A005D0752B0A0E32
:101CD0007519D8A4E4D764C04DF0030E4D16D8B4DE
:101CE00051D047C0D9FF48C0DAFF2D0EDF6E474AFA
:101CF000482A48D06CC001F06DC002F06EC003F0FD
:101D00006FC004F07551040DF3504F0F4D6E4DC070
:101D1000F6FF100EF76E0900F5CF05F00900F5CFBC
:101D200006F00900F5CF07F00A00F5CF08F041EC06
:101D30001EF001C068F002C069F003C06AF004C080
:101D40006BF068C00EF069C00FF06AC010F06BC095
:101D500011F00A0E126E000E136E000E146E000EBD
:101D6000156E0CEC20F00EC068F00FC069F010C0CA
:101D70006AF011C06BF06851300F47C0D9FF48C0FE
:101D8000DAFFB4D775077529D8B40CD0B3D747C0DC
:101D9000D9FF48C0DAFF300EDF6E474A482A66078F
:101DA000D8A0670767BF05D06751F1E16605D8B0D5
:101DB000EED771BF09D0715104E1090E705DD8A052
:101DC00003D0080E756F02D070C075F07551705F4A
:101DD000000E715B7551D8B408D047C0D9FF48C018
:101DE000DAFF2E0EDF6E474A482A755139EC12F0A1
:101DF0001EC060F01FC061F020C062F072C012F01F
:101E000073C013F074C014F060C00FF061C010F024
:101E100062C011F07EEC19F00FC038F010C039F03C
:101E200011C03AF0BCEC1BF038C06CF039C06DF05A
:101E30003AC06EF03BC06FF071D06CC001F06DC065
:101E400002F06EC003F06FC004F07551040DF35042
:101E50004F0F4D6E4DC0F6FF100EF76E0900F5CF17
:101E600005F00900F5CF06F00900F5CF07F00A00EC
:101E7000F5CF08F041EC1EF001C068F002C069F037
:101E800003C06AF004C06BF068C00EF069C00FF0C8
:101E90006AC010F06BC011F00A0E126E000E136EC5
:101EA000000E146E000E156E0CEC20F00EC068F0E3
:101EB0000FC069F010C06AF011C06BF06851300FAC
:101EC00047C0D9FF48C0DAFFDF6E474A482A6CC0D6
:101ED0000EF06DC00FF06EC010F06FC011F07551B4
:101EE000040DF3504F0F4D6E4DC0F6FF100EF76E00
:101EF0000900F5CF12F00900F5CF13F00900F5CF76
:101F000014F00A00F5CF15F00CEC20F00EC06CF0C8
:101F10000FC06DF010C06EF011C06FF000017507BA
:101F20007529D8B40CD089D747C0D9FF48C0DAFF8B
:101F3000300EDF6E474A482A7007D8A071077051EB
:101F40007111D8B4B4D0F0D76351D96EDA6ADECF4C
:101F50006CF0DDCF6DF0000E6DBFFF0E6E6F6F6F1A
:101F6000020E63276FAF0AD0030E64136F1F6E1F3C
:101F70006D1F6C6D000E6D236E236F2370517111F8
:101F8000D8A408D06C516D116E116F11D8A402D075
:101F9000704B712B010E756F7551040DF3504F0F7F
:101FA0004D6E4DC0F6FF100EF76E0900F5506C5DDA
:101FB0000900F5506D590900F5506E590900F550AA
:101FC0006F59D8A005D0752B0A0E7519D8A4E4D77F
:101FD00075514D6E4E6A70514D5C4E50800A4F6E79
:101FE0007151800A4F58D8A010D075514D6E4E6A6D
:101FF0004D50705D7151800A4F6E4E50800A4F589F
:10200000D8B003D075C070F0716B64C04DF0030E92
:102010004D16D8B444D047C0D9FF48C0DAFF2D0EC2
:10202000DF6E474A482A3BD07051040DF3504F0FE2
:102030004D6E4DC0F6FF100EF76E0900F5CF05F09E
:102040000900F5CF06F00900F5CF07F00A00F5CF3B
:1020500008F06CC001F06DC002F06EC003F06FC0FC
:1020600004F041EC1EF001C00EF002C00FF003C0FE
:1020700010F004C011F00A0E126E000E136E000E66
:10208000146E000E156E0CEC20F00E50300F756FB4
:1020900047C0D9FF48C0DAFF75C0DFFFC2D770075D
:1020A000D8A071077029C0E17129D8A4BDD7492AE9
:1020B00049044D6E4DC0F6FF100EF76E0800F5CFC7
:1020C00075F07551D8A40CD447C0D9FF48C0DAFFC9
:1020D000000EDF6E12000001A16F0001A1AFE5D07C
:1020E000A16DA151800A120FD8A080D0000E836F7D
:1020F0000A0E826F000E7D6F640E7C6FA1517A6FA5
:102100007B6B7ABF7B0731EC1FF07AC080F07BC01D
:1021100081F07BEC1DF08051030DF3CF9AF01B0E84
:102120009A279A51280F9B6F9BC0F6FF100EF76EEF
:102130000900F5CF8BF00900F5CF8CF00A00F5CF40
:102140008DF0000E836F640E826FA151806F816BE2
:1021500080BF81077BEC1DF08051030DF3CF9CF015
:10216000360E9C279C51280F9D6F9DC0F6FF100EC8
:10217000F76E0900F5CF88F00900F5CF89F00A0065
:10218000F5CF8AF004EC19F088C09EF089C09FF06A
:102190008AC0A0F09EC088F09FC089F0A0C08AF0DD
:1021A000000E7D6F0A0E7C6FA1517A6F7B6B7ABF38
:1021B0007B0731EC1FF07A51030DF350280F9A6F13
:1021C0009AC0F6FF100EF76E0900F5CF8BF00900EC
:1021D000F5CF8CF00A00F5CF8DF004EC19F088C033
:1021E00097F089C098F08AC099F01200A151800A36
:1021F000750FD8A047D0000E836F0A0E826FA151D1
:10220000806F816B80BF81077BEC1DF08051030DD7
:10221000F3CF9AF01B0E9A279A51280F9B6F9BC001
:10222000F6FF100EF76E0900F5CF88F00900F5CF24
:1022300089F00A00F5CF8AF0000E7D6F0A0E7C6FE0
:10224000A1517A6F7B6B7ABF7B0731EC1FF07A511B
:10225000030DF350280F9C6F9CC0F6FF100EF76E15
:102260000900F5CF8BF00900F5CF8CF00A00F5CF0F
:102270008DF004EC19F088C097F089C098F08AC0FE
:1022800099F01200A151030DF350280F9A6F9AC0D4
:10229000F6FF100EF76E0900F5CF97F00900F5CFA5
:1022A00098F00A00F5CF99F01200A151800A120FA0
:1022B000D8A080D0000E836F0A0E826F000E7D6F53
:1022C000640E7C6FA1517A6F7B6B7ABF7B0731EC18
:1022D0001FF07AC080F07BC081F07BEC1DF0805154
:1022E000030DF3CF9AF01B0E9A279A51010F9B6FA3
:1022F0009BC0F6FF100EF76E0900F5CF8BF00900BA
:10230000F5CF8CF00A00F5CF8DF0000E836F640ED0
:10231000826FA151806F816B80BF81077BEC1DF0C4
:102320008051030DF3CF9CF0360E9C279C51010F7A
:102330009D6F9DC0F6FF100EF76E0900F5CF88F077
:102340000900F5CF89F00A00F5CF8AF004EC19F006
:1023500088C09EF089C09FF08AC0A0F09EC088F01F
:102360009FC089F0A0C08AF0000E7D6F0A0E7C6FBE
:10237000A1517A6F7B6B7ABF7B0731EC1FF07A51EA
:10238000030DF350010F9A6F9AC0F6FF100EF76E0F
:102390000900F5CF8BF00900F5CF8CF00A00F5CFDE
:1023A0008DF004EC19F088C097F089C098F08AC0CD
:1023B00099F01200A151800A750FD8A047D0000EE5
:1023C000836F0A0E826FA151806F816B80BF81077E
:1023D0007BEC1DF08051030DF3CF9AF01B0E9A2772
:1023E0009A51010F9B6F9BC0F6FF100EF76E09000C
:1023F000F5CF88F00900F5CF89F00A00F5CF8AF013
:10240000000E7D6F0A0E7C6FA1517A6F7B6B7ABFD5
:102410007B0731EC1FF07A51030DF350010F9C6FD5
:102420009CC0F6FF100EF76E0900F5CF8BF0090087
:10243000F5CF8CF00A00F5CF8DF004EC19F088C0D0
:1024400097F089C098F08AC099F01200A151030D4D
:10245000F350010F9A6F9AC0F6FF100EF76E090045
:10246000F5CF97F00900F5CF98F00A00F5CF99F075
:102470001200286E28AEE5D0286C2850800A120F72
:10248000D8A080D0000E0A6E0A0E096E000E046EEF
:10249000640E036E2850016E026A01BE020669ECEA
:1024A0001FF001C007F002C008F0FFEC1DF007505C
:1024B000030DF3CF21F01B0E21262150280F226E91
:1024C00022C0F6FF100EF76E0900F5CF12F00900DA
:1024D000F5CF13F00A00F5CF14F0000E0A6E640E6B
:1024E000096E2850076E086A07BE0806FFEC1DF04B
:1024F0000750030DF3CF23F0360E23262350280F69
:10250000246E24C0F6FF100EF76E0900F5CF0FF011
:102510000900F5CF10F00A00F5CF11F07EEC19F0AC
:102520000FC025F010C026F011C027F025C00FF015
:1025300026C010F027C011F0000E046E0A0E036EC4
:102540002850016E026A01BE020669EC1FF00150BC
:10255000030DF350280F216E21C0F6FF100EF76E09
:102560000900F5CF12F00900F5CF13F00A00F5CFFE
:1025700014F07EEC19F00FC01EF010C01FF011C057
:1025800020F012002850800A750FD8A047D0000E06
:102590000A6E0A0E096E2850076E086A07BE080602
:1025A000FFEC1DF00750030DF3CF21F01B0E212689
:1025B0002150280F226E22C0F6FF100EF76E090080
:1025C000F5CF0FF00900F5CF10F00A00F5CF11F0AC
:1025D000000E046E0A0E036E2850016E026A01BEE0
:1025E000020669EC1FF00150030DF350280F236E13
:1025F00023C0F6FF100EF76E0900F5CF12F00900A8
:10260000F5CF13F00A00F5CF14F07EEC19F00FC0EF
:102610001EF010C01FF011C020F012002850030D52
:10262000F350280F216E21C0F6FF100EF76E09003F
:10263000F5CF1EF00900F5CF1FF00A00F5CF20F00E
:1026400012002850800A120FD8A080D0000E0A6E07
:102650000A0E096E000E046E640E036E2850016EA1
:10266000026A01BE020669EC1FF001C007F002C059
:1026700008F0FFEC1DF00750030DF3CF21F01B0E07
:1026800021262150010F226E22C0F6FF100EF76E98
:102690000900F5CF12F00900F5CF13F00A00F5CFCD
:1026A00014F0000E0A6E640E096E2850076E086A58
:1026B00007BE0806FFEC1DF00750030DF3CF23F013
:1026C000360E23262350010F246E24C0F6FF100E71
:1026D000F76E0900F5CF0FF00900F5CF10F00A00F2
:1026E000F5CF11F07EEC19F00FC025F010C026F0E8
:1026F00011C027F025C00FF026C010F027C011F040
:10270000000E046E0A0E036E2850016E026A01BEAE
:10271000020669EC1FF00150030DF350010F216E0A
:1027200021C0F6FF100EF76E0900F5CF12F0090078
:10273000F5CF13F00A00F5CF14F07EEC19F00FC0BE
:102740001EF010C01FF011C020F012002850800AA7
:10275000750FD8A047D0000E0A6E0A0E096E2850D9
:10276000076E086A07BE0806FFEC1DF00750030D50
:10277000F3CF21F01B0E21262150010F226E22C023
:10278000F6FF100EF76E0900F5CF0FF00900F5CF38
:1027900010F00A00F5CF11F0000E046E0A0E036E61
:1027A0002850016E026A01BE020669EC1FF001505A
:1027B000030DF350010F236E23C0F6FF100EF76ECA
:1027C0000900F5CF12F00900F5CF13F00A00F5CF9C
:1027D00014F07EEC19F00FC01EF010C01FF011C0F5
:1027E00020F012002850030DF350010F216E21C07C
:1027F000F6FF100EF76E0900F5CF1EF00900F5CFB9
:102800001FF00A00F5CF20F012000001A46F6D0E3A
:102810000001A46579D00A0E7E6F640E7A6FA45110
:10282000A8EC21F051EC21F0030DF3CF9AF01B0E30
:102830009A279A51280F9B6F9BC0F6FF100EF76ED8
:102840000900F5CF8BF00900F5CF8CF00A00F5CF29
:102850008DF0640E7E6FA45151EC21F0030DF3CF87
:102860009CF0360E9C279C51280F9D6F9DC0F6FF53
:10287000100EF76E0900F5CF88F00900F5CF89F04A
:102880000A00F5CF8AF004EC19F088C0A1F089C0E5
:10289000A2F08AC0A3F00A0E7A6FA451A8EC21F02E
:1028A000030DF350280F9A6F9AC0F6FF100EF76EC3
:1028B0000900F5CF8BF00900F5CF8CF00A00F5CFB9
:1028C0008DF0A1C088F0A2C089F0A3C08AF004EC0A
:1028D00019F088C09EF089C09FF08AC0A0F09EC009
:1028E00088F09FC089F0A0C08AF0000E8B6F000EA8
:1028F0008C6F3F0E8D6F04EC19F088C097F089C083
:1029000098F08AC099F012000A0EA4654DD00A0E04
:102910007A6FA451A8EC21F0030DF350280F9A6FA1
:102920009AC0F6FF100EF76E0900F5CF8BF0090084
:10293000F5CF8CF00A00F5CF8DF00A0E7E6FA45112
:1029400051EC21F0030DF3CF9BF01B0E9B279B5105
:10295000280F9C6F9CC0F6FF100EF76E0900F5CF94
:1029600088F00900F5CF89F00A00F5CF8AF004EC71
:1029700019F088C0A1F089C0A2F08AC0A3F0A1C05C
:1029800088F0A2C089F0A3C08AF0000E8B6F000E01
:102990008C6F3F0E8D6F04EC19F088C097F089C0E2
:1029A00098F08AC099F01200A451030DF350280F3B
:1029B0009A6F9AC0F6FF100EF76E0900F5CF88F0F7
:1029C0000900F5CF89F00A00F5CF8AF0000E8B6F71
:1029D000000E8C6F3F0E8D6F04EC19F088C097F0DD
:1029E00089C098F08AC099F012002B6E6D0E2B648E
:1029F00079D00A0E056E640E016E2B50D3EC21F0D7
:102A00006FEC21F0030DF3CF21F01B0E2126215096
:102A1000280F226E22C0F6FF100EF76E0900F5CFC8
:102A200012F00900F5CF13F00A00F5CF14F0640E90
:102A3000056E2B506FEC21F0030DF3CF23F0360E13
:102A400023262350280F246E24C0F6FF100EF76EA5
:102A50000900F5CF0FF00900F5CF10F00A00F5CF0F
:102A600011F07EEC19F00FC028F010C029F011C051
:102A70002AF00A0E016E2B50D3EC21F0030DF35017
:102A8000280F216E21C0F6FF100EF76E0900F5CF5A
:102A900012F00900F5CF13F00A00F5CF14F028C0AA
:102AA0000FF029C010F02AC011F07EEC19F00FC011
:102AB00025F010C026F011C027F025C00FF026C069
:102AC00010F027C011F0000E126E000E136E3F0EB4
:102AD000146E7EEC19F00FC01EF010C01FF011C074
:102AE00020F012000A0E2B644DD00A0E016E2B50FE
:102AF000D3EC21F0030DF350280F216E21C0F6FF17
:102B0000100EF76E0900F5CF12F00900F5CF13F0A3
:102B10000A00F5CF14F00A0E056E2B506FEC21F071
:102B2000030DF3CF22F01B0E22262250280F236E16
:102B300023C0F6FF100EF76E0900F5CF0FF0090065
:102B4000F5CF10F00A00F5CF11F07EEC19F00FC0B0
:102B500028F010C029F011C02AF028C00FF029C0B9
:102B600010F02AC011F0000E126E000E136E3F0E10
:102B7000146E7EEC19F00FC01EF010C01FF011C0D3
:102B800020F012002B50030DF350280F216E21C0AE
:102B9000F6FF100EF76E0900F5CF0FF00900F5CF24
:102BA00010F00A00F5CF11F0000E126E000E136E39
:102BB0003F0E146E7EEC19F00FC01EF010C01FF017
:102BC00011C020F01200A7C0ABF0AC6BAD6BA63506
:102BD000AB3701E3AC81AB51B06FAAC0ABF0AC6BCB
:102BE000AD6BA935AB3701E3AC81AB51AF6FB051E1
:102BF000D8B40AD0AF51B05DD8B00DD0B051AF5DF0
:102C0000AB6F180EAB6507D0A8C0A5F0A9C0A6F0A1
:102C1000AAC0A7F01200AF51D8B40AD0B051AF5D2E
:102C2000D8B00DD0AF51B05DAB6F180EAB6507D00B
:102C3000A5C0A5F0A6C0A6F0A7C0A7F01200060E7A
:102C4000AE6FA7BFAE8FAABFAE8DA68FFF0EA51722
:102C5000FF0EA617000EA717A98FFF0EA817FF0ECD
:102C6000A917000EAA17AF51B05DD8B01BD0D890ED
:102C7000A837A937AA37AF07B051AF19D8B40DD0CC
:102C8000AE07AEC0ABF0070EAB17D8B406D0EFD787
:102C9000D890A733A633A533B02BAF51B019D8B411
:102CA0001FD0F6D7B051AF5DD8B01AD0D890A537A5
:102CB000A637A737B007B051AF19D8B40DD0AE07BB
:102CC000AEC0ABF0070EAB17D8B406D0EFD7D89094
:102CD000AA33A933A833AF2BAF51B019D8A4F7D773
:102CE000AEAF0CD0FF0EA51BFF0EA61BFF0EA71B41
:102CF000010EA527000EA623000EA723AEAD0CD013
:102D0000FF0EA81BFF0EA91BFF0EAA1B010EA82772
:102D1000000EA923000EAA23000EAE6FA551A8270E
:102D2000A651A923A751AA23AAAF0ED0FF0EA81B14
:102D3000FF0EA91BFF0EAA1B010EA827000EA92338
:102D4000000EAA23010EAE6FA8C07AF0A9C07BF0D6
:102D5000AAC07CF0B0C07DF0AEC07EF025EC1CF0C7
:102D60007AC0A5F07BC0A6F07CC0A7F012002EC0F0
:102D700032F0336A346A2D34323601E33380325014
:102D8000376E31C032F0336A346A3034323601E3A0
:102D900033803250366E3750D8B40AD03650375C54
:102DA000D8B00DD03750365C326E180E326407D072
:102DB0002FC02CF030C02DF031C02EF01200365054
:102DC000D8B40AD03750365CD8B00DD03650375C06
:102DD000326E180E326407D02CC02CF02DC02DF0AE
:102DE0002EC02EF01200060E356E2EBE358E31BE70
:102DF000358C2D8EFF0E2C16FF0E2D16000E2E1666
:102E0000308EFF0E2F16FF0E3016000E3116365084
:102E1000375CD8B01BD0D8902F36303631363606D6
:102E200037503618D8B40DD0350635C032F0070EFD
:102E30003216D8B406D0EFD7D8902E322D322C329D
:102E4000372A36503718D8B41FD0F6D73750365CEB
:102E5000D8B01AD0D8902C362D362E3637063750AB
:102E60003618D8B40DD0350635C032F0070E3216FC
:102E7000D8B406D0EFD7D890313230322F32362A3C
:102E800036503718D8A4F7D735AE0CD0FF0E2C1A11
:102E9000FF0E2D1AFF0E2E1A010E2C26000E2D22CB
:102EA000000E2E2235AC0CD0FF0E2F1AFF0E301A5A
:102EB000FF0E311A010E2F26000E3022000E312295
:102EC000000E356E2C502F262D5030222E503122E0
:102ED00031AE0ED0FF0E2F1AFF0E301AFF0E311A30
:102EE000010E2F26000E3022000E3122010E356E0B
:102EF0002FC001F030C002F031C003F037C004F041
:102F000035C005F07CEC1CF001C02CF002C02DF0A7
:102F100003C02EF012007CC080F0816B826B7B3589
:102F2000803701E381818051886F8851D8A409D00E
:102F3000000E7A6F000E7B6F000E7C6F000E7D6FAF
:102F400012007FC080F0816B826B7E35803701E399
:102F500081818051876F8751D8B4EAD77B8FFF0E6C
:102F60007A17FF0E7B17000E7C177E8FFF0E7D17E2
:102F7000FF0E7E17000E7F17000E836F000E846F0A
:102F8000000E856F000E866F7F0E885F8751980F49
:102F9000885F180E876FD8908337843785378637D8
:102FA0007D517A5D7E517B597F517C59D8A007D0E5
:102FB0007D517A5F7E517B5B7F517C5B8381D890B2
:102FC0007A377B377C37872FE6D788AF0DD088518B
:102FD000800A970FD8A0ACD7D89086338533843336
:102FE0008333883FF9D70DD0170E886507D0A0D757
:102FF000D890833784378537863788078851D8A497
:10300000F7D783C07AF084C07BF085C07CF086C09F
:103010007DF0120003C007F0086A096A023407361F
:1030200001E3088007500F6E0F50D8A409D0000E9E
:10303000016E000E026E000E036E000E046E120092
:1030400006C007F0086A096A0534073601E30880FC
:1030500007500E6E0E50D8B4EAD7028EFF0E01163E
:10306000FF0E0216000E0316058EFF0E0416FF0E4D
:103070000516000E0616000E0A6E000E0B6E000EF0
:103080000C6E000E0D6E7F0E0F5E0E50980F0F5ED1
:10309000180E0E6ED8900A360B360C360D360450CC
:1030A000015C0550025806500358D8A007D00450C0
:1030B000015E0550025A0650035A0A80D890013624
:1030C000023603360E2EE6D70FAE0DD00F50800A13
:1030D000970FD8A0ACD7D8900D320C320B320A32F1
:1030E0000F3EF9D70DD0170E0F6407D0A0D7D89098
:1030F0000A360B360C360D360F060F50D8A4F7D70C
:103100000AC001F00BC002F00CC003F00DC004F0C7
:10311000120000017C357D35856F8551D8A409D01A
:10312000000E7A6F000E7B6F000E7C6F000E7D6FBD
:1031300012007F358035846F8451D8B4F1D77C8FED
:10314000FF0E7A17FF0E7B17FF0E7C17000E7D1700
:103150007F8FFF0E7D17FF0E7E17FF0E7F17000E6D
:103160008017000E806F000E816F000E826F000EC0
:10317000836F7F0E855F8451A00F855F200E846F63
:10318000D89080378137823783377D517A5D7E5181
:103190007B597F517C5980517D59D8A009D07D51F0
:1031A0007A5F7E517B5B7F517C5B80517D5B808150
:1031B000D8907A377B377C377D37842FE1D785AF3E
:1031C0000DD08551800A9F0FD8A0AAD7D8908333FD
:1031D000823381338033853FF9D70DD01F0E85654B
:1031E00007D09ED7D89080378137823783378507BD
:1031F0008551D8A4F7D780C07AF081C07BF082C017
:103200007CF083C07DF012008AC08EF08F6B906BD3
:1032100089358E3701E38F818E51916F9151D8A4FA
:1032200007D0000E886F000E896F000E8A6F1200A3
:103230008DC08EF08F6B906B8C358E3701E38F8154
:103240008E51966F9651D8A407D0000E886F000E4D
:10325000896F000E8A6F120096517B0F91278AC0EA
:1032600096F08D51961B800E9617898F8C8FFF0ECE
:103270008B17FF0E8C17000E8D17000E926F000E2D
:10328000936F000E946F070E956F88A106D08B5137
:1032900092278C5193238D519423D8908A3389336C
:1032A0008833D8908B378C378D37952FEED7090E12
:1032B000956F88A106D08B5192278C5193238D5105
:1032C0009423D8908A3389338833D89094339333B6
:1032D0009233952FEED792C07AF093C07BF094C0D2
:1032E0007CF091C07DF096C07EF025EC1CF07AC099
:1032F00088F07BC089F07CC08AF0120011C015F004
:10330000166A176A1034153601E316801550186EC8
:103310001850D8A407D0000E0F6E000E106E000ECD
:10332000116E120014C015F0166A176A13341536A0
:1033300001E3168015501D6E1D50D8A407D0000E55
:103340000F6E000E106E000E116E12001D507B0FDE
:10335000182611C01DF014501D1A800E1D16108E57
:10336000138EFF0E1216FF0E1316000E1416000E0B
:10337000196E000E1A6E000E1B6E070E1C6E0FA04B
:1033800006D01250192613501A2214501B22D8901E
:10339000113210320F32D8901236133614361C2EDA
:1033A000EED7090E1C6E0FA006D01250192613502E
:1033B0001A2214501B22D890113210320F32D8909A
:1033C0001B321A3219321C2EEED719C001F01AC066
:1033D00002F01BC003F018C004F01DC005F07CEC27
:1033E0001CF001C00FF002C010F003C011F0120079
:1033F000033404340C6E0C50D8A409D0000E016EB6
:10340000000E026E000E036E000E046E12000634F3
:1034100007340B6E0B50D8B4F1D7038EFF0E011694
:10342000FF0E0216FF0E0316000E0416068EFF0E88
:103430000416FF0E0516FF0E0616000E0716000EE8
:10344000076E000E086E000E096E000E0A6E7F0EEB
:103450000C5E0B50A00F0C5E200E0B6ED890073642
:10346000083609360A360450015C055002580650E9
:10347000035807500458D8A009D00450015E0550E5
:10348000025A0650035A0750045A0780D890013652
:103490000236033604360B2EE1D70CAE0DD00C509D
:1034A000800A9F0FD8A0AAD7D8900A3209320832D2
:1034B00007320C3EF9D70DD01F0E0C6407D09ED7F3
:1034C000D8900736083609360A360C060C50D8A4B0
:1034D000F7D707C001F008C002F009C003F00AC026
:1034E00004F0120084C088F0896B8A6B83358837BA
:1034F00001E3898188518F6F8F51D8A407D0000EC6
:10350000826F000E836F000E846F120087C088F0F8
:10351000896B8A6B8635883701E389818851906F82
:103520009051D8A407D0000E826F000E836F000E5A
:10353000846F1200000E8C6F000E8D6F000E8E6F68
:103540009051890F8F5F84C090F08751901B800E3F
:103550009017838FFF0E8217FF0E8317000E8417BC
:10356000868FFF0E8517FF0E8617000E8717180E21
:103570008B6FD8908C378D378E378551825D865111
:10358000835987518459D8A007D08551825F8651CD
:10359000835B8751845B8C81D890823783378437F3
:1035A0008B2FE7D78CC07AF08DC07BF08EC07CF07B
:1035B0008FC07DF090C07EF025EC1CF07AC082F0C8
:1035C0007BC083F07CC084F01200180E0001D16F24
:1035D0004F0ED26F3A0ED36F380E856F060E866F80
:1035E000350E876FD1C082F0D2C083F0D3C084F093
:1035F00072EC1AF082C0B4F083C0B5F084C0B6F0AB
:10360000FF0EB16F7F0EB26F470EB36F11EC21F05A
:10361000B1C0B7F0B2C0B8F0B3C0B9F051EC1BF014
:10362000B7C0E1F0B8C0E2F0D70EB16FA30EB26F31
:103630003C0EB36FD1C0B4F0D2C0B5F0D3C0B6F079
:1036400011EC21F0B1C0CEF0B2C0CFF0B3C0D0F0D9
:10365000380E856F060E866F350E876FCEC082F0EE
:10366000CFC083F0D0C084F072EC1AF082C0B4F006
:1036700083C0B5F084C0B6F0FF0EB16F7F0EB26F9D
:10368000470EB36F11EC21F0B1C0B7F0B2C0B8F083
:10369000B3C0B9F051EC1BF0B7C0DFF0B8C0E0F038
:1036A0001200B9C0BBF00001BC6BBD6BB835BB37B5
:1036B00001E3BC81BB51C56FC551D8A409D0000E30
:1036C000B76F000EB86F000EB96F000EBA6F120020
:1036D000170EBB6FB7C0BCF0B8C0BDF0B9C0BEF02C
:1036E000BB29BF6F04D0D890BE33BD33BC33BF2FCE
:1036F000FAD70001BC51C06FB88FFF0EB717FF0E8D
:10370000B817000EB917B751C16FB851C26FB95190
:10371000C36FC46B8E0EC55FC5AF0DD0C551800A97
:103720008F0FD8A0CCD7D890C433C333C233C133A2
:10373000C53FF9D70DD0170EC56507D0C0D7D890B3
:10374000C137C237C337C437C507C551D8A4F7D767
:10375000C051D8B408D0C41FC31FC21FC16D000E12
:10376000C223C323C423C1C0B7F0C2C0B8F0C3C0D2
:10377000B9F0C4C0BAF012003AC03CF03D6A3E6AEB
:1037800039343C3601E33D803C50466E4650D8A467
:1037900009D0000E386E000E396E000E3A6E000E23
:1037A0003B6E1200170E3C6E38C03DF039C03EF043
:1037B0003AC03FF03C28406E04D0D8903F323E32B1
:1037C0003D32402EFAD73D50416E398EFF0E3816ED
:1037D000FF0E3916000E3A163850426E3950436EBD
:1037E0003A50446E456A8E0E465E46AE0DD0465047
:1037F000800A8F0FD8A0CDD7D890453244324332BB
:103800004232463EF9D70DD0170E466407D0C1D7D5
:10381000D890423643364436453646064650D8A4FC
:10382000F7D74150D8B408D0451E441E431E426C01
:10383000000E43224422452242C038F043C039F0F2
:1038400044C03AF045C03BF012007D51D8B405D0D9
:103850007A517B117C11D8A40CD0000E7A6F000E27
:103860007B6F000E7C6F12007D2BD8907C337B33F6
:103870007A33000E7A157F6F000E7B15806FFE0E77
:103880007C15816F7F5180118111D8B40CD0ECD799
:103890007D2B010E7A27000E7B23000E7C23D8900F
:1038A0007C337B337A33000E7A157F6F000E7B15E5
:1038B000806FFF0E7C15816F7F5180118111D8B40C
:1038C00006D0E6D77D07D8907A377B377C377BBF29
:1038D00003D0020E7D61F6D77DA17B9FD8907D330A
:1038E0007D517C137E51D8A47C8F7AC07AF07BC046
:1038F0007BF07CC07CF012000450D8B405D001509D
:1039000002100310D8A40CD0000E016E000E026E3F
:10391000000E036E1200042AD890033202320132E4
:10392000000E0114066E000E0214076EFE0E031444
:10393000086E065007100810D8B40CD0ECD7042A33
:10394000010E0126000E0222000E0322D89003323F
:1039500002320132000E0114066E000E0214076ED0
:10396000FF0E0314086E065007100810D8B406D0D6
:10397000E6D70406D89001360236033602BE03D0DD
:10398000020E0460F6D704A0029ED89004320450C0
:1039900003120550D8A4038E01C001F002C002F04A
:1039A00003C003F012007B6F8D800D0EE82EFED752
:1039B00000F07BC07AF0010E00017A178C507A1962
:1039C000FE0B7A198C6E0D0EE82EFED700F07BC030
:1039D0007AF00001D8907A33010E7A177A478C502A
:1039E0007A19FD0B7A198C6E0D0EE82EFED700F0B9
:1039F0007BC07AF00001D8907A33D8907A33010EE8
:103A00007A177A477A478C507A19FB0B7A198C6EA1
:103A10000D0EE82EFED700F07BC07AF00001D890A2
:103A20007A33D8907A33D8907A33010E7A177A475E
:103A30007A477A478C507A19F70B7A198C6E0D0EEB
:103A4000E82EFED700F08D900D0EE82EFED700F088
:103A50001200026E8D800D0EE82EFED700F002C01F
:103A600001F0010E01168C500118FE0B01188C6E2E
:103A70000D0EE82EFED700F002C001F0D890013202
:103A8000010E011601468C500118FD0B01188C6EB9
:103A90000D0EE82EFED700F002C001F0D8900132E2
:103AA000D8900132010E0116014601468C500118D2
:103AB000FB0B01188C6E0D0EE82EFED700F002C035
:103AC00001F0D8900132D8900132D8900132010E25
:103AD00001160146014601468C500118F70B0118EA
:103AE0008C6E0D0EE82EFED700F08D900D0EE82E98
:103AF000FED700F01200000E856F83AF06D0826DF6
:103B0000831FD8B0832B010E856F81AF06D0806DE7
:103B1000811FD8B0812B010E851B000E876F000E10
:103B2000866F82518311D8B41CD0010E846F04D0EB
:103B3000D89082378337842B83AFFAD7D8908637D3
:103B400087378251805D83518159D8A005D0825139
:103B5000805F8351815B8681D89083338233842F49
:103B6000EDD78551D8B404D0866D871FD8B0872B88
:103B700086C080F087C081F01200000E0001826FC5
:103B8000000E836F000E846F000E856F7E517F11D3
:103B900080118111D8B42AD0010E866F06D0D8903A
:103BA0007E377F3780378137862B81AFF8D7D89023
:103BB00082378337843785377E517A5D7F517B59D1
:103BC00080517C5981517D59D8A009D07E517A5FAE
:103BD0007F517B5B80517C5B81517D5B8281D89082
:103BE000813380337F337E33862FE1D782C07AF0F2
:103BF00083C07BF084C07CF085C07DF01200000E95
:103C00000C6E0AAE06D0096C0A1ED8B00A2A010E44
:103C10000C6E08AE06D0076C081ED8B0082A010E3C
:103C20000C1A000E0E6E000E0D6E09500A10D8B45C
:103C30001CD0010E0B6E04D0D89009360A360B2A20
:103C40000AAEFAD7D8900D360E360950075C0A50E6
:103C50000858D8A005D00950075E0A50085A0D80B0
:103C6000D8900A3209320B2EEDD70C50D8B404D0BC
:103C70000D6C0E1ED8B00E2A0DC007F00EC008F055
:103C80001200000E096E000E0A6E000E0B6E000E82
:103C90000C6E0550061007100810D8B42AD0010E7B
:103CA0000D6E06D0D89005360636073608360D2A32
:103CB00008AEF8D7D89009360A360B360C360550C0
:103CC000015C065002580750035808500458D8A009
:103CD00009D00550015E0650025A0750035A085099
:103CE000045A0980D89008320732063205320D2E68
:103CF000E1D709C001F00AC002F00BC003F00CC00C
:103D000004F01200A1EC1FF0E5EC1AF0800E7AEC42
:103D100022F0D1C088F0D2C089F0D3C08AF0000E62
:103D200000018B6F7A0E8C6F440E8D6F04EC19F0CE
:103D300088C01CF189C01DF18AC01EF11F0EC66F1C
:103D4000010EC76F770EC86F1CC1C9F01DC1CAF044
:103D50001EC1CBF053EC08F0C3EC20F00B0E0001B9
:103D6000CD6F260ECC6F5D0EE82EFED7CC2FFCD784
:103D7000CD2FFAD700D0CD80C7D77CAF0FD0000EA3
:103D8000806F000E816F800E826F7A51805D7A6F36
:103D90007B5181597B6F7C5182597C6F7FAF0FD0F3
:103DA000000E806F000E816F800E826F7D51805DEE
:103DB0007D6F7E5181597E6F7F5182597F6F000EDA
:103DC0007A1B000E7B1B800E7C1B000E7D1B000EE1
:103DD0007E1B800E7F1B7D517A5D7E517B597F510A
:103DE0007C59D8B002D0D8901200D880120003AE0F
:103DF0000FD0000E076E000E086E800E096E015087
:103E0000075C016E02500858026E03500958036E99
:103E100006AE0FD0000E076E000E086E800E096E03
:103E20000450075C046E05500858056E065009588A
:103E3000066E000E011A000E021A800E031A000E02
:103E4000041A000E051A800E061A0450015C055073
:103E5000025806500358D8B002D0D8901200D8802B
:103E60001200000E7F6F7BAF06D07A6D7B1FD8B03B
:103E70007B2B010E7F6F7DAF04D07C6D7D1FD8B092
:103E80007D2B7C517D11D8B418D0010E7E6F04D0EB
:103E9000D8907C377D377E2B7DAFFAD77C517A5D09
:103EA0007D517B59D8A004D07C517A5F7D517B5BDA
:103EB000D8907D337C337E2FF1D77F51D8B404D096
:103EC0007A6D7B1FD8B07B2B7AC07AF07BC07BF0F9
:103ED0001200000E066E02AE06D0016C021ED8B0B3
:103EE000022A010E066E04AE04D0036C041ED8B084
:103EF000042A03500410D8B418D0010E056E04D063
:103F0000D89003360436052A04AEFAD70350015C74
:103F100004500258D8A004D00350015E0450025A45
:103F2000D89004320332052EF1D70650D8B404D00D
:103F3000016C021ED8B0022A01C001F002C002F0DA
:103F40001200720ED36E000E0F013B6F000E3C6F1D
:103F5000000E3A6F000E956E000E966E000E8C6E7F
:103F6000000E8D6E020E7AEC22F0060E7AEC22F034
:103F70000F0E7AEC22F0280E7AEC22F0010E7AEC89
:103F800022F0949C948E190EAF6E900EAB6E200EA4
:103F9000AC6EF28EF28C9D8A9E9A9D809E90120E3F
:103FA000CD6E000ECF6E000ECE6E8C8C8C8E1200FD
:103FB00000018B518C118D118E11D8B424D0010EBB
:103FC0008F6F06D0D8908B378C378D378E378F2BED
:103FD0008EAFF8D78B51875D8C5188598D51895997
:103FE0008E518A59D8A008D08B51875F8C51885B3D
:103FF0008D51895B8E518A5BD8908E338D338C3393
:104000008B338F2FE7D787C087F088C088F089C0AF
:1040100089F08AC08AF01200125013101410151083
:10402000D8B424D0010E166E06D0D89012361336AE
:1040300014361536162A15AEF8D712500E5C1350EA
:104040000F581450105815501158D8A008D01250BD
:104050000E5E13500F5A1450105A1550115AD89022
:104060001532143213321232162EE7D70EC00EF06C
:104070000FC00FF010C010F011C011F012008E0E22
:104080008A6F06D0D89085338433833382338A2B6A
:10409000000E8215866F000E8315876F000E841543
:1040A000886FFF0E8515896F8651871188118911D8
:1040B000D8A4E8D782C07AF083C07BF084C07CF0BB
:1040C0008AC07DF0000E7E6F25EC1CF07AC082F075
:1040D0007BC083F07CC084F012008E0E116E06D07F
:1040E000D8900C320B320A320932112A000E091410
:1040F0000D6E000E0A140E6E000E0B140F6EFF0EE6
:104100000C14106E0D500E100F101010D8A4E8D71C
:1041100009C001F00AC002F00BC003F011C004F0A6
:10412000000E056E7CEC1CF001C009F002C00AF024
:1041300003C00BF01200560EF66E450EF76E000E21
:10414000F86E0900F5CFE3F00900F5CFE4F0580E62
:10415000F66E450EF76E000EF86E0900F5CF5BF0B7
:1041600001EE1FF0140EEE6AE806FDE100EECEF05F
:10417000150EEE6AE806FDE15C905C92000EF86EAA
:10418000000182EF1EF0000E0001DA6F000ED96F01
:104190000CD01F0ED925D96E010EDA21DA6EDF5050
:1041A00088EC22F00001D94BDA2BFF0E7E6FFF0E58
:1041B0007F6F1F0E7A6F010E7B6FBEEC21F07E5178
:1041C0007A277F517B23D9517A5DDA517B59D8A068
:1041D0001200DFD7000E0001DA6F000ED96F0CD08D
:1041E0001F0ED925D96E010EDA21DA6EDF50A0EC50
:1041F00022F00001D94BDA2BFF0E056EFF0E066E82
:104200001F0E016E010E026EE8EC21F00550012632
:1042100006500222D951015CDA510258D8A012008E
:10422000DFD7B451B511B611D8B406D0000EB41B07
:10423000000EB51B800EB61BB1C0A5F0B2C0A6F033
:10424000B3C0A7F0B4C0A8F0B5C0A9F0B6C0AAF03A
:10425000E3EC15F0A5C0B1F0A6C0B2F0A7C0B3F072
:1042600012003B503C103D10D8B406D0000E3B1A53
:10427000000E3C1A800E3D1A38C02CF039C02DF0CB
:104280003AC02EF03BC02FF03CC030F03DC031F0C2
:10429000B7EC16F02CC038F02DC039F02EC03AF033
:1042A00012007F6F000E0001816F7E51D8B415D0CF
:1042B000010E806F03D0D8907E37802B7EAFFBD766
:1042C000D89081377E517F5DD8A003D07E517F5F2B
:1042D0008181D8907E33802FF3D781511200066EF2
:1042E000000E086E0550D8B415D0010E076E03D02D
:1042F000D8900536072A05AEFBD7D890083605506A
:10430000065CD8A003D00550065E0880D890053220
:10431000072EF3D708501200000E0C6E0AAE06D01E
:10432000096C0A1ED8B00A2A010E0C6E09C001F0F1
:104330000AC002F0036A8E0E046E0CC005F07CEC1D
:104340001CF001C009F002C00AF003C00BF012001B
:104350007B6F080E00017C6F000E7D6FD8907B355F
:104360007D357D6FD8907B377A517D5DD8A002D0A6
:104370007A517D5F7C2FF2D77D5112007AC07CF09C
:104380007BC07DF002D07C4B7D2B7CC0D9FF7DC0F3
:10439000DAFFDF50D8A4F7D77A517C5D7A6F7B5172
:1043A0007D597B6F1200026E080E036E000E046EC4
:1043B000D89002340434046ED89002360150045C64
:1043C000D8A002D00150045E032EF2D70450120090
:1043D00001C003F002C004F002D0034A042A03C063
:1043E000D9FF04C0DAFFDF50D8A4F7D70150035C2F
:1043F000016E02500458026E12007A517C03F3CF12
:104400007EF0F4CF7FF07A517D03F3507F277B510C
:104410007C03F3507F277EC07AF07FC07BF01200D0
:1044200000017A517B117C11D8B406D0000E7A1BA2
:10443000000E7B1B800E7C1B7AC07AF07BC07BF069
:104440007CC07CF0120001500302F3CF05F0F4CFE2
:1044500006F001500402F350062602500302F35006
:10446000062605C001F006C002F01200015002103D
:104470000310D8B406D0000E011A000E021A800EE6
:10448000031A01C001F002C002F003C003F01200E1
:1044900009C001F00AC002F0036A8E0E046E000E1D
:1044A000056E7CEC1CF001C009F002C00AF003C0EC
:1044B0000BF0120000017C6F000E00017B6F3A0EC2
:1044C0007C6105D02F0E7C6502D0010E7B6F7BC016
:1044D0007AF07A311200036E000E026E3A0E03601B
:1044E00005D02F0E036402D0010E026E02C001F04F
:1044F0000130120000017C6F8D9200017C390F0B9E
:10450000D3EC1CF000017C510F0BD3EC1CF012001B
:104510007C6F8D8200017C390F0BD3EC1CF0000105
:104520007C510F0BD3EC1CF01200036E8D920338FC
:104530000F0B29EC1DF003500F0B29EC1DF012009E
:10454000036E8D8203380F0B29EC1DF003500F0B07
:0945500029EC1DF01200010041EC
:020000040020DA
:08000000FFFFFFFFFFFFFFFF00
:020000040030CA
:0E000000FF281F3CFFBF81FF0FC00FE00F4025
:00000001FF
