:0400000061EF7BF041
:10F68C0058EC7BF0C582120058EC7BF0C580120060
:10F69C0058EC7BF0C5841200026E58EC7BF002C073
:10F6AC00C9FF1200C5CF01F01F0E0116D8A4FAD75E
:10F6BC00C7A41200F7D700EE3FF00D0EEE6AE80675
:10F6CC00FDE1000130EF7FF009500B02F3CF0DF09C
:10F6DC00F4CF0EF009500C02F3500E260A500B0218
:10F6EC00F3500E260DC009F00EC00AF01200076E82
:10F6FC004AEC7BF0075052EC7BF0035052EC7BF061
:10F70C00045052EC7BF04EEC7BF0030E066E080EB0
:10F71C00056E770EE82EFED7052EFCD7062EFAD7EF
:10F72C0000F01200036E58EC7BF0C58658EC7BF0B1
:10F73C00C9CF04F058EC7BF00304D8A403D0026AC0
:10F74C00022A01D0026A023A0246C5500218DF0BA7
:10F75C000218C56EC58858EC7BF00450120011508D
:10F76C000F5C096E125010580A6E1150135C036E28
:10F77C0012501458046E1550175C016E1650185820
:10F78C00026E6EEC7CF001C00BF002C00CF06AEC67
:10F79C007BF0155009240F6E16500A20106E1200C3
:10F7AC008E0E116E06D0D8900C320B320A32093202
:10F7BC00112A000E09140D6E000E0A140E6E000EA6
:10F7CC000B140F6EFF0E0C14106E0D500E100F104C
:10F7DC001010D8A4E8D709C001F00AC002F00BC081
:10F7EC0003F011C004F0000E056E3BEC7DF001C07F
:10F7FC0009F002C00AF003C00BF01200096E4AECCB
:10F80C007BF0095052EC7BF0035052EC7BF0000E75
:10F81C00466E000E456E09D00450D96EDA6ADF5080
:10F82C0052EC7BF0042A454A462A0550455C46506A
:10F83C00800A076E0650800A0758D8A0EDD74EEC08
:10F84C007BF0030E086E080E076E770EE82EFED7BF
:10F85C00072EFCD7082EFAD700F0120003AE0FD0FB
:10F86C00000E076E000E086E800E096E0150075CCC
:10F87C00016E02500858026E03500958036E06AE12
:10F88C000FD0000E076E000E086E800E096E04502D
:10F89C00075C046E05500858056E06500958066E34
:10F8AC00000E011A000E021A800E031A000E041A22
:10F8BC00000E051A800E061A0450015C0550025801
:10F8CC0006500358D8B002D0D8901200D88012003D
:10F8DC00000E066E04AE06D0036C041ED8B0042ACB
:10F8EC00010E066E02AE06D0016C021ED8B0022AC2
:10F8FC00010E061A000E086E000E076E035004105F
:10F90C00D8B41CD0010E056E04D0D8900336043642
:10F91C00052A04AEFAD7D890073608360350015C96
:10F92C0004500258D8A005D00350015E0450025A6E
:10F93C000780D89004320332052EEDD70650D8B488
:10F94C0004D0076C081ED8B0082A07C001F008C004
:10F95C0002F012000B6E4AEC7BF00B5052EC7BF079
:10F96C00055052EC7BF046EC7BF00B50010952EC4D
:10F97C007BF0000E466E000E456E18D0010E45242D
:10F98C00096E000E46200A6E0750091808E108504F
:10F99C000A18D8A404D0010E98EC7BF003D0000E0A
:10F9AC0098EC7BF0066E062A454A462A0750455CC1
:10F9BC004650800A096E0850800A0958D8A0DED734
:10F9CC004EEC7BF0030E0A6E080E096E770EE82ED5
:10F9DC00FED7092EFCD70A2EFAD700F01200720EB1
:10F9EC00D36E000E0F013A6F000E3B6F9486948815
:10F9FC00000E966E000E8D6E000E956E000E8C6EC7
:10FA0C00800EC76E280EC66E000EC56E000ECB6E35
:10FA1C00270EC86E000E036E800E046E800E7DECF9
:10FA2C007BF0340E396EF20EE82EFED7392EFCD751
:10FA3C00000E306E7A0E316E440E326E6EEC7EF02D
:10FA4C00000E306E480E316E420E326E6EEC7EF051
:10FA5C00070E3A6E170E396E6A0EE82EFED7392E47
:10FA6C00FCD73A2EFAD700D012000450D8B405D0E7
:10FA7C00015002100310D8A40CD0000E016E000E21
:10FA8C00026E000E036E1200042AD890033202326A
:10FA9C000132000E0114066E000E0214076EFE0EEB
:10FAAC000314086E065007100810D8B40CD0ECD70D
:10FABC00042A010E0126000E0222000E0322D89009
:10FACC00033202320132000E0114066E000E0214D3
:10FADC00076EFF0E0314086E065007100810D8B4FA
:10FAEC0006D0E6D70406D89001360236033602BE9D
:10FAFC0003D0020E0460F6D704A0029ED890043204
:10FB0C00045003120550D8A4038E01C001F002C0AA
:10FB1C0002F003C003F0120023C025F0266A276A06
:10FB2C002234253601E3268025502F6E2F50D8A481
:10FB3C0009D0000E216E000E226E000E236E000EF8
:10FB4C00246E1200170E256E21C026F022C027F05D
:10FB5C0023C028F02528296E04D0D89028322732CB
:10FB6C002632292EFAD726502A6E228EFF0E211607
:10FB7C00FF0E2216000E231621502B6E22502C6ED7
:10FB8C0023502D6E2E6A8E0E2F5E2FAE0DD02F5061
:10FB9C00800A8F0FD8A0CDD7D8902E322D322C3290
:10FBAC002B322F3EF9D70DD0170E2F6407D0C1D7AB
:10FBBC00D8902B362C362D362E362F062F50D8A417
:10FBCC00F7D72A50D8B408D02E1E2D1E2C1E2B6C05
:10FBDC00000E2C222D222E222BC021F02CC022F024
:10FBEC002DC023F02EC024F0120014C018F0196A96
:10FBFC001A6A1334183601E3198018501F6E1F50FF
:10FC0C00D8A407D0000E126E000E136E000E146EE8
:10FC1C00120017C018F0196A1A6A1634183601E364
:10FC2C0019801850206E2050D8A407D0000E126EE8
:10FC3C00000E136E000E146E1200000E1C6E000EE1
:10FC4C001D6E000E1E6E2050890F1F5E14C020F01A
:10FC5C001750201A800E2016138EFF0E1216FF0E50
:10FC6C001316000E1416168EFF0E1516FF0E161612
:10FC7C00000E1716180E1B6ED8901C361D361E362D
:10FC8C001550125C1650135817501458D8A007D0A2
:10FC9C001550125E1650135A1750145A1C80D890D7
:10FCAC001236133614361B2EE7D71CC001F01DC0BC
:10FCBC0002F01EC003F01FC004F020C005F03BECA6
:10FCCC007DF001C012F002C013F003C014F012005A
:10FCDC0030C001F031C002F032C003F0000E046EEF
:10FCEC00800E056E3F0E066E34EC7CF0D8B006D05C
:10FCFC00000E306E800E316E3F0E326EC00E016EF5
:10FD0C005A0E026E450E036E30C004F031C005F081
:10FD1C0032C006F034EC7CF0D8B006D0C00E306E99
:10FD2C005A0E316E450E326E780E356EDF0E366E13
:10FD3C008D0E376E010E386E30C015F031C016F0D6
:10FD4C0032C017F035C009F036C00AF037C00BF0DE
:10FD5C0038C00CF0D6EC7BF009C012F00AC013F0DE
:10FD6C000BC014F0FBEC7DF012C021F013C022F09C
:10FD7C0014C023F092EC7DF021C035F022C036F097
:10FD8C0023C037F024C038F0000E3526080E36227A
:10FD9C00000E3722000E38220C0E336ED8903832FB
:10FDAC00373236323532332EF9D73506000E365A05
:10FDBC00375A385A3850371036100CE1030E355C70
:10FDCC00D8B008D0030E356E000E366E000E376EAE
:10FDDC00000E386E3850371003E13604D8A008D026
:10FDEC00FF0E356E000E366E000E376E000E386E3E
:10FDFC0035C034F0000E056E000E066E000E086E57
:10FE0C00010E076E800EB0EC7CF0000E036E100E2F
:10FE1C00046E800E7DEC7BF0FE0E036E34C004F09D
:10FE2C00800E7DEC7BF0000E036E000E046E800ED7
:10FE3C007DEC7BF01A0E336EF80EE82EFED7332EC7
:10FE4C00FCD700D0000E036EA00E046E800E7DEC6D
:10FE5C007BF01200F5EC7CF0000E486E000E496E43
:10FE6C00000E3E6E000E3D6E3F504010D8A405D0E3
:10FE7C008C80000E406E010E04D08C90000E406EF3
:10FE8C00000E3F6E3DC041F03EC042F0000E106EC1
:10FE9C00B40E0F6E000E126E000E116E000E146E6C
:10FEAC00B40E136E000E166E6E0E156E010E186EDD
:10FEBC00FE0E176EB5EC7BF00FC043F010C044F093
:10FECC0043C04AF044504B6E4150040DF350060FA2
:10FEDC00036E480E046E000E066E040E056E800E48
:10FEEC0004EC7CF0150E3C6E4B0E3B6EBE0EE82EF9
:10FEFC00FED73B2EFCD73C2EFAD700D0000E106E4E
:10FF0C00000E0F6E000E126E000E116E000E146EAF
:10FF1C00B40E136E000E166E6E0E156E010E186E6C
:10FF2C00FE0E176EB5EC7BF00FC043F010C044F022
:10FF3C0043C04AF044504B6E4150040DF350060F31
:10FF4C00036E480E046E000E066E040E056E800ED7
:10FF5C0004EC7CF0150E3C6E4B0E3B6EBE0EE82E88
:10FF6C00FED73B2EFCD73C2EFAD700D0000E106EDD
:10FF7C005A0E0F6E000E126E000E116E000E146EE5
:10FF8C00B40E136E000E166E6E0E156E010E186EFC
:10FF9C00FE0E176EB5EC7BF00FC043F010C044F0B2
:10FFAC0043C04AF044504B6E4150040DF350060FC1
:10FFBC00036E480E046E000E066E040E056E800E67
:10FFCC0004EC7CF0150E3C6E4B0E3B6EBE0EE82E18
:10FFDC00FED73B2EFCD73C2EFAD700D03D4A3E2A0A
:10FFEC003EBE42D73E5005E1040E3D5CD8B034D73E
:04FFFC003BD732D7E6
:020000040020DA
:08000000FFFFFFFFFFFFFFFF00
:020000040030CA
:0E000000FF281F3CFFBF81FF0FC00FE00F4025
:00000001FF
