:04000000A6EF01F076
:100008005F82D9CF76F0DACF77F0F3CF78F0F4CFFC
:1000180079F0F6CF7AF0F7CF7BF0F8CF7CF0F5CF18
:100028007DF09EA015D00001BF05C011D8A410D046
:100038008CAC06D0CBC0CEFFCCC0CFFF8C9C07D0F9
:100048008CBC05D0C9C0CEFFCAC0CFFF8C8C9E9097
:10005800A1A215D00001BF05C011D8A410D08CAE44
:1000680006D0C7C0B2FFC8C0B3FF8C9E07D08CBEF5
:1000780005D0C5C0B2FFC6C0B3FF8C8EA1929EAAA0
:100088004FD1AECF58F0410E5818D8B404D0420E14
:100098005818D8A407D058C05CF0000E0001C06FF3
:1000A800000E3DD1300E5818D8B424D0310E58184F
:1000B800D8B420D0320E5818D8B41CD0330E5818E3
:1000C800D8B418D0340E5818D8B414D0350E5818DF
:1000D800D8B410D0360E5818D8B40CD0370E5818DB
:1000E800D8B408D0380E5818D8B404D0390E5818D7
:1000F800D8A4ACD05D045E10D8A412D0D00E582479
:10010800096E0A6AFF0E0A22CFEC19F009C059F0ED
:100118000AC05AF00BC05BF0000E5E6E020E9DD056
:10012800020E5D185E10D8A42BD0000E126E200EA1
:10013800136E410E146E59C00FF05AC010F05BC018
:1001480011F07DEC13F00FC02CF010C02DF011C091
:100158002EF0D00E5824096E0A6AFF0E0A22CFEC40
:1001680019F009C02FF00AC030F00BC031F040EC94
:100178000FF02CC059F02DC05AF02EC05BF0D0D033
:10018800030E5D185E10D8A42ED0CD0E126ECC0EC4
:10019800136E3D0E146ED00E5824096E0A6AFF0EB7
:1001A8000A22CFEC19F009C00FF00AC010F00BC0FA
:1001B80011F07DEC13F00FC02CF010C02DF011C021
:1001C8002EF059C02FF05AC030F05BC031F040EC2F
:1001D8000FF02CC059F02DC05AF02EC05BF0000E65
:1001E8005E6E040E3AD0040E5D185E10D8A498D046
:1001F800D70E126E230E136E3C0E146ED00E5824BA
:10020800096E0A6AFF0E0A22CFEC19F009C00FF036
:100218000AC010F00BC011F07DEC13F00FC02CF0E9
:1002280010C02DF011C02EF059C02FF05AC030F078
:100238005BC031F040EC0FF02CC059F02DC05AF0E3
:100248002EC05BF0000E5E6E050E07D02E0E5818FD
:10025800D8A405D0000E5E6E030E5D6E61D04F0E01
:100268005818D8A420D0410E5C18D8A407D059C07B
:10027800AEF05AC0AFF05BC0B0F00AD0420E5C18C6
:10028800D8A406D059C0ABF05AC0ACF05BC0ADF0F2
:10029800000E5E6E010E5D6E000E596E000E5A6EF7
:1002A800000E5B6E3DD04B0E5818D8A439D0AEC0A6
:1002B8004DF0AFC04EF0B0C04FF0E9EC11F0ABC05C
:1002C8004DF0ACC04EF0ADC04FF04EEC11F0010E49
:1002D80053EC1AF0800E53EC1AF0CD0E4D6E770EDB
:1002E8004E6EAEC04FF0AFC050F0B0C051F049EC08
:1002F80008F033EC19F0C00E53EC1AF0CD0E4D6E29
:10030800840E4E6EABC04FF0ACC050F0ADC051F093
:1003180049EC08F033EC19F0000EC06F010EBF6F06
:100328007DC0F5FF7CC0F8FF7BC0F7FF7AC0F6FF01
:1003380079C0F4FF78C0F3FF77C0DAFF76C0D9FF41
:080348005F92110095EF19F01E
:101000000000803F00204100C842007A44401C4656
:1010100050C34724744997184BBCBE4C6B6E4E03AB
:10102000155079AD60F3497100803FCDCC3DD72399
:101030003C12833AB7D138C62737388635C0D63305
:10104000CC2B32708930E7DB2EE53C1E42A20D012D
:101050000000000A00000064000000E80300001027
:10106000270000A086010040420F008096980000F3
:10107000E1F50500CA9A3B536572766F20313A2537
:101080002E326600536572766F20323A252E326614
:1010900000004F0E0001636F52D3250E7519D8B4AE
:1010A00007D04D50D96EDA6A75C0DFFF4D2A47D39D
:1010B000000E656F000E646F4EC0F6FF100EF76EE7
:1010C0000800F5502E0AD8A436D0658D4E2A000EA1
:1010D000716F000E706F24D070C001F071C002F00B
:1010E000000E046E0A0E036E00EC1AF001C070F0E0
:1010F00002C071F0D00E526EFF0E536E4EC0F6FF5E
:10110000100EF76E0800F550546E556A5250542672
:1011100053505522545000017027555071234E2AC8
:101120004EC0F6FF100EF76E0800F55036EC1AF0C0
:10113000D8A009D0D1D7000E716F000E706F6589ED
:1011400002D0658513D04E2A4E04526E52C0F6FF6F
:10115000100EF76E0800F5CF75F000017551000A0A
:10116000D8B4FAD2660AD8B4ECD7E9D2070E65151E
:10117000D8B4B5D265A904D0000E716F060E706F99
:101180006351D96EDA6ADECF72F0DECF73F0DDCF55
:1011900074F0030E632774AF10D072C001F073C0F7
:1011A00002F074C003F013EC1AF001C072F002C038
:1011B00073F003C074F0030E6413000E6B6F000E27
:1011C0006A6F725173117411D8B486D0820E526E48
:1011D000FF0E536E72C054F073C055F074C056F0D9
:1011E00075C057F0100E05D0D89057325632553290
:1011F0005432E82EF9D7545052246A6F000E53200F
:101200006B6F6A07D8A06B076AC001F06BC002F071
:10121000000E046E030E036E00EC1AF001C06AF0BB
:1012200002C06BF06AC007F06BC008F0000E0A6ED7
:101230000A0E096EDDEC17F007C06AF008C06BF00B
:1012400000016BAF03D06A07D8A06B076A51000892
:10125000B2EC0BF01EC06CF01FC06DF020C06EF041
:101260006CC00FF06DC010F06EC011F072C012F0C3
:1012700073C013F074C014F07DEC13F00FC06CF069
:1012800010C06DF011C06EF06CC001F06DC002F0C6
:101290006EC003F0000E046E800E056E3F0E066EEB
:1012A00060EC18F0D8B005D000016A07D8A06B0731
:1012B00013D06CC001F06DC002F06EC003F0000EE0
:1012C000046E200E056E410E066E60EC18F0D8A07C
:1012D00003D000016A4B6B2B000171BF06D0715126
:1012E0001BE10D0E705DD8B017D072C02CF073C02A
:1012F0002DF074C02EF070517EEC0DF01EC02FF05A
:101300001FC030F020C031F040EC0FF02CC072F064
:101310002DC073F02EC074F000016BBF06D06B516E
:1013200020E10A0E6A5DD8B01CD07251731174119D
:10133000D8B456D072C03EF073C03FF074C040F0D5
:10134000CBEC15F03E503F1040104110D8A448D0CF
:1013500000016BBF45D06B5104E1020E6A5DD8A05D
:101360003FD06CC001F06DC002F06EC003F0700E93
:10137000046E890E056E400E066E60EC18F0D8B053
:1013800003D00001F70E02D00001F80E6A27FF0E0D
:101390006B236A51B2EC0BF01EC06CF01FC06DF0F5
:1013A00020C06EF072C001F073C002F074C003F090
:1013B0006CC004F06DC005F06EC006F084EC12F055
:1013C00001C066F002C067F003C068F004C069F0B5
:1013D000000E0001726F000E736F000E746F33D039
:1013E00072C03EF073C03FF074C040F0CBEC15F01B
:1013F0003EC066F03FC067F040C068F041C069F091
:1014000072C038F073C039F074C03AF066C009F0A9
:1014100067C00AF068C00BF069C00CF005EC19F069
:1014200009C03BF00AC03CF00BC03DF075EC19F070
:1014300038C072F039C073F03AC074F0000E000189
:101440006B6F000E6A6F010E756F7551040DF350CE
:101450004F0F526E52C0F6FF100EF76E0900F55096
:10146000665D0900F55067590900F5506859090093
:10147000F5506959D8A005D0752B0A0E7519D8A456
:10148000E4D764C052F0030E5216D8B44ED04D507B
:10149000D96EDA6A2D0EDF6E4D2A47D066C001F094
:1014A00067C002F068C003F069C004F07551040D14
:1014B000F3504F0F526E52C0F6FF100EF76E090038
:1014C000F5CF05F00900F5CF06F00900F5CF07F0DC
:1014D0000A00F5CF08F01FEC18F001C06CF002C054
:1014E0006DF003C06EF004C06FF06CC001F06DC011
:1014F00002F06EC003F06FC004F00A0E056E000E1D
:10150000066E000E076E000E086ED2EC18F001C0D9
:101510006CF002C06DF003C06EF004C06FF04D506F
:10152000D96EDA6A6C51300FB6D775077529D8B401
:101530000AD0B4D74D50D96EDA6A300EDF6E4D2A1C
:101540006A07D8A06B076BBF05D06B51F3E16A0542
:10155000D8B0F0D771BF09D0715104E1090E705DA8
:10156000D8A003D0080E756F02D070C075F0755109
:10157000705F000E715B7551D8B406D04D50D96EB6
:10158000DA6A2E0EDF6E4D2A7551B2EC0BF01EC0DA
:1015900060F01FC061F020C062F072C012F073C032
:1015A00013F074C014F060C00FF061C010F062C09E
:1015B00011F07DEC13F00FC03EF010C03FF011C0F1
:1015C00040F0CBEC15F03EC066F03FC067F040C085
:1015D00068F041C069F06FD066C001F067C002F0EA
:1015E00068C003F069C004F07551040DF3504F0F4B
:1015F000526E52C0F6FF100EF76E0900F5CF05F0DF
:101600000900F5CF06F00900F5CF07F00A00F5CF85
:1016100008F01FEC18F001C06CF002C06DF003C0C0
:101620006EF004C06FF06CC001F06DC002F06EC0CF
:1016300003F06FC004F00A0E056E000E066E000E79
:10164000076E000E086ED2EC18F001C06CF002C0FC
:101650006DF003C06EF004C06FF04D50D96EDA6AC1
:101660006C51300FDF6E4D2A66C001F067C002F08A
:1016700068C003F069C004F07551040DF3504F0FBA
:10168000526E52C0F6FF100EF76E0900F5CF05F04E
:101690000900F5CF06F00900F5CF07F00A00F5CFF5
:1016A00008F0D2EC18F001C066F002C067F003C089
:1016B00068F004C069F0000175077529D8B40AD034
:1016C0008BD74D50D96EDA6A300EDF6E4D2A700717
:1016D000D8A0710770517111D8B431D0F2D77051C0
:1016E0007111D8A408D06651671168116911D8A486
:1016F00002D0704B712B7551526E536A7051525C0F
:101700005350800A546E7151800A5458D8A00BD09F
:101710007551526E536A5250705D7151800A546E09
:101720005350800A545864C052F0030E5216D8B475
:1017300006D04D50D96EDA6A2D0EDF6EB7D44E2A20
:101740004E04526E52C0F6FF100EF76E0800F5CF31
:1017500075F07551D8A4A1D44D50D96EDA6A000E37
:10176000DF6E1200286E28AEE5D0286C2850800A63
:10177000120FD8A080D0000E0A6E0A0E096E000E5D
:10178000046E640E036E2850016E026A01BE0206EA
:101790009AEC18F001C007F002C008F0DDEC17F079
:1017A0000750030DF3CF21F01B0E21262150280FE7
:1017B000226E22C0F6FF100EF76E0900F5CF12F070
:1017C0000900F5CF13F00A00F5CF14F0000E0A6EF1
:1017D000640E096E2850076E086A07BE0806DDEC25
:1017E00017F00750030DF3CF23F0360E23262350B6
:1017F000280F246E24C0F6FF100EF76E0900F5CFF7
:101800000FF00900F5CF10F00A00F5CF11F07DECD4
:1018100013F00FC025F010C026F011C027F025C02E
:101820000FF026C010F027C011F0000E046E0A0E53
:10183000036E2850016E026A01BE02069AEC18F08F
:101840000150030DF350280F216E21C0F6FF100E3A
:10185000F76E0900F5CF12F00900F5CF13F00A007A
:10186000F5CF14F07DEC13F00FC01EF010C01FF088
:1018700011C020F012002850800A750FD8A047D060
:10188000000E0A6E0A0E096E2850076E086A07BE1F
:101890000806DDEC17F00750030DF3CF21F01B0E07
:1018A00021262150280F226E22C0F6FF100EF76E5F
:1018B0000900F5CF0FF00900F5CF10F00A00F5CFC1
:1018C00011F0000E046E0A0E036E2850016E026ABB
:1018D00001BE02069AEC18F00150030DF350280FD8
:1018E000236E23C0F6FF100EF76E0900F5CF12F03D
:1018F0000900F5CF13F00A00F5CF14F07DEC13F0DA
:101900000FC01EF010C01FF011C020F012002850B0
:10191000030DF350280F216E21C0F6FF100EF76E55
:101920000900F5CF1EF00900F5CF1FF00A00F5CF32
:1019300020F012002850800A120FD8A080D0000E8C
:101940000A6E0A0E096E000E046E640E036E2850B5
:10195000016E026A01BE02069AEC18F001C007F09F
:1019600002C008F0DDEC17F00750030DF3CF21F0B3
:101970001B0E21262150010F226E22C0F6FF100EF1
:10198000F76E0900F5CF12F00900F5CF13F00A0049
:10199000F5CF14F0000E0A6E640E096E2850076E23
:1019A000086A07BE0806DDEC17F00750030DF3CFF9
:1019B00023F0360E23262350010F246E24C0F6FF99
:1019C000100EF76E0900F5CF0FF00900F5CF10F0FB
:1019D0000A00F5CF11F07DEC13F00FC025F010C018
:1019E00026F011C027F025C00FF026C010F027C048
:1019F00011F0000E046E0A0E036E2850016E026A8A
:101A000001BE02069AEC18F00150030DF350010FCD
:101A1000216E21C0F6FF100EF76E0900F5CF12F00F
:101A20000900F5CF13F00A00F5CF14F07DEC13F0A8
:101A30000FC01EF010C01FF011C020F0120028507F
:101A4000800A750FD8A047D0000E0A6E0A0E096EE4
:101A50002850076E086A07BE0806DDEC17F007502D
:101A6000030DF3CF21F01B0E21262150010F226E12
:101A700022C0F6FF100EF76E0900F5CF0FF0090037
:101A8000F5CF10F00A00F5CF11F0000E046E0A0E2B
:101A9000036E2850016E026A01BE02069AEC18F02D
:101AA0000150030DF350010F236E23C0F6FF100EFB
:101AB000F76E0900F5CF12F00900F5CF13F00A0018
:101AC000F5CF14F07DEC13F00FC01EF010C01FF026
:101AD00011C020F012002850030DF350010F216EA9
:101AE00021C0F6FF100EF76E0900F5CF1EF00900B9
:101AF000F5CF1FF00A00F5CF20F012002B6E6D0E0F
:101B00002B6479D00A0E056E640E016E2B50EBEC3F
:101B100019F0B2EC19F0030DF3CF21F01B0E2126C2
:101B20002150280F226E22C0F6FF100EF76E09001A
:101B3000F5CF12F00900F5CF13F00A00F5CF14F03D
:101B4000640E056E2B50B2EC19F0030DF3CF23F0A9
:101B5000360E23262350280F246E24C0F6FF100EC5
:101B6000F76E0900F5CF0FF00900F5CF10F00A006D
:101B7000F5CF11F07DEC13F00FC028F010C029F064
:101B800011C02AF00A0E016E2B50EBEC19F0030D78
:101B9000F350280F216E21C0F6FF100EF76E0900DA
:101BA000F5CF12F00900F5CF13F00A00F5CF14F0CD
:101BB00028C00FF029C010F02AC011F07DEC13F0FE
:101BC0000FC025F010C026F011C027F025C00FF07F
:101BD00026C010F027C011F0000E126E000E136E1A
:101BE0003F0E146E7DEC13F00FC01EF010C01FF0FE
:101BF00011C020F012000A0E2B644DD00A0E016EA7
:101C00002B50EBEC19F0030DF350280F216E21C07F
:101C1000F6FF100EF76E0900F5CF12F00900F5CFB0
:101C200013F00A00F5CF14F00A0E056E2B50B2EC3B
:101C300019F0030DF3CF22F01B0E22262250280F9D
:101C4000236E23C0F6FF100EF76E0900F5CF0FF0DC
:101C50000900F5CF10F00A00F5CF11F07DEC13F07C
:101C60000FC028F010C029F011C02AF028C00FF0D2
:101C700029C010F02AC011F0000E126E000E136E73
:101C80003F0E146E7DEC13F00FC01EF010C01FF05D
:101C900011C020F012002B50030DF350280F216EBD
:101CA00021C0F6FF100EF76E0900F5CF0FF0090006
:101CB000F5CF10F00A00F5CF11F0000E126E000EF5
:101CC000136E3F0E146E7DEC13F00FC01EF010C0AB
:101CD0001FF011C020F0120097C09BF09C6B9D6B11
:101CE00096359B3701E39C819B51A06F9AC09BF076
:101CF0009C6B9D6B99359B3701E39C819B519F6F3A
:101D0000A051D8B40AD09F51A05DD8B00DD0A05139
:101D10009F5D9B6F180E9B6507D098C095F099C08A
:101D200096F09AC097F012009F51D8B40AD0A051F3
:101D30009F5DD8B00DD09F51A05D9B6F180E9B6525
:101D400007D095C095F096C096F097C097F0120016
:101D5000060E9E6F97BF9E8F9ABF9E8D968FFF0E29
:101D60009517FF0E9617000E9717998FFF0E98176D
:101D7000FF0E9917000E9A179F51A05DD8B01BD087
:101D8000D890983799379A379F07A0519F19D8B4A0
:101D90000DD09E079EC09BF0070E9B17D8B406D0AF
:101DA000EFD7D890973396339533A02B9F51A01936
:101DB000D8B41FD0F6D7A0519F5DD8B01AD0D89014
:101DC000953796379737A007A0519F19D8B40DD0F3
:101DD0009E079EC09BF0070E9B17D8B406D0EFD786
:101DE000D8909A33993398339F2B9F51A019D8A438
:101DF000F7D79EAF0CD0FF0E951BFF0E961BFF0E64
:101E0000971B010E9527000E9623000E97239EAD7B
:101E10000CD0FF0E981BFF0E991BFF0E9A1B010E94
:101E20009827000E9923000E9A23000E9E6F95515D
:101E300098279651992397519A239AAF0ED0FF0E67
:101E4000981BFF0E991BFF0E9A1B010E9827000E80
:101E50009923000E9A23010E9E6F98C07EF099C0C0
:101E60007FF09AC080F0A0C081F09EC082F034EC78
:101E700016F07EC095F07FC096F080C097F01200FB
:101E80002EC032F0336A346A2D34323601E33380A7
:101E90003250376E31C032F0336A346A3034323601
:101EA00001E333803250366E3750D8B40AD0365002
:101EB000375CD8B00DD03750365C326E180E3264B5
:101EC00007D02FC02CF030C02DF031C02EF0120002
:101ED0003650D8B40AD03750365CD8B00DD0365012
:101EE000375C326E180E326407D02CC02CF02DC037
:101EF0002DF02EC02EF01200060E356E2EBE358E41
:101F000031BE358C2D8EFF0E2C16FF0E2D16000EB9
:101F10002E16308EFF0E2F16FF0E3016000E3116C5
:101F20003650375CD8B01BD0D8902F36303631368B
:101F3000360637503618D8B40DD0350635C032F0D5
:101F4000070E3216D8B406D0EFD7D8902E322D32E5
:101F50002C32372A36503718D8B41FD0F6D737501E
:101F6000365CD8B01AD0D8902C362D362E3637069F
:101F700037503618D8B40DD0350635C032F0070EBC
:101F80003216D8B406D0EFD7D890313230322F3253
:101F9000362A36503718D8A4F7D735AE0CD0FF0EF6
:101FA0002C1AFF0E2D1AFF0E2E1A010E2C26000ED3
:101FB0002D22000E2E2235AC0CD0FF0E2F1AFF0E54
:101FC000301AFF0E311A010E2F26000E3022000E9D
:101FD0003122000E356E2C502F262D5030222E50DF
:101FE000312231AE0ED0FF0E2F1AFF0E301AFF0E27
:101FF000311A010E2F26000E3022000E3122010E62
:10200000356E2FC001F030C002F031C003F037C090
:1020100004F035C005F08BEC16F001C02CF002C0C6
:102020002DF003C02EF012009A0E0001986F190EC9
:10203000996F3F0E9A6FF10E896F2C0E8A6F3C0ECE
:102040008B6F0BC186F00CC187F00DC188F003ECDB
:1020500013F086C095F087C096F088C097F06CECBE
:102060000EF095C00EF196C00FF197C010F10EC1A1
:1020700086F00FC187F010C188F0120E896F830EB1
:102080008A6F3A0E8B6F03EC13F086C0B4F087C0F2
:10209000B5F088C0B6F0380E896F060E8A6F350E1F
:1020A0008B6FB4C086F0B5C087F0B6C088F0E5ECA1
:1020B00014F086C0A4F087C0A5F088C0A6F0FF0E7B
:1020C000A16F7F0EA26F470EA36F55EC19F0A1C050
:1020D000A7F0A2C0A8F0A3C0A9F071EC14F0A7C0AB
:1020E000C7F0A8C0C8F0D70E0001A16FA30EA26F61
:1020F0003C0EA36FB4C0A4F0B5C0A5F0B6C0A6F066
:1021000055EC19F0A1C0B1F0A2C0B2F0A3C0B3F079
:10211000380E896F060E8A6F350E8B6FB1C086F050
:10212000B2C087F0B3C088F0E5EC14F086C0A4F02C
:1021300087C0A5F088C0A6F0FF0EA16F7F0EA26F2A
:10214000470EA36F55EC19F0A1C0A7F0A2C0A8F0EC
:10215000A3C0A9F071EC14F0A7C0C5F0A8C0C6F0E8
:1021600012009A0E0001986F190E996F3F0E9A6F28
:10217000F10E896F2C0E8A6F3C0E8B6F0BC186F0AF
:102180000CC187F00DC188F003EC13F086C095F008
:1021900087C096F088C097F06CEC0EF095C00EF1F9
:1021A00096C00FF197C010F10EC186F00FC187F0F5
:1021B00010C188F0120E896F830E8A6F3A0E8B6FF2
:1021C00003EC13F086C0B4F087C0B5F088C0B6F059
:1021D000380E896F060E8A6F350E8B6FB4C086F08D
:1021E000B5C087F0B6C088F0E5EC14F086C0A4F066
:1021F00087C0A5F088C0A6F0FF0EA16F7F0EA26F6A
:10220000470EA36F55EC19F0A1C0A7F0A2C0A8F02B
:10221000A3C0A9F071EC14F0A7C0CBF0A8C0CCF01B
:10222000D70E0001A16FA30EA26F3C0EA36FB4C026
:10223000A4F0B5C0A5F0B6C0A6F055EC19F0A1C049
:10224000B1F0A2C0B2F0A3C0B3F0380E896F060E91
:102250008A6F350E8B6FB1C086F0B2C087F0B3C005
:1022600088F0E5EC14F086C0A4F087C0A5F088C023
:10227000A6F0FF0EA16F7F0EA26F470EA36F55EC65
:1022800019F0A1C0A7F0A2C0A8F0A3C0A9F071ECFA
:1022900014F0A7C0C9F0A8C0CAF012009A0E2F6EA1
:1022A000190E306E3F0E316EF10E126E2C0E136E43
:1022B0003C0E146E4DC00FF04EC010F04FC011F028
:1022C0007DEC13F00FC02CF010C02DF011C02EF0DB
:1022D00040EC0FF02CC050F02DC051F02EC052F049
:1022E00050C00FF051C010F052C011F0120E126E1B
:1022F000830E136E3A0E146E7DEC13F00FC0B4F023
:1023000010C0B5F011C0B6F0380E0C6E060E0D6E92
:10231000350E0E6EB4C009F0B5C00AF0B6C00BF0B1
:1023200058EC15F009C03BF00AC03CF00BC03DF082
:10233000FF0E386E7F0E396E470E3A6E75EC19F04F
:1023400038C03EF039C03FF03AC040F0CBEC15F059
:102350003EC0C7F03FC0C8F0D70E386EA30E396E2E
:102360003C0E3A6EB4C03BF0B5C03CF0B6C03DF098
:1023700075EC19F038C0B1F039C0B2F03AC0B3F022
:10238000380E0C6E060E0D6E350E0E6EB1C009F0D5
:10239000B2C00AF0B3C00BF058EC15F009C03BF026
:1023A0000AC03CF00BC03DF0FF0E386E7F0E396E58
:1023B000470E3A6E75EC19F038C03EF039C03FF068
:1023C0003AC040F0CBEC15F03EC0C5F03FC0C6F0BF
:1023D00012009A0E2F6E190E306E3F0E316EF10EF6
:1023E000126E2C0E136E3C0E146E4DC00FF04EC0CC
:1023F00010F04FC011F07DEC13F00FC02CF010C0A6
:102400002DF011C02EF040EC0FF02CC050F02DC07C
:1024100051F02EC052F050C00FF051C010F052C019
:1024200011F0120E126E830E136E3A0E146E7DECC6
:1024300013F00FC0B4F010C0B5F011C0B6F0380EF4
:102440000C6E060E0D6E350E0E6EB4C009F0B5C0E2
:102450000AF0B6C00BF058EC15F009C03BF00AC00A
:102460003CF00BC03DF0FF0E386E7F0E396E470E0C
:102470003A6E75EC19F038C03EF039C03FF03AC002
:1024800040F0CBEC15F03EC0CBF03FC0CCF0D70E07
:10249000386EA30E396E3C0E3A6EB4C03BF0B5C038
:1024A0003CF0B6C03DF075EC19F038C0B1F039C061
:1024B000B2F03AC0B3F0380E0C6E060E0D6E350E4B
:1024C0000E6EB1C009F0B2C00AF0B3C00BF058EC08
:1024D00015F009C03BF00AC03CF00BC03DF0FF0E08
:1024E000386E7F0E396E470E3A6E75EC19F038C0B3
:1024F0003EF039C03FF03AC040F0CBEC15F03EC0A2
:10250000C9F03FC0CAF0120003C007F0086A096AA8
:102510000234073601E3088007500F6E0F50D8A42D
:1025200009D0000E016E000E026E000E036E000E4A
:10253000046E120006C007F0086A096A05340736FF
:1025400001E3088007500E6E0E50D8B4EAD7028E11
:10255000FF0E0116FF0E0216000E0316058EFF0E6B
:102560000416FF0E0516000E0616000E0A6E000E6B
:102570000B6E000E0C6E000E0D6E7F0E0F5E0E5079
:10258000980F0F5E180E0E6ED8900A360B360C366A
:102590000D360450015C0550025806500358D8A06F
:1025A00007D00450015E0550025A0650035A0A80B3
:1025B000D8900136023603360E2EE6D70FAE0DD078
:1025C0000F50800A970FD8A0ACD7D8900D320C329C
:1025D0000B320A320F3EF9D70DD0170E0F6407D019
:1025E000A0D7D8900A360B360C360D360F060F5092
:1025F000D8A4F7D70AC001F00BC002F00CC003F05A
:102600000DC004F0120088C08CF08D6B8E6B873586
:102610008C3701E38D818C518F6F8F51D8A407D0F7
:10262000000E866F000E876F000E886F12008BC041
:102630008CF08D6B8E6B8A358C3701E38D818C51DC
:10264000946F9451D8A407D0000E866F000E876F48
:10265000000E886F120094517B0F8F2788C094F072
:102660008B51941B800E9417878F8A8FFF0E8917CA
:10267000FF0E8A17000E8B17000E906F000E916FE1
:10268000000E926F070E936F86A106D08951902796
:102690008A5191238B519223D89088338733863384
:1026A000D89089378A378B37932FEED7090E936FDF
:1026B00086A106D0895190278A5191238B5192236C
:1026C000D890883387338633D890923391339033C0
:1026D000932FEED790C07EF091C07FF092C080F033
:1026E0008FC081F094C082F034EC16F07EC086F08A
:1026F0007FC087F080C088F0120011C015F0166A04
:10270000176A1034153601E316801550186E1850EC
:10271000D8A407D0000E0F6E000E106E000E116EC2
:10272000120014C015F0166A176A1334153601E347
:10273000168015501D6E1D50D8A407D0000E0F6EC8
:10274000000E106E000E116E12001D507B0F182629
:1027500011C01DF014501D1A800E1D16108E138E00
:10276000FF0E1216FF0E1316000E1416000E196E31
:10277000000E1A6E000E1B6E070E1C6E0FA006D008
:102780001250192613501A2214501B22D8901132BD
:1027900010320F32D8901236133614361C2EEED764
:1027A000090E1C6E0FA006D01250192613501A22C3
:1027B00014501B22D890113210320F32D8901B3295
:1027C0001A3219321C2EEED719C001F01AC002F0CD
:1027D0001BC003F018C004F01DC005F08BEC16F010
:1027E00001C00FF002C010F003C011F0120003345A
:1027F00004340C6E0C50D8A409D0000E016E000EEB
:10280000026E000E036E000E046E120006340734D2
:102810000B6E0B50D8B4F1D7038EFF0E0116FF0ECE
:102820000216FF0E0316000E0416068EFF0E041687
:10283000FF0E0516FF0E0616000E0716000E076E99
:10284000000E086E000E096E000E0A6E7F0E0C5E02
:102850000B50A00F0C5E200E0B6ED890073608367A
:1028600009360A360450015C0550025806500358D8
:1028700007500458D8A009D00450015E0550025AF0
:102880000650035A0750045A0780D8900136023682
:10289000033604360B2EE1D70CAE0DD00C50800A57
:1028A0009F0FD8A0AAD7D8900A320932083207322F
:1028B0000C3EF9D70DD01F0E0C6407D09ED7D890D0
:1028C0000736083609360A360C060C50D8A4F7D756
:1028D00007C001F008C002F009C003F00AC004F00C
:1028E0001200A9C000F10101016B026B0001A835C3
:1028F0000101003701E3018100510A6F0A51D8A498
:102900000AD0000E0001A76F000EA86F000EA96F7D
:10291000000EAA6F1200170E006FA7C001F1A8C029
:1029200002F1A9C003F10029046F04D0D890033349
:1029300002330133042FFAD701010151056F000161
:10294000A88FFF0EA717FF0EA817000EA917A751F3
:102950000101066F0001A8510101076F0001A95193
:102960000101086F096B8E0E0A5F0AAF0DD00A5184
:10297000800A8F0FD8A0C5D7D89009330833073302
:1029800006330A3FF9D70DD0170E0A6507D0B9D71D
:10299000D89006370737083709370A070A51D8A4ED
:1029A000F7D70551D8B408D0091F081F071F066DB7
:1029B000000E07230823092306C1A7F007C1A8F0CA
:1029C00008C1A9F009C1AAF0120088C08CF08D6B73
:1029D0008E6B87358C3701E38D818C51936F9351CA
:1029E000D8A407D0000E866F000E876F000E886F88
:1029F00012008BC08CF08D6B8E6B8A358C3701E3A7
:102A00008D818C51946F9451D8A407D0000E866F9D
:102A1000000E876F000E886F1200000E906F000E80
:102A2000916F000E926F9451890F935F88C094F05C
:102A30008B51941B800E9417878FFF0E8617FF0E05
:102A40008717000E88178A8FFF0E8917FF0E8A17C7
:102A5000000E8B17180E8F6FD890903791379237E2
:102A60008951865D8A5187598B518859D8A007D0E2
:102A70008951865F8A51875B8B51885B9081D890A2
:102A80008637873788378F2FE7D790C07EF091C081
:102A90007FF092C080F093C081F094C082F034EC5B
:102AA00016F07EC086F07FC087F080C088F01200EC
:102AB0000BC00FF0106A116A0A340F3601E3108060
:102AC0000F50166E1650D8A407D0000E096E000ED7
:102AD0000A6E000E0B6E12000EC00FF0106A116A23
:102AE0000D340F3601E310800F50176E1750D8A425
:102AF00007D0000E096E000E0A6E000E0B6E12005B
:102B0000000E136E000E146E000E156E1750890F16
:102B1000165E0BC017F00E50171A800E17160A8E8D
:102B2000FF0E0916FF0E0A16000E0B160D8EFF0E75
:102B30000C16FF0E0D16000E0E16180E126ED89003
:102B40001336143615360C50095C0D500A580E50C9
:102B50000B58D8A007D00C50095E0D500A5A0E50E1
:102B60000B5A1380D89009360A360B36122EE7D747
:102B700013C001F014C002F015C003F016C004F039
:102B800017C005F08BEC16F001C009F002C00AF086
:102B900003C00BF0120040C042F0436A446A3F3465
:102BA000423601E3438042504C6E4C50D8A409D0C9
:102BB000000E3E6E000E3F6E000E406E000E416E27
:102BC0001200170E426E3EC043F03FC044F040C0BA
:102BD00045F04228466E04D0D89045324432433204
:102BE000462EFAD74350476E3F8EFF0E3E16FF0E1D
:102BF0003F16000E40163E50486E3F50496E405002
:102C00004A6E4B6A8E0E4C5E4CAE0DD04C50800A14
:102C10008F0FD8A0CDD7D8904B324A3249324832A4
:102C20004C3EF9D70DD0170E4C6407D0C1D7D890C1
:102C3000483649364A364B364C064C50D8A4F7D75E
:102C40004750D8B408D04B1E4A1E491E486C000E8F
:102C500049224A224B2248C03EF049C03FF04AC0B8
:102C600040F04BC041F012008151D8B405D07E51E4
:102C70007F118011D8A40CD0000E7E6F000E7F6FE4
:102C8000000E806F1200812BD89080337F337E330B
:102C9000000E7E15836F000E7F15846FFE0E80156B
:102CA000856F835184118511D8B40CD0ECD7812B5A
:102CB000010E7E27000E7F23000E8023D8908033E4
:102CC0007F337E33000E7E15836F000E7F15846F79
:102CD000FF0E8015856F835184118511D8B406D0FD
:102CE000E6D78107D8907E377F3780377FBF03D004
:102CF000020E8161F6D781A17F9FD89081338151E7
:102D000080138251D8A4808F7EC07EF07FC07FF078
:102D100080C080F012000450D8B405D001500210D9
:102D20000310D8A40CD0000E016E000E026E000E2F
:102D3000036E1200042AD890033202320132000ED0
:102D40000114066E000E0214076EFE0E0314086EC8
:102D5000065007100810D8B40CD0ECD7042A010E86
:102D60000126000E0222000E0322D8900332023206
:102D70000132000E0114066E000E0214076EFF0EE3
:102D80000314086E065007100810D8B406D0E6D712
:102D90000406D89001360236033602BE03D0020E76
:102DA0000460F6D704A0029ED890043204500312A7
:102DB0000550D8A4038E01C001F002C002F003C088
:102DC00003F012007F6F8D800D0EE82EFED700F00D
:102DD0007FC07EF0010E00017E178C507E19FE0B25
:102DE0007E198C6E0D0EE82EFED700F07FC07EF0AF
:102DF0000001D8907E33010E7E177E478C507E19DD
:102E0000FD0B7E198C6E0D0EE82EFED700F07FC0F4
:102E10007EF00001D8907E33D8907E33010E7E176D
:102E20007E477E478C507E19FB0B7E198C6E0D0EF3
:102E3000E82EFED700F07FC07EF00001D8907E33F0
:102E4000D8907E33D8907E33010E7E177E477E4722
:102E50007E478C507E19F70B7E198C6E0D0EE82E76
:102E6000FED700F08D900D0EE82EFED700F0120078
:102E7000720ED36E000E0F013B6F000E3C6F000E02
:102E80003A6F000E956E000E966E000E8C6E000E60
:102E90008D6E020E45EC1AF0060E45EC1AF00F0E80
:102EA00045EC1AF0280E45EC1AF0010E45EC1AF02C
:102EB000949C948E190EAF6E900EAB6E200EAC6E7D
:102EC000F28EF28C9D8A9E9A9D809E90A082A19205
:102ED000120ECD6E120EB16E000E01010B6F000EC0
:102EE0000C6F000E0D6FB1EC10F0000ECF6E000EE7
:102EF000CE6E000E01010B6F000E0C6F000E0D6FF9
:102F000014EC10F0000EB36E000EB26E8C8C8C8E32
:102F1000CD80B1801200026E8D800D0EE82EFED79E
:102F200000F002C001F0010E01168C500118FE0BDA
:102F300001188C6E0D0EE82EFED700F002C001F0D5
:102F4000D8900132010E011601468C500118FD0B7C
:102F500001188C6E0D0EE82EFED700F002C001F0B5
:102F6000D8900132D8900132010E01160146014677
:102F70008C500118FB0B01188C6E0D0EE82EFED73D
:102F800000F002C001F0D8900132D8900132D89000
:102F90000132010E01160146014601468C5001180E
:102FA000F70B01188C6E0D0EE82EFED700F08D90F9
:102FB0000D0EE82EFED700F01200000E0C6E0AAEC9
:102FC00006D0096C0A1ED8B00A2A010E0C6E08AE93
:102FD00006D0076C081ED8B0082A010E0C1A000E85
:102FE0000E6E000E0D6E09500A10D8B41CD0010EE2
:102FF0000B6E04D0D89009360A360B2A0AAEFAD7DF
:10300000D8900D360E360950075C0A500858D8A0E3
:1030100005D00950075E0A50085A0D80D8900A3230
:1030200009320B2EEDD70C50D8B404D00D6C0E1E07
:10303000D8B00E2A0DC007F00EC008F01200000E26
:10304000096E000E0A6E000E0B6E000E0C6E05501F
:10305000061007100810D8B42AD0010E0D6E06D045
:10306000D89005360636073608360D2A08AEF8D74A
:10307000D89009360A360B360C360550015C0650DE
:1030800002580750035808500458D8A009D00550DA
:10309000015E0650025A0750035A0850045A09802C
:1030A000D89008320732063205320D2EE1D709C01A
:1030B00001F00AC002F00BC003F00CC004F01200D3
:1030C00003AE0FD0000E076E000E086E800E096E64
:1030D0000150075C016E02500858026E03500958F7
:1030E000036E06AE0FD0000E076E000E086E800E47
:1030F000096E0450075C046E05500858056E0650B2
:103100000958066E000E011A000E021A800E031AEC
:10311000000E041A000E051A800E061A0450015CF7
:103120000550025806500358D8B002D0D89012006B
:10313000D8801200000E066E02AE06D0016C021E90
:10314000D8B0022A010E066E04AE04D0036C041E31
:10315000D8B0042A03500410D8B418D0010E056E5C
:1031600004D0D89003360436052A04AEFAD70350AB
:10317000015C04500258D8A004D00350015E0450F2
:10318000025AD89004320332052EF1D70650D8B433
:1031900004D0016C021ED8B0022A01C001F002C0A6
:1031A00002F012000550061007100810D8B424D001
:1031B000010E096E06D0D890053606360736083659
:1031C000092A08AEF8D70550015C0650025807508E
:1031D000035808500458D8A008D00550015E065086
:1031E000025A0750035A0850045AD890083207323E
:1031F00006320532092EE7D701C001F002C002F005
:1032000003C003F004C004F012008E0E116E06D04D
:10321000D8900C320B320A320932112A000E0914EE
:103220000D6E000E0A140E6E000E0B140F6EFF0EC4
:103230000C14106E0D500E100F101010D8A4E8D7FB
:1032400009C001F00AC002F00BC003F011C004F085
:10325000000E056E8BEC16F001C009F002C00AF0FA
:1032600003C00BF01200000EC46F000EC36F0AD033
:10327000C351CD0FD96EDA6ADF505EEC1AF000014F
:10328000C34BC42BFF0E046EFF0E056ECD0E016EF8
:1032900025EC1AF00450012605500222C351015CAE
:1032A000C4510258D8A01200E3D7A451A511A61109
:1032B000D8B406D0000EA41B000EA51B800EA61BC2
:1032C000A1C095F0A2C096F0A3C097F0A4C098F05A
:1032D000A5C099F0A6C09AF06CEC0EF095C0A1F0D4
:1032E00096C0A2F097C0A3F012003B503C103D10D6
:1032F000D8B406D0000E3B1A000E3C1A800E3D1AC0
:1033000038C02CF039C02DF03AC02EF03BC02FF061
:103310003CC030F03DC031F040EC0FF02CC038F034
:103320002DC039F02EC03AF01200D80EF66E340ED1
:10333000F76E000EF86E0900F5CF5DF00900F5CFCD
:103340005EF000EEABF0360EEE6AE806FDE15C6A78
:103350005B6A5A6A596A5F905F92000EF86E0001CC
:1033600069EF1AF0066E000E086E0550D8B415D03D
:10337000010E076E03D0D8900536072A05AEFBD79D
:10338000D89008360550065CD8A003D00550065EDC
:103390000880D8900532072EF3D708501200000E8F
:1033A0000C6E0AAE06D0096C0A1ED8B00A2A010EAD
:1033B0000C6E09C001F00AC002F0036A8E0E046EA2
:1033C0000CC005F08BEC16F001C009F002C00AF049
:1033D00003C00BF01200026E080E036E000E046EA6
:1033E000D89002340434046ED89002360150045C44
:1033F000D8A002D00150045E032EF2D70450120070
:1034000001500302F3CF05F0F4CF06F0015004029F
:10341000F350062602500302F350062605C001F0C1
:1034200006C002F01200015002100310D8B406D0FA
:10343000000E011A000E021A800E031A01C001F0DC
:1034400002C002F003C003F0120001C003F001D07B
:10345000032A0350D96EDA6ADF50D8A4F9D7015095
:10346000035C016E026A01BE02061200036E000ECA
:10347000026E3A0E036005D02F0E036402D0010ED7
:10348000026E02C001F0013012000001806F8D92C7
:10349000000180390F0BE2EC16F0000180510F0B98
:1034A000E2EC16F01200036E8D9203380F0B8BECDA
:1034B00017F003500F0B8BEC17F01200036E8D8288
:1034C00003380F0B8BEC17F003500F0B8BEC17F03E
:0A34D000120038EC17F0FFD70100DE
:020000040020DA
:08000000FFFFFFFFFFFFFFFF00
:020000040030CA
:0E000000FF281F3CFFBF81FF0FC00FE00F4025
:00000001FF
