:04000000FFEF01F01D
:100008005F82D9CF62F0DACF63F0F3CF64F0F4CF38
:1000180065F0F6CF66F0F7CF67F0F8CF68F0F5CF68
:1000280069F0F0A015D0010E0001BE25BE6F000ECC
:10003800BF21BF6F150E0001616F4B0E606FBE0EC2
:10004800E82EFED7602FFCD7612FFAD700F0F0908A
:100058009EAABFD1AECF6AF0410E00016A19D8B48A
:1000680004D0420E6A19D8A403D06AC0CBF0B1D12B
:10007800300E6A19D8B424D0310E6A19D8B420D0F9
:10008800320E6A19D8B41CD0330E6A19D8B418D0F5
:10009800340E6A19D8B414D0350E6A19D8B410D0F1
:1000A800360E6A19D8B40CD0370E6A19D8B408D0ED
:1000B800380E6A19D8B404D0390E6A19D8A4B0D049
:1000C800E405E511D8A413D0D00E6A25096E0A6A92
:1000D800FF0E0A2201EC24F009C0BBF00AC0BCF0F4
:1000E8000BC0BDF0000E0001E56F020EA0D0020E9D
:1000F800E419E511D8A42CD0000E126E200E136E50
:10010800410E146EBBC00FF0BCC010F0BDC011F0A2
:1001180096EC1BF00FC02CF010C02DF011C02EF083
:10012800D00E00016A25096E0A6AFF0E0A2201EC48
:1001380024F009C02FF00AC030F00BC031F008ECF1
:1001480018F02CC0BBF02DC0BCF02EC0BDF041D1C2
:10015800030EE419E511D8A42FD0CD0E126ECC0EE3
:10016800136E3D0E146ED00E6A25096E0A6AFF0ED4
:100178000A2201EC24F009C00FF00AC010F00BC0ED
:1001880011F096EC1BF00FC02CF010C02DF011C030
:100198002EF0BBC02FF0BCC030F0BDC031F008EC71
:1001A80018F02CC0BBF02DC0BCF02EC0BDF0000E66
:1001B8000001E56F040E3BD0040EE419E511D8A444
:1001C80008D1D70E126E230E136E3C0E146ED00E8D
:1001D8006A25096E0A6AFF0E0A2201EC24F009C09A
:1001E8000FF00AC010F00BC011F096EC1BF00FC016
:1001F8002CF010C02DF011C02EF0BBC02FF0BCC0E9
:1002080030F0BDC031F008EC18F02CC0BBF02DC0A8
:10021800BCF02EC0BDF0000E0001E56F050E07D042
:100228002E0E6A19D8A405D0000EE56F030EE46FF0
:10023800D0D04F0E6A19D8A420D0410ECB19D8A41B
:1002480007D0BBC0B8F0BCC0B9F0BDC0BAF00AD086
:10025800420ECB19D8A406D0BBC0B5F0BCC0B6F0CE
:10026800BDC0B7F0000EE56F010EE46F000EBB6F66
:10027800000EBC6F000EBD6FACD04B0E6A19D8A42F
:10028800A8D0010E24EC25F0800E24EC25F0CC0E2D
:100298003E6E870E3F6EB8C040F0B9C041F0BAC09C
:1002A80042F075EC0CF003EC23F0C00E24EC25F0C2
:1002B800CC0E3E6E940E3F6EB5C040F0B6C041F015
:1002C800B7C042F075EC0CF003EC23F0000EE06FC1
:1002D800000EE16F000EC36F000EC26FB8C01EF0B3
:1002E800B9C01FF0BAC020F0DAEC1DF01EC02DF026
:1002F8001FC02EF0000E306E000E2F6E000E326EF4
:10030800B40E316E000E346E6E0E336E010E366E04
:10031800FE0E356E47EC23F02DC0C4F02EC0C5F09C
:10032800C4C0E2F00001C551E36FC251040DF3509F
:10033800060F036EE00E046E000E066E040E056EC8
:10034800800E58EC22F0030E0001616F080E606FFA
:10035800770EE82EFED7602FFCD7612FFAD7000E54
:100368000001C36F010EC26FB5C01EF0B6C01FF00A
:10037800B7C020F0DAEC1DF01EC02DF01FC02EF023
:10038800000E306E000E2F6E000E326EB40E316EFF
:10039800000E346E6E0E336E010E366EFE0E356E26
:1003A80047EC23F02DC0C4F02EC0C5F0C4C0E2F065
:1003B8000001C551E36FC251040DF350060F036EDF
:1003C800E00E046E000E066E040E056E800E58ECEC
:1003D80022F069C0F5FF68C0F8FF67C0F7FF66C084
:1003E800F6FF65C0F4FF64C0F3FF63C0DAFF62C0C4
:0A03F800D9FF5F92110038EF24F0E6
:101000000000803F00204100C842007A44401C4656
:1010100050C34724744997184BBCBE4C6B6E4E03AB
:10102000155079AD60F3497100803FCDCC3DD72399
:101030003C12833AB7D138C62737388635C0D63305
:10104000CC2B32708930E7DB2EE53C1E42A20D012D
:101050000000000A00000064000000E80300001027
:10106000270000A086010040420F008096980000F3
:10107000E1F50500CA9A3B536572766F20313A2537
:101080002E326620256400536572766F20313A2532
:101090002E326600536572766F20323A252E326604
:1010A0000000AA0E0101036F5EEF0CF0250E15196A
:1010B000D8B408D00001A851D96EDA6A15C1DFFF93
:1010C000A82BFCD3000E056F000E046FA9C0F6FF1D
:1010D000100EF76E0800F5502E0AD8A43BD0058DEF
:1010E0000001A92B000E0101116F000E106F27D017
:1010F00010C179F011C17AF0000E7C6F0A0E7B6F7F
:101100008FEC24F079C010F17AC011F1D00EAF6FDE
:10111000FF0EB06FA9C0F6FF100EF76E0800F55075
:10112000B16FB26BAF51B127B051B223B1510101D0
:1011300010270001B251010111230001A92BA9C000
:10114000F6FF100EF76E0800F550C7EC24F0D8A09B
:1011500009D0CED7000E116F000E106F058902D096
:10116000058519D00001A92BA905AF6FAFC0F6FF07
:10117000100EF76E0800F5CF15F101011551000AA8
:10118000D8B4ACD3640AD8B406D0020AD8B4E8D72D
:101190000F0AD8A493D3070E0515D8B4CED205A94B
:1011A00004D0000E116F060E106F0351D96EDA6A6B
:1011B000DECF12F1DECF13F1DDCF14F1030E0327E2
:1011C00014AF11D012C16BF013C16CF014C16DF0EB
:1011D0007CEC24F06BC012F16CC013F16DC014F103
:1011E000030E01010413000E076F000E066F12516B
:1011F00013111411D8B48BD0820E0001AF6FFF0E03
:10120000B06F12C1B1F013C1B2F014C1B3F015C187
:10121000B4F0100E05D0D890B433B333B233B13339
:10122000E82EF9D7B151AF250101066F000E00017C
:10123000B0210101076F0607D8A0070706C179F0A2
:1012400007C17AF0000E00017C6F030E7B6F8FECFC
:1012500024F079C006F17AC007F106C171F007C128
:1012600072F0000E746F0A0E736F99EC1FF071C06C
:1012700006F172C007F1010107AF03D00607D8A03D
:1012800007070651000854EC10F088C008F189C027
:1012900009F18AC00AF108C179F009C17AF00AC1DE
:1012A0007BF012C17CF013C17DF014C17EF01CEC08
:1012B0001BF079C008F17AC009F17BC00AF108C1BE
:1012C0006BF009C16CF00AC16DF0000E6E6F800EFC
:1012D0006F6F3F0E706FE0EC20F0D8B005D00101C9
:1012E0000607D8A0070713D008C16BF009C16CF03E
:1012F0000AC16DF0000E6E6F200E6F6F410E706FA1
:10130000E0EC20F0D8A003D00101064B072B01012F
:1013100011BF06D011511BE10D0E105DD8B017D0D2
:1013200012C196F013C197F014C198F0105156EC09
:1013300015F088C099F089C09AF08AC09BF034EC0F
:1013400017F096C012F197C013F198C014F1010183
:1013500007BF06D0075120E10A0E065DD8B01CD0A9
:10136000125113111411D8B457D012C193F013C1F4
:1013700094F014C195F06FEC1DF0935194119511F8
:101380009611D8A449D0010107BF46D0075104E106
:10139000020E065DD8A040D008C16BF009C16CF008
:1013A0000AC16DF0700E00016E6F890E6F6F400EF6
:1013B000706FE0EC20F0D8B003D00101F70E02D03E
:1013C0000101F80E0627FF0E0723065154EC10F01A
:1013D00088C008F189C009F18AC00AF112C16BF016
:1013E00013C16CF014C16DF008C16EF009C16FF04B
:1013F0000AC170F0A3EC19F06BC00CF16CC00DF1D8
:101400006DC00EF16EC00FF1000E0101126F000EE3
:10141000136F000E146F33D012C193F013C194F008
:1014200014C195F06FEC1DF093C00CF194C00DF158
:1014300095C00EF196C00FF112C1A2F013C1A3F036
:1014400014C1A4F00CC173F00DC174F00EC175F09D
:101450000FC176F02AEC22F073C0A5F074C0A6F09C
:1014600075C0A7F068EC23F0A2C012F1A3C013F17D
:10147000A4C014F1000E0101076F000E066F010EEB
:10148000156F1551040DF3504F0F0001AF6FAFC032
:10149000F6FF100EF76E0900F55001010C5D090012
:1014A000F5500D590900F5500E590900F5500F5926
:1014B000D8A005D0152B0A0E1519D8A4E2D704C15F
:1014C000AFF0030E0001AF17D8B451D0A851D96EB8
:1014D000DA6A2D0EDF6E0001A82B49D00CC16BF02B
:1014E0000DC16CF00EC16DF00FC16EF01551040D01
:1014F000F3504F0F0001AF6FAFC0F6FF100EF76E45
:101500000900F5CF6FF00900F5CF70F00900F5CFB5
:1015100071F00A00F5CF72F01DEC20F06BC008F1FD
:101520006CC009F16DC00AF16EC00BF108C178F012
:1015300009C179F00AC17AF00BC17BF00A0E7C6F09
:10154000000E7D6F000E7E6F000E7F6FC4EC21F0E9
:1015500078C008F179C009F17AC00AF17BC00BF1BB
:10156000A851D96EDA6A01010851300FB3D70101D1
:1015700015071529D8B40CD0B1D70001A851D96EE0
:10158000DA6A300EDF6EA82B01010607D8A0070724
:1015900007BF05D00751F1E10605D8B0EED711BF5E
:1015A00009D0115104E1090E105DD8A003D0080E36
:1015B000156F02D010C115F11551105F000E115BAF
:1015C0001551D8B407D00001A851D96EDA6A2E0E91
:1015D000DF6EA82B0101155154EC10F088C000F10A
:1015E00089C001F18AC002F112C17CF013C17DF003
:1015F00014C17EF000C179F001C17AF002C17BF024
:101600001CEC1BF079C093F07AC094F07BC095F08D
:101610006FEC1DF093C00CF194C00DF195C00EF16C
:1016200096C00FF174D00CC16BF00DC16CF00EC1FF
:101630006DF00FC16EF01551040DF3504F0F000106
:10164000AF6FAFC0F6FF100EF76E0900F5CF6FF069
:101650000900F5CF70F00900F5CF71F00A00F5CF61
:1016600072F01DEC20F06BC008F16CC009F16DC088
:101670000AF16EC00BF108C178F009C179F00AC116
:101680007AF00BC17BF00A0E7C6F000E7D6F000EAE
:101690007E6F000E7F6FC4EC21F078C008F179C036
:1016A00009F17AC00AF17BC00BF1A851D96EDA6A50
:1016B00001010851300FDF6E0001A82B0CC178F03A
:1016C0000DC179F00EC17AF00FC17BF00101155107
:1016D000040DF3504F0F0001AF6FAFC0F6FF100EB7
:1016E000F76E0900F5CF7CF00900F5CF7DF0090019
:1016F000F5CF7EF00A00F5CF7FF0C4EC21F078C082
:101700000CF179C00DF17AC00EF17BC00FF101012F
:1017100015071529D8B40CD086D70001A851D96E69
:10172000DA6A300EDF6EA82B01011007D8A011076E
:1017300010511111D8B4C2D0F0D70351D96EDA6A62
:10174000DECF0CF1DDCF0DF1000E0DBFFF0E0E6FE1
:101750000F6F020E03270FAF0AD0030E04130F1FE3
:101760000E1F0D1F0C6D000E0D230E230F231051A5
:101770001111D8A408D00C510D110E110F11D8A4BD
:1017800002D0104B112B010E156F1551040DF350A3
:101790004F0F0001AF6FAFC0F6FF100EF76E0900DC
:1017A000F55001010C5D0900F5500D590900F55087
:1017B0000E590900F5500F59D8A005D0152B0A0E67
:1017C0001519D8A4E2D715510001AF6FB06B010114
:1017D00010510001AF5DB051800AB16F010111518C
:1017E000800A0001B159D8A015D00101155100019E
:1017F000AF6FB06BAF510101105D1151800A000154
:10180000B16FB051800AB159D8B004D015C110F1F0
:101810000101116B04C1AFF0030E0001AF17D8B482
:1018200044D0A851D96EDA6A2D0EDF6EA82B3DD0B8
:101830001051040DF3504F0F0001AF6FAFC0F6FF12
:10184000100EF76E0900F5CF6FF00900F5CF70F0BC
:101850000900F5CF71F00A00F5CF72F00CC16BF002
:101860000DC16CF00EC16DF00FC16EF01DEC20F0DB
:101870006BC078F06CC079F06DC07AF06EC07BF010
:101880000A0E7C6F000E7D6F000E7E6F000E7F6F64
:10189000C4EC21F07851300F0101156F0001A851FF
:1018A000D96EDA6A15C1DFFFC1D701011007D8A0D0
:1018B00011071029BDE11129D8A4BAD70001A92B1D
:1018C000A905AF6FAFC0F6FF100EF76E0800F5CF99
:1018D00015F101011551D8A456EF08F00001A851E7
:1018E000D96EDA6A000EDF6E1200400E4C6EC9D35C
:1018F000250E5E18D8B407D03E50D96EDA6A5EC0A5
:10190000DFFF3E2ABED3000E4E6E000E4D6E3FC06E
:10191000F6FF100EF76E0800F5502E0AD8A435D049
:101920004E8C3F2A000E5A6E000E596E23D059C0BD
:101930000FF05AC010F0000E126E0A0E116EA2ECDB
:1019400024F00FC059F010C05AF0D00E436EFF0EB5
:10195000446E3FC0F6FF100EF76E0800F550456E5E
:10196000466A435045264450462245505926465023
:101970005A223F2A3FC0F6FF100EF76E0800F550BE
:10198000FAEC24F0D8A009D0D2D7000E5A6E000E7F
:10199000596E4E8802D04E8417D03F2A3F04436EC2
:1019A00043C0F6FF100EF76E0800F5CF5EF05E50F4
:1019B000000AD8B473D3640AD8B406D0020AD8B4E3
:1019C000EAD70F0AD8A45DD3070E4E14D8B4A9D213
:1019D0004EA804D0000E5A6E060E596E4C50D96EA9
:1019E000DA6ADECF5BF0DECF5CF0DDCF5DF0030EB8
:1019F0004C265DAE10D05BC001F05CC002F05DC053
:101A000003F0B5EC24F001C05BF002C05CF003C051
:101A10005DF0030E4D12000E506E000E4F6E5B50C7
:101A20005C105D10D8B483D0820E436EFF0E446EFE
:101A30005BC045F05CC046F05DC047F05EC048F05A
:101A4000100E05D0D8904832473246324532E82E43
:101A5000F9D7455043244F6E000E4420506E4F0678
:101A6000D8A050064FC00FF050C010F0000E126EFC
:101A7000030E116EA2EC24F00FC04FF010C050F016
:101A80004FC007F050C008F0000E0A6E0A0E096E33
:101A9000DBEC1FF007C04FF008C050F050AE03D091
:101AA0004F06D8A050064F50000822EC12F01EC07E
:101AB00051F01FC052F020C053F051C00FF052C07F
:101AC00010F053C011F05BC012F05CC013F05DC0A9
:101AD00014F096EC1BF00FC051F010C052F011C082
:101AE00053F051C001F052C002F053C003F0000E99
:101AF000046E800E056E3F0E066E1AEC21F0D8B013
:101B000004D04F06D8A0500612D051C001F052C0E8
:101B100002F053C003F0000E046E200E056E410E5D
:101B2000066E1AEC21F0D8A002D04F4A502A5ABEB5
:101B300006D05A501BE10D0E595CD8B017D05BC0CF
:101B40002CF05CC02DF05DC02EF0595046EC16F024
:101B50001EC02FF01FC030F020C031F008EC18F08C
:101B60002CC05BF02DC05CF02EC05DF050BE06D0E6
:101B700050501EE10A0E4F5CD8B01AD05B505C107A
:101B80005D10D8B451D05BC01EF05CC01FF05DC0CA
:101B900020F0DAEC1DF01E501F1020102110D8B4D8
:101BA00050BE42D0505004E1020E4F5CD8A03CD051
:101BB00051C001F052C002F053C003F0700E046E29
:101BC000890E056E400E066E1AEC21F0D8B002D0D8
:101BD000F70E01D0F80E4F26FF0E50224F5022EC88
:101BE00012F01EC051F01FC052F020C053F05BC075
:101BF00001F05CC002F05DC003F051C004F052C0BF
:101C000005F053C006F022EC1AF001C055F002C0F6
:101C100056F003C057F004C058F0000E5B6E000E83
:101C20005C6E000E5D6E32D05BC01EF05CC01FF0BB
:101C30005DC020F0DAEC1DF01EC055F01FC056F05C
:101C400020C057F021C058F05BC038F05CC039F0BC
:101C50005DC03AF055C009F056C00AF057C00BF00D
:101C600058C00CF086EC22F009C03BF00AC03CF0F2
:101C70000BC03DF088EC23F038C05BF039C05CF05D
:101C80003AC05DF0000E506E000E4F6E010E5E6E9B
:101C90005E50040DF3504F0F436E43C0F6FF100E1D
:101CA000F76E0900F550555C0900F55056580900CB
:101CB000F55057580900F5505858D8A005D05E2A5D
:101CC0000A0E5E18D8A4E4D74DC043F0030E4316A5
:101CD000D8B44ED03E50D96EDA6A2D0EDF6E3E2A51
:101CE00047D055C001F056C002F057C003F058C0AD
:101CF00004F05E50040DF3504F0F436E43C0F6FFE7
:101D0000100EF76E0900F5CF05F00900F5CF06F0CB
:101D10000900F5CF07F00A00F5CF08F09FEC20F09E
:101D200001C051F002C052F003C053F004C054F09F
:101D300051C00EF052C00FF053C010F054C011F05B
:101D40000A0E126E000E136E000E146E000E156E4B
:101D5000F7EC21F00EC051F00FC052F010C053F05C
:101D600011C054F03E50D96EDA6A5150300FB6D7D8
:101D70005E065E28D8B40AD0B4D73E50D96EDA6A6F
:101D8000300EDF6E3E2A4F06D8A0500650BE05D05A
:101D90005050F3E14F04D8B0F0D75ABE09D05A5092
:101DA00004E1090E595CD8A003D0080E5E6E02D083
:101DB00059C05EF05E50595E000E5A5A5E50D8B45B
:101DC00006D03E50D96EDA6A2E0EDF6E3E2A5E5085
:101DD00022EC12F01EC049F01FC04AF020C04BF0A8
:101DE0005BC012F05CC013F05DC014F049C00FF08E
:101DF0004AC010F04BC011F096EC1BF00FC01EF063
:101E000010C01FF011C020F0DAEC1DF01EC055F01C
:101E10001FC056F020C057F021C058F06FD055C0F9
:101E200001F056C002F057C003F058C004F05E50F5
:101E3000040DF3504F0F436E43C0F6FF100EF76EC4
:101E40000900F5CF05F00900F5CF06F00900F5CF40
:101E500007F00A00F5CF08F09FEC20F001C051F028
:101E600002C052F003C053F004C054F051C00EF051
:101E700052C00FF053C010F054C011F00A0E126E91
:101E8000000E136E000E146E000E156EF7EC21F0AE
:101E90000EC051F00FC052F010C053F011C054F0FA
:101EA0003E50D96EDA6A5150300FDF6E3E2A55C06F
:101EB0000EF056C00FF057C010F058C011F05E5031
:101EC000040DF3504F0F436E43C0F6FF100EF76E34
:101ED0000900F5CF12F00900F5CF13F00900F5CF96
:101EE00014F00A00F5CF15F0F7EC21F00EC055F014
:101EF0000FC056F010C057F011C058F05E065E28B3
:101F0000D8B40AD08CD73E50D96EDA6A300EDF6E64
:101F10003E2A5906D8A05A0659505A10D8B4B1D002
:101F2000F2D74C50D96EDA6ADECF55F0DDCF56F0DD
:101F3000000E56BEFF0E576E586E020E4C2658AE5F
:101F40000AD0030E4D12581E571E561E556C000E19
:101F500056225722582259505A10D8A408D055500A
:101F6000561057105810D8A402D0594A5A2A010EB8
:101F70005E6E5E50040DF3504F0F436E43C0F6FF8C
:101F8000100EF76E0900F550555C0900F5505658D3
:101F90000900F55057580900F5505858D8A005D0F9
:101FA0005E2A0A0E5E18D8A4E4D75E50436E446AD7
:101FB0005950435C4450800A456E5A50800A455837
:101FC000D8A010D05E50436E446A4350595C5A50BA
:101FD000800A456E4450800A4558D8B003D05EC090
:101FE00059F05A6A4DC043F0030E4316D8B441D09D
:101FF0003E50D96EDA6A2D0EDF6E3E2A3AD0595025
:10200000040DF3504F0F436E43C0F6FF100EF76EF2
:102010000900F5CF05F00900F5CF06F00900F5CF6E
:1020200007F00A00F5CF08F055C001F056C002F0E5
:1020300057C003F058C004F09FEC20F001C00EF030
:1020400002C00FF003C010F004C011F00A0E126EAF
:10205000000E136E000E146E000E156EF7EC21F0DC
:102060000E50300F5E6E3E50D96EDA6A5EC0DFFFF2
:10207000C4D75906D8A05A065928C1E15A28D8A46D
:10208000BED73F2A3F04436E43C0F6FF100EF76EE3
:102090000800F5CF5EF05E50D8A42AD43E50D96E29
:1020A000DA6A000EDF6E12000001926F000192AF3B
:1020B000E5D0926D9251800A120FD8A080D0000E08
:1020C000746F0A0E736F000E6E6F640E6D6F925117
:1020D0006B6F6C6B6BBF6C0754EC21F06BC071F0D5
:1020E0006CC072F099EC1FF07151030DF3CF8BF0BF
:1020F0001B0E8B278B51280F8C6F8CC0F6FF100E98
:10210000F76E0900F5CF7CF00900F5CF7DF00A00ED
:10211000F5CF7EF0000E746F640E736F9251716F85
:10212000726B71BF720799EC1FF07151030DF3CF01
:102130008DF0360E8D278D51280F8E6F8EC0F6FFD5
:10214000100EF76E0900F5CF79F00900F5CF7AF09F
:102150000A00F5CF7BF01CEC1BF079C08FF07AC041
:1021600090F07BC091F08FC079F090C07AF091C070
:102170007BF0000E6E6F0A0E6D6F92516B6F6C6B81
:102180006BBF6C0754EC21F06B51030DF350280F1B
:102190008B6F8BC0F6FF100EF76E0900F5CF7CF049
:1021A0000900F5CF7DF00A00F5CF7EF01CEC1BF0A6
:1021B00079C088F07AC089F07BC08AF01200925111
:1021C000800A750FD8A047D0000E746F0A0E736F87
:1021D0009251716F726B71BF720799EC1FF0715160
:1021E000030DF3CF8BF01B0E8B278B51280F8C6FB9
:1021F0008CC0F6FF100EF76E0900F5CF79F00900DC
:10220000F5CF7AF00A00F5CF7BF0000E6E6F0A0E64
:102210006D6F92516B6F6C6B6BBF6C0754EC21F060
:102220006B51030DF350280F8D6F8DC0F6FF100E0C
:10223000F76E0900F5CF7CF00900F5CF7DF00A00BC
:10224000F5CF7EF01CEC1BF079C088F07AC089F0E5
:102250007BC08AF012009251030DF350280F8B6F50
:102260008BC0F6FF100EF76E0900F5CF88F009005D
:10227000F5CF89F00A00F5CF8AF012009251800A5A
:10228000120FD8A080D0000E746F0A0E736F000E6C
:102290006E6F640E6D6F92516B6F6C6B6BBF6C07E2
:1022A00054EC21F06BC071F06CC072F099EC1FF02F
:1022B0007151030DF3CF8BF01B0E8B278B51010F48
:1022C0008C6F8CC0F6FF100EF76E0900F5CF7CF016
:1022D0000900F5CF7DF00A00F5CF7EF0000E746F97
:1022E000640E736F9251716F726B71BF720799ECCC
:1022F0001FF07151030DF3CF8DF0360E8D278D51E8
:10230000010F8E6F8EC0F6FF100EF76E0900F5CF2D
:1023100079F00900F5CF7AF00A00F5CF7BF01CECDC
:102320001BF079C08FF07AC090F07BC091F08FC025
:1023300079F090C07AF091C07BF0000E6E6F0A0EBB
:102340006D6F92516B6F6C6B6BBF6C0754EC21F02F
:102350006B51030DF350010F8B6F8BC0F6FF100E06
:10236000F76E0900F5CF7CF00900F5CF7DF00A008B
:10237000F5CF7EF01CEC1BF079C088F07AC089F0B4
:102380007BC08AF012009251800A750FD8A047D006
:10239000000E746F0A0E736F9251716F726B71BF82
:1023A000720799EC1FF07151030DF3CF8BF01B0EE8
:1023B0008B278B51010F8C6F8CC0F6FF100EF76EC0
:1023C0000900F5CF79F00900F5CF7AF00A00F5CFD2
:1023D0007BF0000E6E6F0A0E6D6F92516B6F6C6B1F
:1023E0006BBF6C0754EC21F06B51030DF350010FE0
:1023F0008D6F8DC0F6FF100EF76E0900F5CF7CF0E3
:102400000900F5CF7DF00A00F5CF7EF01CEC1BF043
:1024100079C088F07AC089F07BC08AF012009251AE
:10242000030DF350010F8B6F8BC0F6FF100EF76E8C
:102430000900F5CF88F00900F5CF89F00A00F5CF43
:102440008AF01200286E28AEE5D0286C2850800A49
:10245000120FD8A080D0000E0A6E0A0E096E000E70
:10246000046E640E036E2850016E026A01BE0206FD
:102470008CEC21F001C007F002C008F0DBEC1FF08B
:102480000750030DF3CF21F01B0E21262150280FFA
:10249000226E22C0F6FF100EF76E0900F5CF12F083
:1024A0000900F5CF13F00A00F5CF14F0000E0A6E04
:1024B000640E096E2850076E086A07BE0806DBEC3A
:1024C0001FF00750030DF3CF23F0360E23262350C1
:1024D000280F246E24C0F6FF100EF76E0900F5CF0A
:1024E0000FF00900F5CF10F00A00F5CF11F096ECCF
:1024F0001BF00FC025F010C026F011C027F025C03A
:102500000FF026C010F027C011F0000E046E0A0E66
:10251000036E2850016E026A01BE02068CEC21F0A7
:102520000150030DF350280F216E21C0F6FF100E4D
:10253000F76E0900F5CF12F00900F5CF13F00A008D
:10254000F5CF14F096EC1BF00FC01EF010C01FF07A
:1025500011C020F012002850800A750FD8A047D073
:10256000000E0A6E0A0E096E2850076E086A07BE32
:102570000806DBEC1FF00750030DF3CF21F01B0E14
:1025800021262150280F226E22C0F6FF100EF76E72
:102590000900F5CF0FF00900F5CF10F00A00F5CFD4
:1025A00011F0000E046E0A0E036E2850016E026ACE
:1025B00001BE02068CEC21F00150030DF350280FF0
:1025C000236E23C0F6FF100EF76E0900F5CF12F050
:1025D0000900F5CF13F00A00F5CF14F096EC1BF0CC
:1025E0000FC01EF010C01FF011C020F012002850C4
:1025F000030DF350280F216E21C0F6FF100EF76E69
:102600000900F5CF1EF00900F5CF1FF00A00F5CF45
:1026100020F012002850800A120FD8A080D0000E9F
:102620000A6E0A0E096E000E046E640E036E2850C8
:10263000016E026A01BE02068CEC21F001C007F0B7
:1026400002C008F0DBEC1FF00750030DF3CF21F0C0
:102650001B0E21262150010F226E22C0F6FF100E04
:10266000F76E0900F5CF12F00900F5CF13F00A005C
:10267000F5CF14F0000E0A6E640E096E2850076E36
:10268000086A07BE0806DBEC1FF00750030DF3CF06
:1026900023F0360E23262350010F246E24C0F6FFAC
:1026A000100EF76E0900F5CF0FF00900F5CF10F00E
:1026B0000A00F5CF11F096EC1BF00FC025F010C00A
:1026C00026F011C027F025C00FF026C010F027C05B
:1026D00011F0000E046E0A0E036E2850016E026A9D
:1026E00001BE02068CEC21F00150030DF350010FE6
:1026F000216E21C0F6FF100EF76E0900F5CF12F023
:102700000900F5CF13F00A00F5CF14F096EC1BF09A
:102710000FC01EF010C01FF011C020F01200285092
:10272000800A750FD8A047D0000E0A6E0A0E096EF7
:102730002850076E086A07BE0806DBEC1FF007503A
:10274000030DF3CF21F01B0E21262150010F226E25
:1027500022C0F6FF100EF76E0900F5CF0FF009004A
:10276000F5CF10F00A00F5CF11F0000E046E0A0E3E
:10277000036E2850016E026A01BE02068CEC21F045
:102780000150030DF350010F236E23C0F6FF100E0E
:10279000F76E0900F5CF12F00900F5CF13F00A002B
:1027A000F5CF14F096EC1BF00FC01EF010C01FF018
:1027B00011C020F012002850030DF350010F216EBC
:1027C00021C0F6FF100EF76E0900F5CF1EF00900CC
:1027D000F5CF1FF00A00F5CF20F01200FDEC1CF041
:1027E0000001BE05BF11D8A4ADD05A0EB86FD80EE7
:1027F000B96F420EBA6F060EB56F7D0EB66F420E00
:10280000B76F000EE06F000EE16F000EC36F000E99
:10281000C26FB8C093F0B9C094F0BAC095F06FEC35
:102820001DF093C0A2F094C0A3F0000EA56F000E9F
:10283000A46F000EA76FB40EA66F000EA96F6E0EE8
:10284000A86F010EAB6FFE0EAA6F26EC23F0A2C09C
:10285000C4F0A3C0C5F0C4C0E2F0C551E36FC251DB
:10286000040DF350060F6D6FE00E6E6F000E706F6B
:10287000040E6F6F800EB4EC22F0000E0001C36FE7
:10288000010EC26FB5C093F0B6C094F0B7C095F01A
:102890006FEC1DF093C0A2F094C0A3F0000EA56FE2
:1028A000000EA46F000EA76FB40EA66F000EA96FE6
:1028B0006E0EA86F010EAB6FFE0EAA6F26EC23F012
:1028C000A2C0C4F0A3C0C5F0C4C0E2F0C551E36F1C
:1028D000C251040DF350060F6D6FE00E6E6F000EC7
:1028E000706F040E6F6F800EB4EC22F0010E09ECD5
:1028F00025F0800E09EC25F0CC0E0001A86F770EB4
:10290000A96FB8C0AAF0B9C0ABF0BAC0ACF0BEC0F5
:10291000ADF0BFC0AEF051EC08F0E0EC22F0C00E1C
:1029200009EC25F0CC0E0001A86F940EA96FB5C07C
:10293000AAF0B6C0ABF0B7C0ACF051EC08F0E0ECD8
:1029400022F04ED7020EBE19BF11D8A449D7000EEF
:10295000BF6F000EBE6FA10EB86FDF0EB96F420ED3
:10296000BA6F7B0EB56F390EB66F420EB76F000EA1
:10297000E06F000EE16F000EC36F000EC26FB8C0B3
:1029800093F0B9C094F0BAC095F06FEC1DF093C00D
:10299000A2F094C0A3F0000EA56F000EA46F000E6D
:1029A000A76FB40EA66F000EA96F6E0EA86F010E72
:1029B000AB6FFE0EAA6F26EC23F0A2C0C4F0A3C03A
:1029C000C5F0C4C0E2F0C551E36FC251040DF3502D
:1029D000060F6D6FE00E6E6F000E706F040E6F6F5E
:1029E000800EB4EC22F0000E0001C36F010EC26F26
:1029F000B5C093F0B6C094F0B7C095F06FEC1DF081
:102A000093C0A2F094C0A3F0000EA56F000EA46FB7
:102A1000000EA76FB40EA66F000EA96F6E0EA86F02
:102A2000010EAB6FFE0EAA6F26EC23F0A2C0C4F01D
:102A3000A3C0C5F0C4C0E2F0C551E36FC251040D9C
:102A4000F350060F6D6FE00E6E6F000E706F040E88
:102A50006F6F800EB4EC22F0010E09EC25F0800EB1
:102A600009EC25F0CC0E0001A86F770EA96FB8C055
:102A7000AAF0B9C0ABF0BAC0ACF0BEC0ADF0BFC0F8
:102A8000AEF051EC08F0E0EC22F0C00E09EC25F0BD
:102A9000CC0E0001A86F940EA96FB5C0AAF0B6C005
:102AA000ABF0B7C0ACF051EC08F049D70001956F1E
:102AB0006D0E0001956579D00A0E6F6F640E6B6F15
:102AC000955151EC24F0A8EC23F0030DF3CF8BF0DB
:102AD0001B0E8B278B51280F8C6F8CC0F6FF100EAE
:102AE000F76E0900F5CF7CF00900F5CF7DF00A0004
:102AF000F5CF7EF0640E6F6F9551A8EC23F0030DB7
:102B0000F3CF8DF0360E8D278D51280F8E6F8EC02E
:102B1000F6FF100EF76E0900F5CF79F00900F5CF3A
:102B20007AF00A00F5CF7BF01CEC1BF079C092F034
:102B30007AC093F07BC094F00A0E6B6F955151EC04
:102B400024F0030DF350280F8B6F8BC0F6FF100E8F
:102B5000F76E0900F5CF7CF00900F5CF7DF00A0093
:102B6000F5CF7EF092C079F093C07AF094C07BF0FC
:102B70001CEC1BF079C08FF07AC090F07BC091F014
:102B80008FC079F090C07AF091C07BF0000E7C6F1E
:102B9000000E7D6F3F0E7E6F1CEC1BF079C088F03D
:102BA0007AC089F07BC08AF012000A0E95654DD07C
:102BB0000A0E6B6F955151EC24F0030DF350280F62
:102BC0008B6F8BC0F6FF100EF76E0900F5CF7CF00F
:102BD0000900F5CF7DF00A00F5CF7EF00A0E6F6F89
:102BE0009551A8EC23F0030DF3CF8CF01B0E8C272E
:102BF0008C51280F8D6F8DC0F6FF100EF76E0900F7
:102C0000F5CF79F00900F5CF7AF00A00F5CF7BF027
:102C10001CEC1BF079C092F07AC093F07BC094F06A
:102C200092C079F093C07AF094C07BF0000E7C6F74
:102C3000000E7D6F3F0E7E6F1CEC1BF079C088F09C
:102C40007AC089F07BC08AF012009551030DF350D1
:102C5000280F8B6F8BC0F6FF100EF76E0900F5CFB3
:102C600079F00900F5CF7AF00A00F5CF7BF0000E7D
:102C70007C6F000E7D6F3F0E7E6F1CEC1BF079C0E9
:102C800088F07AC089F07BC08AF012002B6E6D0E3E
:102C90002B6479D00A0E056E640E016E2B5067EC22
:102CA00024F0E4EC23F0030DF3CF21F01B0E2126DA
:102CB0002150280F226E22C0F6FF100EF76E090079
:102CC000F5CF12F00900F5CF13F00A00F5CF14F09C
:102CD000640E056E2B50E4EC23F0030DF3CF23F0CC
:102CE000360E23262350280F246E24C0F6FF100E24
:102CF000F76E0900F5CF0FF00900F5CF10F00A00CC
:102D0000F5CF11F096EC1BF00FC028F010C029F0A1
:102D100011C02AF00A0E016E2B5067EC24F0030D4F
:102D2000F350280F216E21C0F6FF100EF76E090038
:102D3000F5CF12F00900F5CF13F00A00F5CF14F02B
:102D400028C00FF029C010F02AC011F096EC1BF03B
:102D50000FC025F010C026F011C027F025C00FF0DD
:102D600026C010F027C011F0000E126E000E136E78
:102D70003F0E146E96EC1BF00FC01EF010C01FF03B
:102D800011C020F012000A0E2B644DD00A0E016E05
:102D90002B5067EC24F0030DF350280F216E21C057
:102DA000F6FF100EF76E0900F5CF12F00900F5CF0F
:102DB00013F00A00F5CF14F00A0E056E2B50E4EC68
:102DC00023F0030DF3CF22F01B0E22262250280FF2
:102DD000236E23C0F6FF100EF76E0900F5CF0FF03B
:102DE0000900F5CF10F00A00F5CF11F096EC1BF0BA
:102DF0000FC028F010C029F011C02AF028C00FF031
:102E000029C010F02AC011F0000E126E000E136ED1
:102E10003F0E146E96EC1BF00FC01EF010C01FF09A
:102E200011C020F012002B50030DF350280F216E1B
:102E300021C0F6FF100EF76E0900F5CF0FF0090064
:102E4000F5CF10F00A00F5CF11F0000E126E000E53
:102E5000136E3F0E146E96EC1BF00FC01EF010C0E8
:102E60001FF011C020F0120098C09CF09D6B9E6B6B
:102E700097359C3701E39D819C51A16F9BC09CF0CD
:102E80009D6B9E6B9A359C3701E39D819C51A06F91
:102E9000A151D8B40AD0A051A15DD8B00DD0A15194
:102EA000A05D9C6F180E9C6507D099C096F09AC0E3
:102EB00097F09BC098F01200A051D8B40AD0A1514D
:102EC000A05DD8B00DD0A051A15D9C6F180E9C657F
:102ED00007D096C096F097C097F098C098F012006F
:102EE000060E9F6F98BF9F8F9BBF9F8D978FFF0E82
:102EF0009617FF0E9717000E98179A8FFF0E9917C7
:102F0000FF0E9A17000E9B17A051A15DD8B01BD0E1
:102F1000D89099379A379B37A007A151A019D8B4F8
:102F20000DD09F079FC09CF0070E9C17D8B406D009
:102F3000EFD7D890983397339633A12BA051A1198E
:102F4000D8B41FD0F6D7A151A05DD8B01AD0D89070
:102F5000963797379837A107A151A019D8B40DD04B
:102F60009F079FC09CF0070E9C17D8B406D0EFD7E0
:102F7000D8909B339A339933A02BA051A119D8A490
:102F8000F7D79FAF0CD0FF0E961BFF0E971BFF0EBF
:102F9000981B010E9627000E9723000E98239FADD5
:102FA0000CD0FF0E991BFF0E9A1BFF0E9B1B010EF0
:102FB0009927000E9A23000E9B23000E9F6F9651B7
:102FC000992797519A2398519B239BAF0ED0FF0EC0
:102FD000991BFF0E9A1BFF0E9B1B010E9927000EDB
:102FE0009A23000E9B23010E9F6F99C06BF09AC02D
:102FF0006CF09BC06DF0A1C06EF09FC06FF043EC11
:103000001EF06BC096F06CC097F06DC098F0120087
:103010002EC032F0336A346A2D34323601E3338005
:103020003250376E31C032F0336A346A303432365F
:1030300001E333803250366E3750D8B40AD0365060
:10304000375CD8B00DD03750365C326E180E326413
:1030500007D02FC02CF030C02DF031C02EF0120060
:103060003650D8B40AD03750365CD8B00DD0365070
:10307000375C326E180E326407D02CC02CF02DC095
:103080002DF02EC02EF01200060E356E2EBE358E9F
:1030900031BE358C2D8EFF0E2C16FF0E2D16000E18
:1030A0002E16308EFF0E2F16FF0E3016000E311624
:1030B0003650375CD8B01BD0D8902F3630363136EA
:1030C000360637503618D8B40DD0350635C032F034
:1030D000070E3216D8B406D0EFD7D8902E322D3244
:1030E0002C32372A36503718D8B41FD0F6D737507D
:1030F000365CD8B01AD0D8902C362D362E363706FE
:1031000037503618D8B40DD0350635C032F0070E1A
:103110003216D8B406D0EFD7D890313230322F32B1
:10312000362A36503718D8A4F7D735AE0CD0FF0E54
:103130002C1AFF0E2D1AFF0E2E1A010E2C26000E31
:103140002D22000E2E2235AC0CD0FF0E2F1AFF0EB2
:10315000301AFF0E311A010E2F26000E3022000EFB
:103160003122000E356E2C502F262D5030222E503D
:10317000312231AE0ED0FF0E2F1AFF0E301AFF0E85
:10318000311A010E2F26000E3022000E3122010EC0
:10319000356E2FC001F030C002F031C003F037C0EF
:1031A00004F035C005F09AEC1EF001C02CF002C00E
:1031B0002DF003C02EF01200A2C06BF0A3C06CF083
:1031C000A4C06DF0000E6E6F800E6F6F3F0E706FBB
:1031D000E0EC20F0D8B006D0000EA26F800EA36FF6
:1031E0003F0EA46FC00E6B6F5A0E6C6F450E6D6F65
:1031F000A2C06EF0A3C06FF0A4C070F0E0EC20F0AD
:10320000D8B006D0C00EA26F5A0EA36F450EA46FA1
:10321000780EA76FDF0EA86F8D0EA96F010EAA6F33
:10322000A2C07FF0A3C080F0A4C081F0A7C073F05B
:10323000A8C074F0A9C075F0AAC076F02AEC22F0FC
:1032400073C07CF074C07DF075C07EF08AEC1CF019
:103250007CC093F07DC094F07EC095F06FEC1DF0C3
:1032600093C0A7F094C0A8F095C0A9F096C0AAF0AA
:10327000000EA727080EA823000EA923000EAA23DC
:103280000C0EA56FD890AA33A933A833A733A52F66
:10329000F9D7A707000EA85BA95BAA5BAA51A911E1
:1032A000A8110CE1030EA75DD8B008D0030EA76FDC
:1032B000000EA86F000EA96F000EAA6FAA51A911E7
:1032C00003E1A805D8A008D0FF0EA76F000EA86FD5
:1032D000000EA96F000EAA6FA7C0A6F0000E6F6FB8
:1032E000000E706F000E726F010E716F800E5EEC3B
:1032F00020F0000E00016D6F100E6E6F800E1DEC41
:1033000024F0FE0E00016D6FA6C06EF0800E1DEC65
:1033100024F0000E00016D6F000E6E6F800E1DEC2C
:1033200024F01A0E0001A56FF80EE82EFED7A52F87
:10333000FCD700F0000E00016D6FA00E6E6F800EC6
:103340001DEC24F012006DC071F0726B736B6C3564
:10335000713701E372817151796F7951D8A409D025
:10336000000E6B6F000E6C6F000E6D6F000E6E6FB7
:10337000120070C071F0726B736B6F35713701E3BF
:1033800072817151786F7851D8B4EAD76C8FFF0E83
:103390006B17FF0E6C17000E6D176F8FFF0E6E17F9
:1033A000FF0E6F17000E7017000E746F000E756F12
:1033B000000E766F000E776F7F0E795F7851980F51
:1033C000795F180E786FD8907437753776377737FE
:1033D0006E516B5D6F516C5970516D59D8A007D00B
:1033E0006E516B5F6F516C5B70516D5B7481D890E7
:1033F0006B376C376D37782FE6D779AF0DD07951B1
:10340000800A970FD8A0ACD7D8907733763375332E
:103410007433793FF9D70DD0170E796507D0A0D74F
:10342000D890743775377637773779077951D8A4BC
:10343000F7D774C06BF075C06CF076C06DF077C0D4
:103440006EF0120003C007F0086A096A02340736FA
:1034500001E3088007500F6E0F50D8A409D0000E6A
:10346000016E000E026E000E036E000E046E12005E
:1034700006C007F0086A096A0534073601E30880C8
:1034800007500E6E0E50D8B4EAD7028EFF0E01160A
:10349000FF0E0216000E0316058EFF0E0416FF0E19
:1034A0000516000E0616000E0A6E000E0B6E000EBC
:1034B0000C6E000E0D6E7F0E0F5E0E50980F0F5E9D
:1034C000180E0E6ED8900A360B360C360D36045098
:1034D000015C0550025806500358D8A007D004508C
:1034E000015E0550025A0650035A0A80D8900136F0
:1034F000023603360E2EE6D70FAE0DD00F50800ADF
:10350000970FD8A0ACD7D8900D320C320B320A32BC
:103510000F3EF9D70DD0170E0F6407D0A0D7D89063
:103520000A360B360C360D360F060F50D8A4F7D7D7
:103530000AC001F00BC002F00CC003F00DC004F093
:10354000120000016D356E35766F7651D8A409D022
:10355000000E6B6F000E6C6F000E6D6F000E6E6FC5
:10356000120070357135756F7551D8B4F1D76D8F04
:10357000FF0E6B17FF0E6C17FF0E6D17000E6E1708
:10358000708FFF0E6E17FF0E6F17FF0E7017000E75
:103590007117000E716F000E726F000E736F000EC8
:1035A000746F7F0E765F7551A00F765F200E756F7A
:1035B000D89071377237733774376E516B5D6F51B6
:1035C0006C5970516D5971516E59D8A009D06E5116
:1035D0006B5F6F516C5B70516D5B71516E5B718194
:1035E000D8906B376C376D376E37752FE1D776AF64
:1035F0000DD07651800A9F0FD8A0AAD7D8907433E7
:10360000733372337133763FF9D70DD01F0E766561
:1036100007D09ED7D89071377237733774377607D3
:103620007651D8A4F7D771C06BF072C06CF073C03C
:103630006DF074C06EF012007BC07FF0806B816B08
:103640007A357F3701E380817F51826F8251D8A420
:1036500007D0000E796F000E7A6F000E7B6F12009C
:103660007EC07FF0806B816B7D357F3701E3808189
:103670007F51876F8751D8A407D0000E796F000E55
:103680007A6F000E7B6F120087517B0F82277BC001
:1036900087F07E51871B800E87177A8F7D8FFF0EF4
:1036A0007C17FF0E7D17000E7E17000E836F000E35
:1036B000846F000E856F070E866F79A106D07C514E
:1036C00083277D5184237E518523D8907B337A33A1
:1036D0007933D8907C377D377E37862FEED7090E29
:1036E000866F79A106D07C5183277D5184237E513A
:1036F0008523D8907B337A337933D89085338433DC
:103700008333862FEED783C06BF084C06CF085C006
:103710006DF082C06EF087C06FF043EC1EF06BC09E
:1037200079F06CC07AF06DC07BF0120011C015F01A
:10373000166A176A1034153601E316801550186E94
:103740001850D8A407D0000E0F6E000E106E000E99
:10375000116E120014C015F0166A176A133415366C
:1037600001E3168015501D6E1D50D8A407D0000E21
:103770000F6E000E106E000E116E12001D507B0FAA
:10378000182611C01DF014501D1A800E1D16108E23
:10379000138EFF0E1216FF0E1316000E1416000ED7
:1037A000196E000E1A6E000E1B6E070E1C6E0FA017
:1037B00006D01250192613501A2214501B22D890EA
:1037C000113210320F32D8901236133614361C2EA6
:1037D000EED7090E1C6E0FA006D0125019261350FA
:1037E0001A2214501B22D890113210320F32D89066
:1037F0001B321A3219321C2EEED719C001F01AC032
:1038000002F01BC003F018C004F01DC005F09AECD4
:103810001EF001C00FF002C010F003C011F0120042
:10382000033404340C6E0C50D8A409D0000E016E81
:10383000000E026E000E036E000E046E12000634BF
:1038400007340B6E0B50D8B4F1D7038EFF0E011660
:10385000FF0E0216FF0E0316000E0416068EFF0E54
:103860000416FF0E0516FF0E0616000E0716000EB4
:10387000076E000E086E000E096E000E0A6E7F0EB7
:103880000C5E0B50A00F0C5E200E0B6ED89007360E
:10389000083609360A360450015C055002580650B5
:1038A000035807500458D8A009D00450015E0550B1
:1038B000025A0650035A0750045A0780D89001361E
:1038C0000236033604360B2EE1D70CAE0DD00C5069
:1038D000800A9F0FD8A0AAD7D8900A32093208329E
:1038E00007320C3EF9D70DD01F0E0C6407D09ED7BF
:1038F000D8900736083609360A360C060C50D8A47C
:10390000F7D707C001F008C002F009C003F00AC0F1
:1039100004F012007EC082F0836B846B7D358237A9
:1039200001E383818251896F8951D8A407D0000EA9
:103930007C6F000E7D6F000E7E6F120081C082F0E2
:10394000836B846B8035823701E3838182518A6F78
:103950008A51D8A407D0000E7C6F000E7D6F000E38
:103960007E6F1200000E866F000E876F000E886F4C
:103970008A51890F895F7EC08AF081518A1B800E2F
:103980008A177D8FFF0E7C17FF0E7D17000E7E17A6
:10399000808FFF0E7F17FF0E8017000E8117180E05
:1039A000856FD8908637873788377F517C5D805107
:1039B0007D5981517E59D8A007D07F517C5F8051BD
:1039C0007D5B81517E5B8681D8907C377D377E37E9
:1039D000852FE7D786C06BF087C06CF088C06DF08C
:1039E00089C06EF08AC06FF043EC1EF06BC07CF0B3
:1039F0006CC07DF06DC07EF01200720ED36E000EB2
:103A00000F013B6F000E3C6F000E3A6F000E956E7B
:103A1000000E966E000E8C6E000E8D6E000E396FCD
:103A2000010E936E020E09EC25F0060E09EC25F04E
:103A30000F0E09EC25F0280E09EC25F0010E09EC1B
:103A400025F0949C948E190EAF6E900EAB6E200EE6
:103A5000AC6EF28EF28C9D8A9E9A94869488800E2B
:103A6000C76E280EC66E000EC56E000ECB6E270EFA
:103A7000C86E000E00016D6F800E6E6F800E1DEC23
:103A800024F0340E0001AB6FF10EE82EFED7AB2F01
:103A9000FCD700D0000E0001A26F7A0EA36F440E77
:103AA000A46FDCEC18F0000E0001A26F480EA36FAB
:103AB000420EA46FDCEC18F0070E0001AC6F170E7D
:103AC000AB6F6A0EE82EFED7AB2FFCD7AC2FFAD720
:103AD00000F08C8C8C8EF086F090F19A120095C0DC
:103AE00097F00001986B996B9435973701E39881B3
:103AF0009751A16FA151D8A409D0000E936F000E69
:103B0000946F000E956F000E966F1200170E976F50
:103B100093C098F094C099F095C09AF097299B6F44
:103B200004D0D8909A33993398339B2FFAD7000159
:103B300098519C6F948FFF0E9317FF0E9417000EF1
:103B4000951793519D6F94519E6F95519F6FA06BE8
:103B50008E0EA15FA1AF0DD0A151800A8F0FD8A00A
:103B6000CCD7D890A0339F339E339D33A13FF9D754
:103B70000DD0170EA16507D0C0D7D8909D379E37BE
:103B80009F37A037A107A151D8A4F7D79C51D8B42B
:103B900008D0A01F9F1F9E1F9D6D000E9E239F2378
:103BA000A0239DC093F09EC094F09FC095F0A0C04C
:103BB00096F0120020C022F0236A246A1F342236B5
:103BC00001E3238022502C6E2C50D8A409D0000E83
:103BD0001E6E000E1F6E000E206E000E216E120073
:103BE000170E226E1EC023F01FC024F020C025F047
:103BF0002228266E04D0D890253224322332262E55
:103C0000FAD72350276E1F8EFF0E1E16FF0E1F16AB
:103C1000000E20161E50286E1F50296E20502A6E4E
:103C20002B6A8E0E2C5E2CAE0DD02C50800A8F0F7E
:103C3000D8A0CDD7D8902B322A32293228322C3E28
:103C4000F9D70DD0170E2C6407D0C1D7D8902836DD
:103C500029362A362B362C062C50D8A4F7D72750D5
:103C6000D8B408D02B1E2A1E291E286C000E29222B
:103C70002A222B2228C01EF029C01FF02AC020F0C3
:103C80002BC021F012006E51D8B405D06B516C11CD
:103C90006D11D8A40CD0000E6B6F000E6C6F000E6F
:103CA0006D6F12006E2BD8906D336C336B33000E3A
:103CB0006B15706F000E6C15716FFE0E6D15726FC7
:103CC000705171117211D8B40CD0ECD76E2B010E5B
:103CD0006B27000E6C23000E6D23D8906D336C3370
:103CE0006B33000E6B15706F000E6C15716FFF0E4D
:103CF0006D15726F705171117211D8B406D0E6D77C
:103D00006E07D8906B376C376D376CBF03D0020EDF
:103D10006E61F6D76EA16C9FD8906E336E516D13A5
:103D20006F51D8A46D8F6BC06BF06CC06CF06DC020
:103D30006DF012000450D8B405D0015002100310E9
:103D4000D8A40CD0000E016E000E026E000E036EA1
:103D50001200042AD890033202320132000E0114FC
:103D6000066E000E0214076EFE0E0314086E065057
:103D700007100810D8B40CD0ECD7042A010E012685
:103D8000000E0222000E0322D890033202320132CA
:103D9000000E0114066E000E0214076EFF0E0314CF
:103DA000086E065007100810D8B406D0E6D70406EF
:103DB000D89001360236033602BE03D0020E0460EC
:103DC000F6D704A0029ED890043204500312055086
:103DD000D8A4038E01C001F002C002F003C003F0BA
:103DE00012006C6F8D800D0EE82EFED700F06CC0B7
:103DF0006BF0010E00016B178C506B19FE0B6B19E9
:103E00008C6E0D0EE82EFED700F06CC06BF000013A
:103E1000D8906B33010E6B176B478C506B19FD0BF1
:103E20006B198C6E0D0EE82EFED700F06CC06BF097
:103E30000001D8906B33D8906B33010E6B176B4732
:103E40006B478C506B19FB0B6B198C6E0D0EE82EAB
:103E5000FED700F06CC06BF00001D8906B33D890A7
:103E60006B33D8906B33010E6B176B476B476B4707
:103E70008C506B19F70B6B198C6E0D0EE82EFED75C
:103E800000F08D900D0EE82EFED700F01200026EAD
:103E90008D800D0EE82EFED700F002C001F0010E5D
:103EA00001168C500118FE0B01188C6E0D0EE82EB9
:103EB000FED700F002C001F0D8900132010E0116C9
:103EC00001468C500118FD0B01188C6E0D0EE82E6A
:103ED000FED700F002C001F0D8900132D890013234
:103EE000010E0116014601468C500118FB0B01180A
:103EF0008C6E0D0EE82EFED700F002C001F0D890B7
:103F00000132D8900132D8900132010E01160146DB
:103F1000014601468C500118F70B01188C6E0D0EEE
:103F2000E82EFED700F08D900D0EE82EFED700F0A3
:103F30001200000E766F74AF06D0736D741FD8B088
:103F4000742B010E766F72AF06D0716D721FD8B0F0
:103F5000722B010E761B000E786F000E776F735177
:103F60007411D8B41CD0010E756F04D0D89073377B
:103F70007437752B74AFFAD7D89077377837735179
:103F8000715D74517259D8A005D07351715F74512D
:103F9000725B7781D89074337333752FEDD7765178
:103FA000D8B404D0776D781FD8B0782B77C071F073
:103FB00078C072F01200000E0C6E0AAE06D0096CCA
:103FC0000A1ED8B00A2A010E0C6E08AE06D0076C85
:103FD000081ED8B0082A010E0C1A000E0E6E000E34
:103FE0000D6E09500A10D8B41CD0010E0B6E04D00F
:103FF000D89009360A360B2A0AAEFAD7D8900D3671
:104000000E360950075C0A500858D8A005D0095050
:10401000075E0A50085A0D80D8900A3209320B2EDA
:10402000EDD70C50D8B404D00D6C0E1ED8B00E2AAB
:104030000DC007F00EC008F01200000E736F000EE6
:10404000746F000E756F000E766F6F5170117111E5
:104050007211D8B42AD0010E776F06D0D8906F377E
:10406000703771377237772B72AFF8D7D8907337B4
:104070007437753776376F516B5D70516C5971516C
:104080006D5972516E59D8A009D06F516B5F705144
:104090006C5B71516D5B72516E5B7381D890723342
:1040A000713370336F33772FE1D773C06BF074C007
:1040B0006CF075C06DF076C06EF01200756F5DEC3F
:1040C00025F075514DEC25F06F514DEC25F061EC6C
:1040D00025F0755101094DEC25F0000EC96F000E59
:1040E000C86F18D0010EC825736F000EC921746FF8
:1040F0007151731908E172517419D8A404D0010EDA
:10410000C6EC23F003D0000EC6EC23F0706F702BCA
:10411000C84BC92B7151C85D7251C959D8A0E2D79B
:1041200059EC25F0030E0001746F080E736F770EC3
:10413000E82EFED7732FFCD7742FFAD71200000E8B
:10414000096E000E0A6E000E0B6E000E0C6E05500E
:10415000061007100810D8B42AD0010E0D6E06D034
:10416000D89005360636073608360D2A08AEF8D739
:10417000D89009360A360B360C360550015C0650CD
:1041800002580750035808500458D8A009D00550C9
:10419000015E0650025A0750035A0850045A09801B
:1041A000D89008320732063205320D2EE1D709C009
:1041B00001F00AC002F00BC003F00CC004F01200C2
:1041C0006DAF0FD0000E716F000E726F800E736FA7
:1041D0006B51715D6B6F6C5172596C6F6D5173598E
:1041E0006D6F70AF0FD0000E716F000E726F800E8A
:1041F000736F6E51715D6E6F6F5172596F6F705149
:104200007359706F000E6B1B000E6C1B800E6D1BC4
:10421000000E6E1B000E6F1B800E701B6E516B5DCF
:104220006F516C5970516D59D8B002D0D8901200AE
:10423000D880120003AE0FD0000E076E000E086E7D
:10424000800E096E0150075C016E02500858026E24
:1042500003500958036E06AE0FD0000E076E000E15
:10426000086E800E096E0450075C046E05500858F5
:10427000056E06500958066E000E011A000E021A4D
:10428000800E031A000E041A000E051A800E061A7C
:104290000450015C0550025806500358D8B002D0B3
:1042A000D8901200D8801200000E706F6CAF06D04C
:1042B0006B6D6C1FD8B06C2B010E706F6EAF04D09D
:1042C0006D6D6E1FD8B06E2B6D516E11D8B418D0B5
:1042D000010E6F6F04D0D8906D376E376F2B6EAFB5
:1042E000FAD76D516B5D6E516C59D8A004D06D51E9
:1042F0006B5F6E516C5BD8906E336D336F2FF1D75F
:104300007051D8B404D06B6D6C1FD8B06C2B6BC0DF
:104310006BF06CC06CF01200000E066E02AE06D0A0
:10432000016C021ED8B0022A010E066E04AE04D043
:10433000036C041ED8B0042A03500410D8B418D05B
:10434000010E056E04D0D89003360436052A04AE5B
:10435000FAD70350015C04500258D8A004D003508F
:10436000015E0450025AD89004320332052EF1D770
:104370000650D8B404D0016C021ED8B0022A01C085
:1043800001F002C002F012007C517D117E117F11FC
:10439000D8B424D0010E806F06D0D8907C377D37FA
:1043A0007E377F37802B7FAFF8D77C51785D7D518A
:1043B00079597E517A597F517B59D8A008D07C51C8
:1043C000785F7D51795B7E517A5B7F517B5BD890C2
:1043D0007F337E337D337C33802FE7D778C078F00E
:1043E00079C079F07AC07AF07BC07BF0120012506D
:1043F000131014101510D8B424D0010E166E06D068
:10440000D8901236133614361536162A15AEF8D74C
:1044100012500E5C13500F5814501058155011586C
:10442000D8A008D012500E5E13500F5A1450105AD4
:104430001550115AD8901532143213321232162EEA
:10444000E7D70EC00EF00FC00FF010C010F011C073
:1044500011F012008E0E7B6F06D0D8907633753334
:10446000743373337B2B000E7315776F000E741546
:10447000786F000E7515796FFF0E76157A6F77518C
:10448000781179117A11D8A4E8D773C06BF074C091
:104490006CF075C06DF07BC06EF0000E6F6F43EC7A
:1044A0001EF06BC073F06CC074F06DC075F012003C
:1044B000096E69EC25F0095053EC25F0035053ECDC
:1044C00025F0000E0001C96F000EC86F0AD004501D
:1044D000D96EDA6ADF5053EC25F0042A0001C84B8C
:1044E000C92B0550C85D0650C959D8A0F0D765EC56
:1044F00025F0030E086E080E076E770EE82EFED725
:10450000072EFCD7082EFAD700F012008E0E116E7F
:1045100006D0D8900C320B320A320932112A000E22
:1045200009140D6E000E0A140E6E000E0B140F6EA1
:10453000FF0E0C14106E0D500E100F101010D8A49A
:10454000E8D709C001F00AC002F00BC003F011C0A7
:1045500004F0000E056E9AEC1EF001C009F002C0D6
:104560000AF003C00BF01200736F5DEC25F073517D
:104570004DEC25F06D514DEC25F0000EC96F000E8D
:10458000C86F09D06E51D96EDA6ADF504DEC25F054
:104590006E2BC84BC92B6F51C85D7051C959D8A03B
:1045A000F1D759EC25F0030E0001726F080E716F00
:1045B000770EE82EFED7712FFCD7722FFAD7120094
:1045C000000E0001C96F000EC86F0AD0C851CC0F91
:1045D000D96EDA6ADF5017EC25F00001C84BC92B01
:1045E000FF0E6E6FFF0E6F6FCC0E6B6FD8EC24F06A
:1045F0006E516B276F516C23C8516B5DC9516C595B
:10460000D8A01200E3D7000E0001C96F000EC86FDA
:104610000AD0C851CC0FD96EDA6ADF502FEC25F0E2
:104620000001C84BC92BFF0E046EFF0E056ECC0EA9
:10463000016EE9EC24F00450012605500222C85115
:10464000015CC9510258D8A01200E3D7A451A25D61
:10465000796FA551A3597A6FA451A65D736FA551C7
:10466000A759746FA851AA5D716FA951AB59726FA8
:1046700099EC1FF071C07BF072C07CF08FEC24F0DD
:10468000A8517925A26FA9517A21A36F12002F504A
:104690002D5C0F6E30502E58106E2F50315C096E0D
:1046A000305032580A6E3350355C076E34503658ED
:1046B000086EDBEC1FF007C011F008C012F0A2EC8E
:1046C00024F033500F242D6E345010202E6E120023
:1046D000A551A611A711D8B406D0000EA51B000E37
:1046E000A61B800EA71BA2C096F0A3C097F0A4C083
:1046F00098F0A5C099F0A6C09AF0A7C09BF034EC42
:1047000017F096C0A2F097C0A3F098C0A4F01200D2
:104710003B503C103D10D8B406D0000E3B1A000EA2
:104720003C1A800E3D1A38C02CF039C02DF03AC02A
:104730002EF03BC02FF03CC030F03DC031F008EC13
:1047400018F02CC038F02DC039F02EC03AF012000D
:10475000706F000E0001726F6F51D8B415D0010E4A
:10476000716F03D0D8906F37712B6FAFFBD7D89094
:1047700072376F51705DD8A003D06F51705F728136
:10478000D8906F33712FF3D7725112006D6F3AECDE
:1047900025F0C5863AEC25F0C9CF6EF03AEC25F04D
:1047A0006D05D8A403D06C6B6C2B02D000016C6B30
:1047B0006C3B6C47C5506C19DF0B6C19C56EC58816
:1047C0003AEC25F06E511200066E000E086E055090
:1047D000D8B415D0010E076E03D0D8900536072A3D
:1047E00005AEFBD7D89008360550065CD8A003D09C
:1047F0000550065E0880D8900532072EF3D7085082
:104800001200000E0C6E0AAE06D0096C0A1ED8B05B
:104810000A2A010E0C6E09C001F00AC002F0036AF8
:104820008E0E046E0CC005F09AEC1EF001C009F06B
:1048300002C00AF003C00BF01200716F5DEC25F0AE
:1048400071514DEC25F06D514DEC25F06E514DEC54
:1048500025F059EC25F0030E0001706F080E6F6F04
:10486000770EE82EFED76F2FFCD7702FFAD71200E5
:10487000DA0EF66E4A0EF76E000EF86E0900F5CFEE
:10488000E4F00900F5CFE5F000EEB5F02F0EEE6A8A
:10489000E806FDE15F905F92000EF86E0001EEEF1A
:1048A00013F06C6F080E00016D6F000E6E6FD890E4
:1048B0006C356E356E6FD8906C376B516E5DD8A0CD
:1048C00002D06B516E5F6D2FF2D76E511200026EE7
:1048D000080E036E000E046ED89002340434046E89
:1048E000D89002360150045CD8A002D00150045E7A
:1048F000032EF2D70450120000016B516C116D11A0
:10490000D8B406D0000E6B1B000E6C1B800E6D1B06
:104910006BC06BF06CC06CF06DC06DF01200795123
:104920007B03F3CF7DF0F4CF7EF079517C03F3501D
:104930007E277A517B03F3507E277DC079F07EC0BD
:104940007AF012000F501102F3CF13F0F4CF14F0ED
:104950000F501202F350142610501102F350142677
:1049600013C00FF014C010F0120001500210031019
:10497000D8B406D0000E011A000E021A800E031AD7
:1049800001C001F002C002F003C003F012000001F8
:104990006D6F000E00016C6F3A0E6D6105D02F0E29
:1049A0006D6502D0010E6C6F6CC06BF06B31120044
:1049B0006BC06DF001D06D2B6D51D96EDA6ADF508E
:1049C000D8A4F9D76B516D5D6B6F6C6B6BBF6C07C7
:1049D000120001C003F001D0032A0350D96EDA6A35
:1049E000DF50D8A4F9D70150035C016E026A01BE02
:1049F00002061200036E000E026E3A0E036005D02E
:104A00002F0E036402D0010E026E02C001F00130CD
:104A1000120000016D6F8D9200016D390F0BF1ECEA
:104A20001EF000016D510F0BF1EC1EF012006D6FC6
:104A30008D8200016D390F0BF1EC1EF000016D51FC
:104A40000F0BF1EC1EF01200036E8D9203380F0B6A
:104A500047EC1FF003500F0B47EC1FF01200036EE2
:104A60008D8203380F0B47EC1FF003500F0B47EC00
:104A70001FF01200C5CF6BF01F0E00016B17D8A4FA
:104A8000F9D7C7A41200F6D7C5CF01F01F0E011643
:104A9000D8A4FAD7C7A41200F7D76C6F3AEC25F068
:104AA0006CC0C9FF1200026E44EC25F002C0C9FFC1
:104AB00012003AEC25F0C58412003AEC25F0C580CE
:104AC00012003AEC25F0C582120044EC25F0C584B2
:0C4AD000120044EC25F0C580120001002B
:020000040020DA
:08000000FFFFFFFFFFFFFFFF00
:020000040030CA
:0E000000FF281F3CFFBF81FF0FC00FE00F4025
:00000001FF
