:04000000DCEF01F040
:100008005F82D9CF60F0DACF61F0F3CF62F0F4CF3E
:1000180063F0F6CF64F0F7CF65F0F8CF66F0F5CF70
:1000280067F09EAAB3D1AECF68F0410E00016819FF
:10003800D8B404D0420E6819D8A403D068C0B9F067
:10004800A5D1300E6819D8B424D0310E6819D8B4A7
:1000580020D0320E6819D8B41CD0330E6819D8B421
:1000680018D0340E6819D8B414D0350E6819D8B41D
:1000780010D0360E6819D8B40CD0370E6819D8B419
:1000880008D0380E6819D8B404D0390E6819D8A425
:10009800B0D0D605D711D8A413D0D00E6825096ED4
:1000A8000A6AFF0E0A2222EC17F009C0A9F00AC05A
:1000B800AAF00BC0ABF0000E0001D76F020EA0D063
:1000C800020ED619D711D8A42CD0000E126E200E0D
:1000D800136E410E146EA9C00FF0AAC010F0ABC089
:1000E80011F074EC10F00FC02CF010C02DF011C0FE
:1000F8002EF0D00E00016825096E0A6AFF0E0A224A
:1001080022EC17F009C02FF00AC030F00BC031F014
:100118005DEC0EF02CC0A9F02DC0AAF02EC0ABF0FB
:1001280035D1030ED619D711D8A42FD0CD0E126E03
:10013800CC0E136E3D0E146ED00E6825096E0A6A39
:10014800FF0E0A2222EC17F009C00FF00AC010F0C7
:100158000BC011F074EC10F00FC02CF010C02DF093
:1001680011C02EF0A9C02FF0AAC030F0ABC031F0FA
:100178005DEC0EF02CC0A9F02DC0AAF02EC0ABF09B
:10018800000E0001D76F040E3BD0040ED619D7110C
:10019800D8A4FCD0D70E126E230E136E3C0E146E2C
:1001A800D00E6825096E0A6AFF0E0A2222EC17F0A3
:1001B80009C00FF00AC010F00BC011F074EC10F079
:1001C8000FC02CF010C02DF011C02EF0A9C02FF0D8
:1001D800AAC030F0ABC031F05DEC0EF02CC0A9F035
:1001E8002DC0AAF02EC0ABF0000E0001D76F050E8F
:1001F80007D02E0E6819D8A405D0000ED76F030EAD
:10020800D66FC4D04F0E6819D8A420D0410EB919A2
:10021800D8A407D0A9C0A6F0AAC0A7F0ABC0A8F080
:100228000AD0420EB919D8A406D0A9C0A3F0AAC012
:10023800A4F0ABC0A5F0000ED76F010ED66F000E6C
:10024800A96F000EAA6F000EAB6FA0D04B0E6819F5
:10025800D8A49CD0010ECEEC17F0800ECEEC17F08F
:10026800BA0E3E6E770E3F6EA6C040F0A7C041F0B2
:10027800A8C042F049EC08F061EC16F0C00ECEECD4
:1002880017F0BA0E3E6E840E3F6EA3C040F0A4C0B5
:1002980041F0A5C042F049EC08F061EC16F0000E00
:1002A800D26F000ED36F000EB16F000EB06FA6C0F4
:1002B80029F0A7C02AF0A8C02BF0AFEC12F029C093
:1002C80038F02AC039F0000E3B6E000E3A6E000E70
:1002D8003D6EB40E3C6E000E3F6E6E0E3E6E010E0D
:1002E800416EFE0E406EA6EC16F038C0B2F039C072
:1002F800B3F0B2C0D4F00001B351D56F000EAF6FA8
:10030800010EAE6FA3C029F0A4C02AF0A5C02BF03F
:10031800AFEC12F029C038F02AC039F0000E3B6E5D
:10032800000E3A6E000E3D6EB40E3C6E000E3F6E2F
:100338006E0E3E6E010E416EFE0E406EA6EC16F07D
:1003480038C0B2F039C0B3F0B2C0D0F00001B35138
:10035800D16FB051040DF350060F036ED20E046E28
:10036800000E066E040E056E800E84EC16F0000179
:10037800AE51040DF350060F036ECE0E046E000E40
:10038800066E040E056E800E84EC16F067C0F5FF4D
:1003980066C0F8FF65C0F7FF64C0F6FF63C0F4FFEE
:1003A80062C0F3FF61C0DAFF60C0D9FF5F9211003D
:0403B8003EEF17F00D
:101000000000803F00204100C842007A44401C4656
:1010100050C34724744997184BBCBE4C6B6E4E03AB
:10102000155079AD60F3497100803FCDCC3DD72399
:101030003C12833AB7D138C62737388635C0D63305
:10104000CC2B32708930E7DB2EE53C1E42A20D012D
:101050000000000A00000064000000E80300001027
:10106000270000A086010040420F008096980000F3
:10107000E1F50500CA9A3B536572766F20313A2537
:101080002E326600536572766F20323A252E326614
:101090000000400E4C6E44D3250E5E18D8B407D025
:1010A0003E50D96EDA6A5EC0DFFF3E2A39D3000EA9
:1010B0004E6E000E4D6E3FC0F6FF100EF76E08002C
:1010C000F5502E0AD8A435D04E8C3F2A000E5A6E09
:1010D000000E596E23D059C00FF05AC010F0000E08
:1010E000126E0A0E116E6CEC17F00FC059F010C0A2
:1010F0005AF0D00E436EFF0E446E3FC0F6FF100E46
:10110000F76E0800F550456E466A43504526445038
:1011100046224550592646505A223F2A3FC0F6FFE4
:10112000100EF76E0800F550B1EC17F0D8A009D0FA
:10113000D2D7000E5A6E000E596E4E8802D04E84E1
:1011400012D03F2A3F04436E43C0F6FF100EF76EE5
:101150000800F5CF5EF05E50000AD8B4EED2660A01
:10116000D8B4EDD7DDD2070E4E14D8B4A9D24EA80C
:1011700004D0000E5A6E060E596E4C50D96EDA6AC3
:10118000DECF5BF0DECF5CF0DDCF5DF0030E4C26F2
:101190005DAE10D05BC001F05CC002F05DC003F03A
:1011A0007FEC17F001C05BF002C05CF003C05DF0A3
:1011B000030E4D12000E546E000E536E5B505C1009
:1011C0005D10D8B483D0820E436EFF0E446E5BC0B8
:1011D00045F05CC046F05DC047F05EC048F0100EC0
:1011E00005D0D8904832473246324532E82EF9D7FA
:1011F00045504324536E000E4420546E5306D8A02D
:10120000540653C00FF054C010F0000E126E030EBF
:10121000116E6CEC17F00FC053F010C054F053C0B7
:1012200007F054C008F0000E0A6E0A0E096E6EEC4C
:1012300014F007C053F008C054F054AE03D0530666
:10124000D8A0540653500008A3EC0BF01EC055F074
:101250001FC056F020C057F055C00FF056C010F018
:1012600057C011F05BC012F05CC013F05DC014F009
:1012700074EC10F00FC055F010C056F011C057F0CC
:1012800055C001F056C002F057C003F0000E046EC6
:10129000800E056E3F0E066E2BEC15F0D8B004D014
:1012A0005306D8A0540612D055C001F056C002F023
:1012B00057C003F0000E046E200E056E410E066E40
:1012C0002BEC15F0D8A002D0534A542A5ABE06D0AF
:1012D0005A501BE10D0E595CD8B017D05BC02CF0F2
:1012E0005CC02DF05DC02EF059506FEC0DF01EC0AB
:1012F0002FF01FC030F020C031F05DEC0EF02CC09C
:101300005BF02DC05CF02EC05DF054BE06D0545092
:101310001EE10A0E535CD8B01AD05B505C105D1011
:10132000D8B451D05BC029F05CC02AF05DC02BF06E
:10133000AFEC12F029502A102B102C10D8B454BE48
:1013400042D0545004E1020E535CD8A03CD055C0AA
:1013500001F056C002F057C003F0700E046E890E03
:10136000056E400E066E2BEC15F0D8B002D0F70ECD
:1013700001D0F80E5326FF0E54225350A3EC0BF06D
:101380001EC055F01FC056F020C057F05BC001F0E2
:101390005CC002F05DC003F055C004F056C005F01B
:1013A00057C006F0F5EC0FF001C04FF002C050F04E
:1013B00003C051F004C052F0000E5B6E000E5C6E74
:1013C000000E5D6E32D05BC029F05CC02AF05DC0BB
:1013D0002BF0AFEC12F029C04FF02AC050F02BC018
:1013E00051F02CC052F05BC038F05CC039F05DC0E9
:1013F0003AF04FC009F050C00AF051C00BF052C093
:101400000CF033EC16F009C03BF00AC03CF00BC006
:101410003DF0C7EC16F038C05BF039C05CF03AC064
:101420005DF0000E546E000E536E010E5E6E5E5047
:10143000040DF3504F0F436E43C0F6FF100EF76ECE
:101440000900F5504F5C0900F55050580900F5505F
:1014500051580900F5505258D8A005D05E2A0A0EFE
:101460005E18D8A4E4D74DC043F0030E4316D8B499
:101470004ED03E50D96EDA6A2D0EDF6E3E2A47D02E
:101480004FC001F050C002F051C003F052C004F050
:101490005E50040DF3504F0F436E43C0F6FF100E25
:1014A000F76E0900F5CF05F00900F5CF06F0090049
:1014B000F5CF07F00A00F5CF08F0B0EC14F001C04A
:1014C00055F002C056F003C057F004C058F055C0A4
:1014D00001F056C002F057C003F058C004F00A0EE5
:1014E000056E000E066E000E076E000E086ED2EC42
:1014F00015F001C055F002C056F003C057F004C00B
:1015000058F03E50D96EDA6A5550300FB6D75E06A5
:101510005E28D8B40AD0B4D73E50D96EDA6A300EFD
:10152000DF6E3E2A5306D8A0540654BE05D0545050
:10153000F3E15304D8B0F0D75ABE09D05A5004E1B1
:10154000090E595CD8A003D0080E5E6E02D059C0B7
:101550005EF05E50595E000E5A5A5E50D8B406D006
:101560003E50D96EDA6A2E0EDF6E3E2A5E50A3EC34
:101570000BF01EC049F01FC04AF020C04BF05BC00A
:1015800012F05CC013F05DC014F049C00FF04AC007
:1015900010F04BC011F074EC10F00FC029F010C027
:1015A0002AF011C02BF0AFEC12F029C04FF02AC086
:1015B00050F02BC051F02CC052F06FD04FC001F052
:1015C00050C002F051C003F052C004F05E50040D50
:1015D000F3504F0F436E43C0F6FF100EF76E090035
:1015E000F5CF05F00900F5CF06F00900F5CF07F0BB
:1015F0000A00F5CF08F0B0EC14F001C055F002C0BD
:1016000056F003C057F004C058F055C001F056C062
:1016100002F057C003F058C004F00A0E056E000E29
:10162000066E000E076E000E086ED2EC15F001C0BB
:1016300055F002C056F003C057F004C058F03E50B9
:10164000D96EDA6A5550300FDF6E3E2A4FC001F076
:1016500050C002F051C003F052C004F05E50040DBF
:10166000F3504F0F436E43C0F6FF100EF76E0900A4
:10167000F5CF05F00900F5CF06F00900F5CF07F02A
:101680000A00F5CF08F0D2EC15F001C04FF002C00F
:1016900050F003C051F004C052F05E065E28D8B48A
:1016A0000AD08CD73E50D96EDA6A300EDF6E3E2AF1
:1016B0005906D8A05A0659505A10D8B431D0F2D78A
:1016C00059505A10D8A408D04F50501051105210F1
:1016D000D8A402D0594A5A2A5E50436E446A5950DF
:1016E000435C4450800A456E5A50800A4558D8A041
:1016F0000BD05E50436E446A4350595C5A50800A86
:10170000456E4450800A45584DC043F0030E4316C1
:10171000D8B406D03E50D96EDA6A2D0EDF6EC5D42D
:101720003F2A3F04436E43C0F6FF100EF76E0800D9
:10173000F5CF5EF05E50D8A4AFD43E50D96EDA6AD1
:10174000000EDF6E1200286E28AEE5D0286C2850FF
:10175000800A120FD8A080D0000E0A6E0A0E096E01
:10176000000E046E640E036E2850016E026A01BE04
:10177000020665EC15F001C007F002C008F06EEC3F
:1017800014F00750030DF3CF21F01B0E212621503A
:10179000280F226E22C0F6FF100EF76E0900F5CF5B
:1017A00012F00900F5CF13F00A00F5CF14F0000E87
:1017B0000A6E640E096E2850076E086A07BE080696
:1017C0006EEC14F00750030DF3CF23F0360E2326F2
:1017D0002350280F246E24C0F6FF100EF76E090068
:1017E000F5CF0FF00900F5CF10F00A00F5CF11F09A
:1017F00074EC10F00FC025F010C026F011C027F0D7
:1018000025C00FF026C010F027C011F0000E046EA6
:101810000A0E036E2850016E026A01BE020665ECD4
:1018200015F00150030DF350280F216E21C0F6FF73
:10183000100EF76E0900F5CF12F00900F5CF13F086
:101840000A00F5CF14F074EC10F00FC01EF010C0B9
:101850001FF011C020F012002850800A750FD8A088
:1018600047D0000E0A6E0A0E096E2850076E086AED
:1018700007BE08066EEC14F00750030DF3CF21F0FD
:101880001B0E21262150280F226E22C0F6FF100EBB
:10189000F76E0900F5CF0FF00900F5CF10F00A0040
:1018A000F5CF11F0000E046E0A0E036E2850016E83
:1018B000026A01BE020665EC15F00150030DF350FB
:1018C000280F236E23C0F6FF100EF76E0900F5CF28
:1018D00012F00900F5CF13F00A00F5CF14F074EC04
:1018E00010F00FC01EF010C01FF011C020F0120049
:1018F0002850030DF350280F216E21C0F6FF100E63
:10190000F76E0900F5CF1EF00900F5CF1FF00A00B1
:10191000F5CF20F012002850800A120FD8A080D0F6
:10192000000E0A6E0A0E096E000E046E640E036E3F
:101930002850016E026A01BE020665EC15F001C076
:1019400007F002C008F06EEC14F00750030DF3CF5F
:1019500021F01B0E21262150010F226E22C0F6FF1E
:10196000100EF76E0900F5CF12F00900F5CF13F055
:101970000A00F5CF14F0000E0A6E640E096E2850AE
:10198000076E086A07BE08066EEC14F00750030DD8
:10199000F3CF23F0360E23262350010F246E24C0EC
:1019A000F6FF100EF76E0900F5CF0FF00900F5CF26
:1019B00010F00A00F5CF11F074EC10F00FC025F014
:1019C00010C026F011C027F025C00FF026C010F07F
:1019D00027C011F0000E046E0A0E036E2850016E2F
:1019E000026A01BE020665EC15F00150030DF350CA
:1019F000010F216E21C0F6FF100EF76E0900F5CF22
:101A000012F00900F5CF13F00A00F5CF14F074ECD2
:101A100010F00FC01EF010C01FF011C020F0120017
:101A20002850800A750FD8A047D0000E0A6E0A0E03
:101A3000096E2850076E086A07BE08066EEC14F09F
:101A40000750030DF3CF21F01B0E21262150010F6B
:101A5000226E22C0F6FF100EF76E0900F5CF0FF0D0
:101A60000900F5CF10F00A00F5CF11F0000E046E5A
:101A70000A0E036E2850016E026A01BE020665EC72
:101A800015F00150030DF350010F236E23C0F6FF34
:101A9000100EF76E0900F5CF12F00900F5CF13F024
:101AA0000A00F5CF14F074EC10F00FC01EF010C057
:101AB0001FF011C020F012002850030DF350010F49
:101AC000216E21C0F6FF100EF76E0900F5CF1EF053
:101AD0000900F5CF1FF00A00F5CF20F012002B6EA1
:101AE0006D0E2B6479D00A0E056E640E016E2B50BC
:101AF00057EC17F005EC17F0030DF3CF21F01B0E98
:101B000021262150280F226E22C0F6FF100EF76EFC
:101B10000900F5CF12F00900F5CF13F00A00F5CF58
:101B200014F0640E056E2B5005EC17F0030DF3CF87
:101B300023F0360E23262350280F246E24C0F6FFF0
:101B4000100EF76E0900F5CF0FF00900F5CF10F079
:101B50000A00F5CF11F074EC10F00FC028F010C09F
:101B600029F011C02AF00A0E016E2B5057EC17F025
:101B7000030DF350280F216E21C0F6FF100EF76EF3
:101B80000900F5CF12F00900F5CF13F00A00F5CFE8
:101B900014F028C00FF029C010F02AC011F074EC26
:101BA00010F00FC025F010C026F011C027F025C09E
:101BB0000FF026C010F027C011F0000E126E000EBC
:101BC000136E3F0E146E74EC10F00FC01EF010C0B8
:101BD0001FF011C020F012000A0E2B644DD00A0E27
:101BE000016E2B5057EC17F0030DF350280F216EA8
:101BF00021C0F6FF100EF76E0900F5CF12F00900B4
:101C0000F5CF13F00A00F5CF14F00A0E056E2B5035
:101C100005EC17F0030DF3CF22F01B0E2226225005
:101C2000280F236E23C0F6FF100EF76E0900F5CFC4
:101C30000FF00900F5CF10F00A00F5CF11F074ECA9
:101C400010F00FC028F010C029F011C02AF028C0F1
:101C50000FF029C010F02AC011F0000E126E000E15
:101C6000136E3F0E146E74EC10F00FC01EF010C017
:101C70001FF011C020F012002B50030DF350280F5D
:101C8000216E21C0F6FF100EF76E0900F5CF0FF0A0
:101C90000900F5CF10F00A00F5CF11F0000E126E1A
:101CA000000E136E3F0E146E74EC10F00FC01EF099
:101CB00010C01FF011C020F012002EC032F0336AA5
:101CC000346A2D34323601E333803250376E31C0FE
:101CD00032F0336A346A3034323601E333803250C2
:101CE000366E3750D8B40AD03650375CD8B00DD0E5
:101CF0003750365C326E180E326407D02FC02CF08D
:101D000030C02DF031C02EF012003650D8B40AD0B9
:101D10003750365CD8B00DD03650375C326E180E66
:101D2000326407D02CC02CF02DC02DF02EC02EF028
:101D30001200060E356E2EBE358E31BE358C2D8EC0
:101D4000FF0E2C16FF0E2D16000E2E16308EFF0ED7
:101D50002F16FF0E3016000E31163650375CD8B0F5
:101D60001BD0D8902F3630363136360637503618DD
:101D7000D8B40DD0350635C032F0070E3216D8B4BF
:101D800006D0EFD7D8902E322D322C32372A36504B
:101D90003718D8B41FD0F6D73750365CD8B01AD021
:101DA000D8902C362D362E36370637503618D8B404
:101DB0000DD0350635C032F0070E3216D8B406D035
:101DC000EFD7D890313230322F32362A365037188A
:101DD000D8A4F7D735AE0CD0FF0E2C1AFF0E2D1A53
:101DE000FF0E2E1A010E2C26000E2D22000E2E2282
:101DF00035AC0CD0FF0E2F1AFF0E301AFF0E311A21
:101E0000010E2F26000E3022000E3122000E356EFC
:101E10002C502F262D5030222E50312231AE0ED094
:101E2000FF0E2F1AFF0E301AFF0E311A010E2F2649
:101E3000000E3022000E3122010E356E2FC001F04F
:101E400030C002F031C003F037C004F035C005F0F7
:101E50006FEC13F001C02CF002C02DF003C02EF087
:101E6000120098C069F099C06AF09AC06BF0000E39
:101E70006C6F800E6D6F3F0E6E6FF1EC14F0D8B08A
:101E800006D0000E986F800E996F3F0E9A6FC00EAD
:101E9000696F5A0E6A6F450E6B6F98C06CF099C0EF
:101EA0006DF09AC06EF0F1EC14F0D8B006D0C00E10
:101EB000986F5A0E996F450E9A6F780E9D6FDF0ED0
:101EC0009E6F8D0E9F6F010EA06F98C07DF099C020
:101ED0007EF09AC07FF09DC071F09EC072F09FC0EE
:101EE00073F0A0C074F005EC16F071C07AF072C007
:101EF0007BF073C07CF068EC11F07AC089F07BC095
:101F00008AF07CC08BF045EC12F089C09DF08AC04D
:101F10009EF08BC09FF08CC0A0F0000E9D27080E95
:101F20009E23000E9F23000EA0230C0E9B6FD890C3
:101F3000A0339F339E339D339B2FF9D79D07000E0F
:101F40009E5B9F5BA05BA0519F119E110CE1030E55
:101F50009D5DD8B008D0030E9D6F000E9E6F000EE1
:101F60009F6F000EA06FA0519F1103E19E05D8A0A6
:101F700008D0FF0E9D6F000E9E6F000E9F6F000E2B
:101F8000A06F9DC09CF0000E6D6F000E6E6F000E76
:101F9000706F010E6F6F800E9DEC15F0000E6B6F71
:101FA000100E6C6F800EA2EC17F0FE0E6B6F9CC0D3
:101FB0006CF0800EA2EC17F0000E6B6F000E6C6FD1
:101FC000800EA2EC17F01A0E00019B6FF80EE82E9F
:101FD000FED79B2FFCD700F0000E00016B6FA00E08
:101FE0006C6F800EA2EC17F0120003C007F0086AB5
:101FF000096A0234073601E3088007500F6E0F505C
:10200000D8A409D0000E016E000E026E000E036E01
:10201000000E046E120006C007F0086A096A053453
:10202000073601E3088007500E6E0E50D8B4EAD789
:10203000028EFF0E0116FF0E0216000E0316058E0D
:10204000FF0E0416FF0E0516000E0616000E0A6E91
:10205000000E0B6E000E0C6E000E0D6E7F0E0F5EEE
:102060000E50980F0F5E180E0E6ED8900A360B3673
:102070000C360D360450015C0550025806500358CA
:10208000D8A007D00450015E0550025A0650035AEA
:102090000A80D8900136023603360E2EE6D70FAEF0
:1020A0000DD00F50800A970FD8A0ACD7D8900D3222
:1020B0000C320B320A320F3EF9D70DD0170E0F64D7
:1020C00007D0A0D7D8900A360B360C360D360F063F
:1020D0000F50D8A4F7D70AC001F00BC002F00CC013
:1020E00003F00DC004F0120011C015F0166A176A53
:1020F0001034153601E316801550186E1850D8A408
:1021000007D0000E0F6E000E106E000E116E120042
:1021100014C015F0166A176A1334153601E31680D9
:1021200015501D6E1D50D8A407D0000E0F6E000E66
:10213000106E000E116E12001D507B0F182611C07C
:102140001DF014501D1A800E1D16108E138EFF0EDA
:102150001216FF0E1316000E1416000E196E000E46
:102160001A6E000E1B6E070E1C6E0FA006D01250CA
:10217000192613501A2214501B22D89011321032F3
:102180000F32D8901236133614361C2EEED7090EA5
:102190001C6E0FA006D01250192613501A2214508C
:1021A0001B22D890113210320F32D8901B321A32C3
:1021B00019321C2EEED719C001F01AC002F01BC054
:1021C00003F018C004F01DC005F06FEC13F001C05F
:1021D0000FF002C010F003C011F0120003340434F9
:1021E0000C6E0C50D8A409D0000E016E000E026EC9
:1021F000000E036E000E046E1200063407340B6EE0
:102200000B50D8B4F1D7038EFF0E0116FF0E021645
:10221000FF0E0316000E0416068EFF0E0416FF0EA8
:102220000516FF0E0616000E0716000E076E000EAE
:10223000086E000E096E000E0A6E7F0E0C5E0B50CB
:10224000A00F0C5E200E0B6ED890073608360936AC
:102250000A360450015C05500258065003580750D6
:102260000458D8A009D00450015E0550025A065007
:10227000035A0750045A0780D890013602360336B5
:1022800004360B2EE1D70CAE0DD00C50800A9F0FF8
:10229000D8A0AAD7D8900A320932083207320C3EA9
:1022A000F9D70DD01F0E0C6407D09ED7D8900736F3
:1022B000083609360A360C060C50D8A4F7D707C0E2
:1022C00001F008C002F009C003F00AC004F01200D7
:1022D0007CC080F0816B826B7B35803701E381812C
:1022E0008051876F8751D8A407D0000E7A6F000EF7
:1022F0007B6F000E7C6F12007FC080F0816B826B61
:102300007E35803701E381818051886F8851D8A460
:1023100007D0000E7A6F000E7B6F000E7C6F1200EC
:10232000000E846F000E856F000E866F8851890F36
:10233000875F7CC088F07F51881B800E88177B8F59
:10234000FF0E7A17FF0E7B17000E7C177E8FFF0E95
:102350007D17FF0E7E17000E7F17180E836FD89023
:102360008437853786377D517A5D7E517B597F5121
:102370007C59D8A007D07D517A5F7E517B5B7F511D
:102380007C5B8481D8907A377B377C37832FE7D783
:1023900084C069F085C06AF086C06BF087C06CF0BD
:1023A00088C06DF018EC13F069C07AF06AC07BF059
:1023B0006BC07CF01200720ED36E000E0F013B6FEB
:1023C000000E3C6F000E3A6F000E956E000E966E7A
:1023D000000E8C6E000E8D6E020EC0EC17F0060E15
:1023E000C0EC17F00F0EC0EC17F0280EC0EC17F081
:1023F000010EC0EC17F0949C948E190EAF6E900EE7
:10240000AB6E200EAC6EF28EF28C9D8A9E9A9486F4
:102410009488800EC76E280EC66E000EC56E000E24
:10242000CB6E270EC86E000E00016B6F800E6C6FB6
:10243000800EA2EC17F0340E0001A16FF10EE82E11
:10244000FED7A12FFCD700D0000E0001986F7A0EA6
:10245000996F440E9A6F31EC0FF0000E986F480E92
:10246000996F420E9A6F31EC0FF0070E0001A26FC8
:10247000170EA16F6A0EE82EFED7A12FFCD7A22F50
:10248000FAD700F08C8C8C8E12008BC08DF08E6B86
:102490008F6B8A358D3701E38E818D51976F975100
:1024A000D8A409D0000E896F000E8A6F000E8B6FC2
:1024B000000E8C6F1200170E8D6F89C08EF08AC0CF
:1024C0008FF08BC090F08D29916F04D0D89090330D
:1024D0008F338E33912FFAD700018E51926F8A8FEE
:1024E000FF0E8917FF0E8A17000E8B178951936F05
:1024F0008A51946F8B51956F966B8E0E975F97AF45
:102500000DD09751800A8F0FD8A0CCD7D890963392
:10251000953394339333973FF9D70DD0170E9765C2
:1025200007D0C0D7D8909337943795379637970709
:102530009751D8A4F7D79251D8B408D0961F951FB9
:10254000941F936D000E94239523962393C089F0D6
:1025500094C08AF095C08BF096C08CF012002BC00E
:102560002DF02E6A2F6A2A342D3601E32E802D504D
:10257000376E3750D8A409D0000E296E000E2A6E8F
:10258000000E2B6E000E2C6E1200170E2D6E29C041
:102590002EF02AC02FF02BC030F02D28316E04D041
:1025A000D89030322F322E32312EFAD72E50326E52
:1025B0002A8EFF0E2916FF0E2A16000E2B16295002
:1025C000336E2A50346E2B50356E366A8E0E375E5F
:1025D00037AE0DD03750800A8F0FD8A0CDD7D89006
:1025E0003632353234323332373EF9D70DD0170E0A
:1025F000376407D0C1D7D8903336343635363636BF
:1026000037063750D8A4F7D73250D8B408D0361E82
:10261000351E341E336C000E34223522362233C070
:1026200029F034C02AF035C02BF036C02CF012004F
:102630006C51D8B405D069516A116B11D8A40CD073
:10264000000E696F000E6A6F000E6B6F12006C2B2C
:10265000D8906B336A336933000E69156E6F000EC4
:102660006A156F6FFE0E6B15706F6E516F117011E2
:10267000D8B40CD0ECD76C2B010E6927000E6A235E
:10268000000E6B23D8906B336A336933000E6915E3
:102690006E6F000E6A156F6FFF0E6B15706F6E51C7
:1026A0006F117011D8B406D0E6D76C07D89069378F
:1026B0006A376B376ABF03D0020E6C61F6D76CA124
:1026C0006A9FD8906C336C516B136D51D8A46B8F8B
:1026D00069C069F06AC06AF06BC06BF01200045008
:1026E000D8B405D0015002100310D8A40CD0000EAD
:1026F000016E000E026E000E036E1200042AD890C6
:10270000033202320132000E0114066E000E021472
:10271000076EFE0E0314086E065007100810D8B49A
:102720000CD0ECD7042A010E0126000E0222000E66
:102730000322D890033202320132000E0114066ED9
:10274000000E0214076EFF0E0314086E06500710E9
:102750000810D8B406D0E6D70406D8900136023661
:10276000033602BE03D0020E0460F6D704A0029E18
:10277000D8900432045003120550D8A4038E01C02F
:1027800001F002C002F003C003F012006A6F8D80F6
:102790000D0EE82EFED700F06AC069F0010E0001B0
:1027A00069178C506919FE0B69198C6E0D0EE82E95
:1027B000FED700F06AC069F00001D8906933010EBD
:1027C000691769478C506919FD0B69198C6E0D0EDC
:1027D000E82EFED700F06AC069F00001D890693396
:1027E000D8906933010E6917694769478C50691998
:1027F000FB0B69198C6E0D0EE82EFED700F06AC037
:1028000069F00001D8906933D8906933D890693362
:10281000010E69176947694769478C506919F70BB9
:1028200069198C6E0D0EE82EFED700F08D900D0EFE
:10283000E82EFED700F01200026E8D800D0EE82EFD
:10284000FED700F002C001F0010E01168C500118F5
:10285000FE0B01188C6E0D0EE82EFED700F002C0A4
:1028600001F0D8900132010E011601468C5001187A
:10287000FD0B01188C6E0D0EE82EFED700F002C085
:1028800001F0D8900132D8900132010E01160146B4
:1028900001468C500118FB0B01188C6E0D0EE82EB2
:1028A000FED700F002C001F0D8900132D89001327A
:1028B000D8900132010E01160146014601468C50A6
:1028C0000118F70B01188C6E0D0EE82EFED700F0E4
:1028D0008D900D0EE82EFED700F01200000E0C6E4B
:1028E0000AAE06D0096C0A1ED8B00A2A010E0C6E78
:1028F00008AE06D0076C081ED8B0082A010E0C1AC4
:10290000000E0E6E000E0D6E09500A10D8B41CD0C9
:10291000010E0B6E04D0D89009360A360B2A0AAE87
:10292000FAD7D8900D360E360950075C0A50085871
:10293000D8A005D00950075E0A50085A0D80D890DB
:102940000A3209320B2EEDD70C50D8B404D00D6CDE
:102950000E1ED8B00E2A0DC007F00EC008F01200EF
:10296000000E096E000E0A6E000E0B6E000E0C6E4D
:102970000550061007100810D8B42AD0010E0D6EAD
:1029800006D0D89005360636073608360D2A08AE2A
:10299000F8D7D89009360A360B360C360550015C4C
:1029A000065002580750035808500458D8A009D0C0
:1029B0000550015E0650025A0750035A0850045A47
:1029C0000980D89008320732063205320D2EE1D741
:1029D00009C001F00AC002F00BC003F00CC004F003
:1029E00012006BAF0FD0000E6F6F000E706F800E75
:1029F000716F69516F5D696F6A5170596A6F6B5180
:102A000071596B6F6EAF0FD0000E6F6F000E706F4D
:102A1000800E716F6C516F5D6C6F6D5170596D6F81
:102A20006E5171596E6F000E691B000E6A1B800E8D
:102A30006B1B000E6C1B000E6D1B800E6E1B6C5111
:102A4000695D6D516A596E516B59D8B002D0D890FA
:102A50001200D880120003AE0FD0000E076E000ED9
:102A6000086E800E096E0150075C016E0250085816
:102A7000026E03500958036E06AE0FD0000E076EAB
:102A8000000E086E800E096E0450075C046E05503F
:102A90000858056E06500958066E000E011A000E01
:102AA000021A800E031A000E041A000E051A800E78
:102AB000061A0450015C0550025806500358D8B05D
:102AC00002D0D8901200D8801200000E066E02AE1E
:102AD00006D0016C021ED8B0022A010E066E04AEAA
:102AE00004D0036C041ED8B0042A03500410D8B4D8
:102AF00018D0010E056E04D0D89003360436052A8E
:102B000004AEFAD70350015C04500258D8A004D098
:102B10000350015E0450025AD89004320332052E4D
:102B2000F1D70650D8B404D0016C021ED8B0022AE6
:102B300001C001F002C002F01200736F07EC18F040
:102B40007351F7EC17F06D51F7EC17F00BEC18F030
:102B500073510109F7EC17F0000EB76F000EB66F56
:102B600018D0010EB625716F000EB721726F6F512C
:102B7000711908E170517219D8A404D0010EE7EC64
:102B800016F003D0000EE7EC16F06E6F6E2BB64B0E
:102B9000B72B6F51B65D7051B759D8A0E2D703EC8F
:102BA00018F012000550061007100810D8B424D0F1
:102BB000010E096E06D0D89005360636073608365F
:102BC000092A08AEF8D70550015C06500258075094
:102BD000035808500458D8A008D00550015E06508C
:102BE000025A0750035A0850045AD8900832073244
:102BF00006320532092EE7D701C001F002C002F00B
:102C000003C003F004C004F012008E0E796F06D0EA
:102C1000D8907433733372337133792B000E71157E
:102C2000756F000E7215766F000E7315776FFF0EBD
:102C30007415786F7551761177117811D8A4E8D78B
:102C400071C069F072C06AF073C06BF079C06CF04B
:102C5000000E6D6F18EC13F069C071F06AC072F06D
:102C60006BC073F012008E0E116E06D0D8900C322D
:102C70000B320A320932112A000E09140D6E000EB1
:102C80000A140E6E000E0B140F6EFF0E0C14106E55
:102C90000D500E100F101010D8A4E8D709C001F085
:102CA0000AC002F00BC003F011C004F0000E056E64
:102CB0006FEC13F001C009F002C00AF003C00BF082
:102CC0001200000E0001B76F000EB66F0AD0B651A9
:102CD000BA0FD96EDA6ADF50D9EC17F00001B64BA3
:102CE000B72BFF0E046EFF0E056EBA0E016E91EC4F
:102CF00017F00450012605500222B651015CB7516D
:102D00000258D8A01200E3D7076E13EC18F0075052
:102D1000FDEC17F00350FDEC17F0000E0001B76F4B
:102D2000000EB66F0AD00450D96EDA6ADF50FDEC9F
:102D300017F0042A0001B64BB72B0550B65D0650BC
:102D4000B759D8A0F0D70FEC18F012003A50385C01
:102D50000F6E3B503958106E3A503C5C096E3B5038
:102D60003D580A6E3E50405C076E3F504158086E19
:102D70006EEC14F007C011F008C012F06CEC17F004
:102D80003E500F24386E3F501020396E12003B50D9
:102D90003C103D10D8B406D0000E3B1A000E3C1A71
:102DA000800E3D1A38C02CF039C02DF03AC02EF0FC
:102DB0003BC02FF03CC030F03DC031F05DEC0EF078
:102DC0002CC038F02DC039F02EC03AF012006B6FD5
:102DD000E4EC17F0C586E4EC17F0C9CF6CF0E4EC36
:102DE00017F06B05D8A403D06A6B6A2B02D00001E0
:102DF0006A6B6A3B6A47C5506A19DF0B6A19C56E70
:102E0000C588E4EC17F06C511200066E000E086ED7
:102E10000550D8B415D0010E076E03D0D8900536F2
:102E2000072A05AEFBD7D89008360550065CD8A017
:102E300003D00550065E0880D8900532072EF3D7E0
:102E400008501200000E0C6E0AAE06D0096C0A1E65
:102E5000D8B00A2A010E0C6E09C001F00AC002F0B7
:102E6000036A8E0E046E0CC005F06FEC13F001C007
:102E700009F002C00AF003C00BF01200340EF66E27
:102E8000300EF76E000EF86E0900F5CFD6F009008F
:102E9000F5CFD7F000EEA3F0330EEE6AE806FDE1C1
:102EA0005F905F92000EF86E000117EF18F0026E4F
:102EB000080E036E000E046ED89002340434046EC3
:102EC000D89002360150045CD8A002D00150045EB4
:102ED000032EF2D7045012000F501102F3CF13F05B
:102EE000F4CF14F00F501202F350142610501102B8
:102EF000F350142613C00FF014C010F0120001504C
:102F000002100310D8B406D0000E011A000E021AE7
:102F1000800E031A01C001F002C002F003C003F0EA
:102F2000120001C003F001D0032A0350D96EDA6AFF
:102F3000DF50D8A4F9D70150035C016E026A01BECC
:102F4000020612006D6F07EC18F06D51F7EC17F0E8
:102F50006B51F7EC17F06C51F7EC17F003EC18F02D
:102F60001200036E000E026E3A0E036005D02F0EA3
:102F7000036402D0010E026E02C001F001301200A3
:102F800000016B6F8D9200016B390F0BC6EC13F0D3
:102F900000016B510F0BC6EC13F01200036E8D9203
:102FA00003380F0B1CEC14F003500F0B1CEC14F047
:102FB0001200036E8D8203380F0B1CEC14F00350CB
:102FC0000F0B1CEC14F01200C5CF69F01F0E0001AE
:102FD0006917D8A4F9D7C7A41200F6D7C5CF01F056
:102FE0001F0E0116D8A4FAD7C7A41200F7D76A6F2C
:102FF000E4EC17F06AC0C9FF1200026EEEEC17F0A5
:1030000002C0C9FF1200E4EC17F0C5841200E4EC22
:1030100017F0C5801200E4EC17F0C5821200EEEC48
:1030200017F0C5841200EEEC17F0C5801200DBEC3F
:0630300011F0FFD70100C2
:020000040020DA
:08000000FFFFFFFFFFFFFFFF00
:020000040030CA
:0E000000FF281F3CFFBF81FF0FC00FE00F4025
:00000001FF
